{
  "contractName": "Marketplace",
  "abi": [
    {
      "constant": true,
      "inputs": [
        {
          "name": "",
          "type": "address"
        },
        {
          "name": "",
          "type": "uint256"
        }
      ],
      "name": "auctionsToSellers",
      "outputs": [
        {
          "name": "",
          "type": "uint256"
        }
      ],
      "payable": false,
      "stateMutability": "view",
      "type": "function",
      "signature": "0x1505a2ba"
    },
    {
      "constant": false,
      "inputs": [],
      "name": "unpause",
      "outputs": [],
      "payable": false,
      "stateMutability": "nonpayable",
      "type": "function",
      "signature": "0x3f4ba83a"
    },
    {
      "constant": true,
      "inputs": [],
      "name": "cooContractAddress",
      "outputs": [
        {
          "name": "",
          "type": "address"
        }
      ],
      "payable": false,
      "stateMutability": "view",
      "type": "function",
      "signature": "0x3fd73340"
    },
    {
      "constant": true,
      "inputs": [
        {
          "name": "account",
          "type": "address"
        }
      ],
      "name": "isPauser",
      "outputs": [
        {
          "name": "",
          "type": "bool"
        }
      ],
      "payable": false,
      "stateMutability": "view",
      "type": "function",
      "signature": "0x46fbf68e"
    },
    {
      "constant": true,
      "inputs": [
        {
          "name": "",
          "type": "uint256"
        }
      ],
      "name": "auctions",
      "outputs": [
        {
          "name": "status",
          "type": "uint8"
        },
        {
          "name": "seller",
          "type": "address"
        },
        {
          "name": "buyer",
          "type": "address"
        },
        {
          "name": "startingPrice",
          "type": "uint256"
        },
        {
          "name": "currentBid",
          "type": "uint256"
        },
        {
          "name": "certificateId",
          "type": "uint256"
        },
        {
          "name": "expiresAt",
          "type": "uint256"
        }
      ],
      "payable": false,
      "stateMutability": "view",
      "type": "function",
      "signature": "0x571a26a0"
    },
    {
      "constant": true,
      "inputs": [],
      "name": "paused",
      "outputs": [
        {
          "name": "",
          "type": "bool"
        }
      ],
      "payable": false,
      "stateMutability": "view",
      "type": "function",
      "signature": "0x5c975abb"
    },
    {
      "constant": false,
      "inputs": [],
      "name": "renouncePauser",
      "outputs": [],
      "payable": false,
      "stateMutability": "nonpayable",
      "type": "function",
      "signature": "0x6ef8d66d"
    },
    {
      "constant": false,
      "inputs": [],
      "name": "renounceOwnership",
      "outputs": [],
      "payable": false,
      "stateMutability": "nonpayable",
      "type": "function",
      "signature": "0x715018a6"
    },
    {
      "constant": true,
      "inputs": [
        {
          "name": "",
          "type": "address"
        },
        {
          "name": "",
          "type": "uint256"
        }
      ],
      "name": "salesToSellers",
      "outputs": [
        {
          "name": "",
          "type": "uint256"
        }
      ],
      "payable": false,
      "stateMutability": "view",
      "type": "function",
      "signature": "0x81839fa8"
    },
    {
      "constant": false,
      "inputs": [
        {
          "name": "account",
          "type": "address"
        }
      ],
      "name": "addPauser",
      "outputs": [],
      "payable": false,
      "stateMutability": "nonpayable",
      "type": "function",
      "signature": "0x82dc1ec4"
    },
    {
      "constant": true,
      "inputs": [],
      "name": "tokenContractAddress",
      "outputs": [
        {
          "name": "",
          "type": "address"
        }
      ],
      "payable": false,
      "stateMutability": "view",
      "type": "function",
      "signature": "0x82edaf94"
    },
    {
      "constant": false,
      "inputs": [],
      "name": "pause",
      "outputs": [],
      "payable": false,
      "stateMutability": "nonpayable",
      "type": "function",
      "signature": "0x8456cb59"
    },
    {
      "constant": true,
      "inputs": [],
      "name": "owner",
      "outputs": [
        {
          "name": "",
          "type": "address"
        }
      ],
      "payable": false,
      "stateMutability": "view",
      "type": "function",
      "signature": "0x8da5cb5b"
    },
    {
      "constant": true,
      "inputs": [],
      "name": "isOwner",
      "outputs": [
        {
          "name": "",
          "type": "bool"
        }
      ],
      "payable": false,
      "stateMutability": "view",
      "type": "function",
      "signature": "0x8f32d59b"
    },
    {
      "constant": true,
      "inputs": [
        {
          "name": "",
          "type": "uint256"
        }
      ],
      "name": "sales",
      "outputs": [
        {
          "name": "price",
          "type": "uint256"
        },
        {
          "name": "certificateId",
          "type": "uint256"
        },
        {
          "name": "expiresAt",
          "type": "uint256"
        },
        {
          "name": "status",
          "type": "uint8"
        },
        {
          "name": "seller",
          "type": "address"
        },
        {
          "name": "buyer",
          "type": "address"
        }
      ],
      "payable": false,
      "stateMutability": "view",
      "type": "function",
      "signature": "0xb5f522f7"
    },
    {
      "constant": true,
      "inputs": [
        {
          "name": "",
          "type": "address"
        },
        {
          "name": "",
          "type": "uint256"
        }
      ],
      "name": "auctionsToBuyers",
      "outputs": [
        {
          "name": "",
          "type": "uint256"
        }
      ],
      "payable": false,
      "stateMutability": "view",
      "type": "function",
      "signature": "0xd74a5701"
    },
    {
      "constant": true,
      "inputs": [
        {
          "name": "",
          "type": "address"
        },
        {
          "name": "",
          "type": "uint256"
        }
      ],
      "name": "salesToBuyers",
      "outputs": [
        {
          "name": "",
          "type": "uint256"
        }
      ],
      "payable": false,
      "stateMutability": "view",
      "type": "function",
      "signature": "0xda71a271"
    },
    {
      "constant": false,
      "inputs": [
        {
          "name": "newOwner",
          "type": "address"
        }
      ],
      "name": "transferOwnership",
      "outputs": [],
      "payable": false,
      "stateMutability": "nonpayable",
      "type": "function",
      "signature": "0xf2fde38b"
    },
    {
      "inputs": [
        {
          "name": "initialTokenContractAddress",
          "type": "address"
        },
        {
          "name": "initialCooContractAddress",
          "type": "address"
        }
      ],
      "payable": false,
      "stateMutability": "nonpayable",
      "type": "constructor",
      "signature": "constructor"
    },
    {
      "anonymous": false,
      "inputs": [
        {
          "indexed": false,
          "name": "saleId",
          "type": "uint256"
        },
        {
          "indexed": true,
          "name": "seller",
          "type": "address"
        }
      ],
      "name": "SaleCreated",
      "type": "event",
      "signature": "0x02d62788b45b68a9eb64f42a2bae69c5b4a36218536465e038eab160c2b2aef2"
    },
    {
      "anonymous": false,
      "inputs": [
        {
          "indexed": false,
          "name": "saleId",
          "type": "uint256"
        },
        {
          "indexed": true,
          "name": "buyer",
          "type": "address"
        }
      ],
      "name": "SaleCompleted",
      "type": "event",
      "signature": "0x8262b86fecd9df80dbb59dce1f2d83b992fa5e477fca9b869af821ea565e673c"
    },
    {
      "anonymous": false,
      "inputs": [
        {
          "indexed": false,
          "name": "saleId",
          "type": "uint256"
        }
      ],
      "name": "SaleCanceled",
      "type": "event",
      "signature": "0xbc3d8540adfcf6600ea8f790c6ed415a6aa7a1219d45ecefc5bdff014348a8b0"
    },
    {
      "anonymous": false,
      "inputs": [
        {
          "indexed": false,
          "name": "auctionId",
          "type": "uint256"
        },
        {
          "indexed": true,
          "name": "seller",
          "type": "address"
        }
      ],
      "name": "AuctionCreated",
      "type": "event",
      "signature": "0x5d551e2a2cc977fd8c530317059b4f2d9f504fb82f7dfad736f8d56679bcdfd0"
    },
    {
      "anonymous": false,
      "inputs": [
        {
          "indexed": false,
          "name": "auctionId",
          "type": "uint256"
        },
        {
          "indexed": false,
          "name": "bidder",
          "type": "address"
        },
        {
          "indexed": false,
          "name": "currentBid",
          "type": "uint256"
        }
      ],
      "name": "NewBid",
      "type": "event",
      "signature": "0x558a0d5d5468d74b0db24c74eb348b42271c2ebb4c9e953ced38aaed95fa4361"
    },
    {
      "anonymous": false,
      "inputs": [
        {
          "indexed": false,
          "name": "auctionId",
          "type": "uint256"
        },
        {
          "indexed": true,
          "name": "buyer",
          "type": "address"
        },
        {
          "indexed": false,
          "name": "price",
          "type": "uint256"
        }
      ],
      "name": "AuctionCompleted",
      "type": "event",
      "signature": "0xeeaf33aa12f9f2732a7edcfc04439e9cfae37c4acbf4ab2edce890820b4fccc4"
    },
    {
      "anonymous": false,
      "inputs": [
        {
          "indexed": false,
          "name": "auctionId",
          "type": "uint256"
        }
      ],
      "name": "AuctionCanceled",
      "type": "event",
      "signature": "0x28601d865dccc9f113e15a7185c1b38c085d598c71250d3337916a428536d771"
    },
    {
      "anonymous": false,
      "inputs": [
        {
          "indexed": false,
          "name": "account",
          "type": "address"
        }
      ],
      "name": "Paused",
      "type": "event",
      "signature": "0x62e78cea01bee320cd4e420270b5ea74000d11b0c9f74754ebdbfc544b05a258"
    },
    {
      "anonymous": false,
      "inputs": [
        {
          "indexed": false,
          "name": "account",
          "type": "address"
        }
      ],
      "name": "Unpaused",
      "type": "event",
      "signature": "0x5db9ee0a495bf2e6ff9c91a7834c1ba4fdd244a5e8aa4e537bd38aeae4b073aa"
    },
    {
      "anonymous": false,
      "inputs": [
        {
          "indexed": true,
          "name": "account",
          "type": "address"
        }
      ],
      "name": "PauserAdded",
      "type": "event",
      "signature": "0x6719d08c1888103bea251a4ed56406bd0c3e69723c8a1686e017e7bbe159b6f8"
    },
    {
      "anonymous": false,
      "inputs": [
        {
          "indexed": true,
          "name": "account",
          "type": "address"
        }
      ],
      "name": "PauserRemoved",
      "type": "event",
      "signature": "0xcd265ebaf09df2871cc7bd4133404a235ba12eff2041bb89d9c714a2621c7c7e"
    },
    {
      "anonymous": false,
      "inputs": [
        {
          "indexed": true,
          "name": "previousOwner",
          "type": "address"
        },
        {
          "indexed": true,
          "name": "newOwner",
          "type": "address"
        }
      ],
      "name": "OwnershipTransferred",
      "type": "event",
      "signature": "0x8be0079c531659141344cd1fd0a4f28419497f9722a3daafe3b4186f6b6457e0"
    },
    {
      "constant": false,
      "inputs": [
        {
          "name": "newTokenContractAddress",
          "type": "address"
        }
      ],
      "name": "setTokenContractAddress",
      "outputs": [],
      "payable": false,
      "stateMutability": "nonpayable",
      "type": "function",
      "signature": "0xb23d4854"
    },
    {
      "constant": false,
      "inputs": [
        {
          "name": "newCooContractAddress",
          "type": "address"
        }
      ],
      "name": "setCooContractAddress",
      "outputs": [],
      "payable": false,
      "stateMutability": "nonpayable",
      "type": "function",
      "signature": "0xa8561885"
    },
    {
      "constant": false,
      "inputs": [
        {
          "name": "certificateId",
          "type": "uint256"
        },
        {
          "name": "price",
          "type": "uint256"
        },
        {
          "name": "expiresAt",
          "type": "uint256"
        }
      ],
      "name": "createSale",
      "outputs": [],
      "payable": false,
      "stateMutability": "nonpayable",
      "type": "function",
      "signature": "0x6c1909ed"
    },
    {
      "constant": false,
      "inputs": [
        {
          "name": "saleId",
          "type": "uint256"
        }
      ],
      "name": "cancelSale",
      "outputs": [],
      "payable": false,
      "stateMutability": "nonpayable",
      "type": "function",
      "signature": "0xbd94b005"
    },
    {
      "constant": false,
      "inputs": [
        {
          "name": "saleId",
          "type": "uint256"
        }
      ],
      "name": "executeSale",
      "outputs": [],
      "payable": false,
      "stateMutability": "nonpayable",
      "type": "function",
      "signature": "0x9b1225c4"
    },
    {
      "constant": false,
      "inputs": [
        {
          "name": "certificateId",
          "type": "uint256"
        },
        {
          "name": "startingPrice",
          "type": "uint256"
        },
        {
          "name": "expiresAt",
          "type": "uint256"
        }
      ],
      "name": "createAuction",
      "outputs": [],
      "payable": false,
      "stateMutability": "nonpayable",
      "type": "function",
      "signature": "0xcda4beef"
    },
    {
      "constant": false,
      "inputs": [
        {
          "name": "auctionId",
          "type": "uint256"
        }
      ],
      "name": "cancelAuction",
      "outputs": [],
      "payable": false,
      "stateMutability": "nonpayable",
      "type": "function",
      "signature": "0x96b5a755"
    },
    {
      "constant": false,
      "inputs": [
        {
          "name": "auctionId",
          "type": "uint256"
        },
        {
          "name": "amount",
          "type": "uint256"
        }
      ],
      "name": "executeAuction",
      "outputs": [],
      "payable": false,
      "stateMutability": "nonpayable",
      "type": "function",
      "signature": "0x25d377f7"
    },
    {
      "constant": false,
      "inputs": [
        {
          "name": "auctionId",
          "type": "uint256"
        }
      ],
      "name": "completeAuction",
      "outputs": [],
      "payable": false,
      "stateMutability": "nonpayable",
      "type": "function",
      "signature": "0x21b62886"
    },
    {
      "constant": true,
      "inputs": [],
      "name": "getSales",
      "outputs": [
        {
          "components": [
            {
              "name": "price",
              "type": "uint256"
            },
            {
              "name": "certificateId",
              "type": "uint256"
            },
            {
              "name": "expiresAt",
              "type": "uint256"
            },
            {
              "name": "status",
              "type": "uint8"
            },
            {
              "name": "seller",
              "type": "address"
            },
            {
              "name": "buyer",
              "type": "address"
            }
          ],
          "name": "",
          "type": "tuple[]"
        }
      ],
      "payable": false,
      "stateMutability": "view",
      "type": "function",
      "signature": "0x0d83304c"
    },
    {
      "constant": true,
      "inputs": [],
      "name": "getAuctions",
      "outputs": [
        {
          "components": [
            {
              "name": "status",
              "type": "uint8"
            },
            {
              "name": "seller",
              "type": "address"
            },
            {
              "name": "buyer",
              "type": "address"
            },
            {
              "name": "startingPrice",
              "type": "uint256"
            },
            {
              "name": "currentBid",
              "type": "uint256"
            },
            {
              "name": "certificateId",
              "type": "uint256"
            },
            {
              "name": "expiresAt",
              "type": "uint256"
            }
          ],
          "name": "",
          "type": "tuple[]"
        }
      ],
      "payable": false,
      "stateMutability": "view",
      "type": "function",
      "signature": "0xd7c06919"
    }
  ],
  "bytecode": "0x60806040523480156200001157600080fd5b5060405160408062002ed88339810180604052620000339190810190620001c5565b60008054600160a060020a0319163317808255604051600160a060020a039190911691907f8be0079c531659141344cd1fd0a4f28419497f9722a3daafe3b4186f6b6457e0908290a36200009033640100000000620000cb810204565b60028054600160a860020a031916610100600160a060020a039485160217905560038054600160a060020a0319169190921617905562000210565b620000e66001826401000000006200228b6200011d82021704565b604051600160a060020a038216907f6719d08c1888103bea251a4ed56406bd0c3e69723c8a1686e017e7bbe159b6f890600090a250565b600160a060020a03811615156200013357600080fd5b62000148828264010000000062000178810204565b156200015357600080fd5b600160a060020a0316600090815260209190915260409020805460ff19166001179055565b6000600160a060020a03821615156200019057600080fd5b50600160a060020a03166000908152602091909152604090205460ff1690565b6000620001be825162000204565b9392505050565b60008060408385031215620001d957600080fd5b6000620001e78585620001b0565b9250506020620001fa85828601620001b0565b9150509250929050565b600160a060020a031690565b612cb880620002206000396000f30060806040526004361061015b5763ffffffff60e060020a6000350416630d83304c81146101605780631505a2ba1461018b57806321b62886146101b857806325d377f7146101da5780633f4ba83a146101fa5780633fd733401461020f57806346fbf68e14610231578063571a26a01461025e5780635c975abb146102915780636c1909ed146102a65780636ef8d66d146102c6578063715018a6146102db57806381839fa8146102f057806382dc1ec41461031057806382edaf94146103305780638456cb59146103455780638da5cb5b1461035a5780638f32d59b1461036f57806396b5a755146103845780639b1225c4146103a4578063a8561885146103c4578063b23d4854146103e4578063b5f522f714610404578063bd94b00514610436578063cda4beef14610456578063d74a570114610476578063d7c0691914610496578063da71a271146104b8578063f2fde38b146104d8575b600080fd5b34801561016c57600080fd5b506101756104f8565b6040516101829190612a3d565b60405180910390f35b34801561019757600080fd5b506101ab6101a6366004612360565b6105cd565b6040516101829190612bb4565b3480156101c457600080fd5b506101d86101d33660046123b8565b6105fd565b005b3480156101e657600080fd5b506101d86101f53660046123f4565b610af8565b34801561020657600080fd5b506101d8610eb6565b34801561021b57600080fd5b50610224610f1f565b60405161018291906129db565b34801561023d57600080fd5b5061025161024c36600461231c565b610f2e565b6040516101829190612a4e565b34801561026a57600080fd5b5061027e6102793660046123b8565b610f47565b6040516101829796959493929190612a5c565b34801561029d57600080fd5b50610251610fa3565b3480156102b257600080fd5b506101d86102c1366004612413565b610fac565b3480156102d257600080fd5b506101d86112b9565b3480156102e757600080fd5b506101d86112c4565b3480156102fc57600080fd5b506101ab61030b366004612360565b61132e565b34801561031c57600080fd5b506101d861032b36600461231c565b611349565b34801561033c57600080fd5b50610224611369565b34801561035157600080fd5b506101d861137d565b34801561036657600080fd5b506102246113de565b34801561037b57600080fd5b506102516113ed565b34801561039057600080fd5b506101d861039f3660046123b8565b6113fe565b3480156103b057600080fd5b506101d86103bf3660046123b8565b611521565b3480156103d057600080fd5b506101d86103df36600461231c565b611a55565b3480156103f057600080fd5b506101d86103ff36600461231c565b611ad3565b34801561041057600080fd5b5061042461041f3660046123b8565b611b57565b60405161018296959493929190612beb565b34801561044257600080fd5b506101d86104513660046123b8565b611bad565b34801561046257600080fd5b506101d8610471366004612413565b611cce565b34801561048257600080fd5b506101ab610491366004612360565b611fe1565b3480156104a257600080fd5b506104ab611ffc565b6040516101829190612a2c565b3480156104c457600080fd5b506101ab6104d3366004612360565b6120c4565b3480156104e457600080fd5b506101d86104f336600461231c565b6120df565b60606004805480602002602001604051908101604052809291908181526020016000905b828210156105c4578382906000526020600020906005020160c060405190810160405290816000820154815260200160018201548152602001600282015481526020016003820160009054906101000a900460ff16600281111561057c57fe5b600281111561058757fe5b81526003820154600160a060020a03610100909104811660208084019190915260049093015416604090910152908252600192909201910161051c565b50505050905090565b6008602052816000526040600020818154811015156105e857fe5b90600052602060002001600091509150505481565b600254600090819060ff161561061257600080fd5b5050600254600354600160a060020a03610100909204821691166000600780548590811061063c57fe5b600091825260209091206006909102015460ff16600281111561065b57fe5b146106845760405160e560020a62461bcd02815260040161067b90612b54565b60405180910390fd5b4260078481548110151561069457fe5b9060005260206000209060060201600501541015156106c85760405160e560020a62461bcd02815260040161067b90612b34565b30600160a060020a031681600160a060020a031663081812fc6007868154811015156106f057fe5b9060005260206000209060060201600401546040518263ffffffff1660e060020a0281526004016107219190612bb4565b602060405180830381600087803b15801561073b57600080fd5b505af115801561074f573d6000803e3d6000fd5b505050506040513d601f19601f820116820180604052506107739190810190612342565b600160a060020a03161461079c5760405160e560020a62461bcd02815260040161067b90612af4565b60078054849081106107aa57fe5b90600052602060002090600602016003015482600160a060020a031663dd62ed3e33306040518363ffffffff1660e060020a0281526004016107ed9291906129e9565b602060405180830381600087803b15801561080757600080fd5b505af115801561081b573d6000803e3d6000fd5b505050506040513d601f19601f8201168201806040525061083f91908101906123d6565b10156108605760405160e560020a62461bcd02815260040161067b90612ba4565b81600160a060020a03166323b872dd3360078681548110151561087f57fe5b906000526020600020906006020160000160019054906101000a9004600160a060020a03166007878154811015156108b357fe5b9060005260206000209060060201600301546040518463ffffffff1660e060020a0281526004016108e693929190612a04565b602060405180830381600087803b15801561090057600080fd5b505af1158015610914573d6000803e3d6000fd5b505050506040513d601f19601f82011682018060405250610938919081019061239a565b15156109595760405160e560020a62461bcd02815260040161067b90612ac4565b80600160a060020a03166323b872dd60078581548110151561097757fe5b906000526020600020906006020160000160019054906101000a9004600160a060020a0316336007878154811015156109ac57fe5b9060005260206000209060060201600401546040518463ffffffff1660e060020a0281526004016109df93929190612a04565b600060405180830381600087803b1580156109f957600080fd5b505af1158015610a0d573d6000803e3d6000fd5b5050505033600784815481101515610a2157fe5b906000526020600020906006020160010160006101000a815481600160a060020a030219169083600160a060020a031602179055506001600784815481101515610a6757fe5b60009182526020909120600690910201805460ff19166001836002811115610a8b57fe5b021790555033600160a060020a03167feeaf33aa12f9f2732a7edcfc04439e9cfae37c4acbf4ab2edce890820b4fccc484600786815481101515610acb57fe5b906000526020600020906006020160030154604051610aeb929190612bd0565b60405180910390a2505050565b600254600090819060ff1615610b0d57600080fd5b505060025460035460078054610100909304600160a060020a039081169392169133919086908110610b3b57fe5b60009182526020909120600690910201546101009004600160a060020a03161415610b7b5760405160e560020a62461bcd02815260040161067b90612ae4565b60006007805486908110610b8b57fe5b600091825260209091206006909102015460ff166002811115610baa57fe5b14610bca5760405160e560020a62461bcd02815260040161067b90612b54565b6007805485908110610bd857fe5b90600052602060002090600602016005015442111515610c0d5760405160e560020a62461bcd02815260040161067b90612b94565b6007805485908110610c1b57fe5b9060005260206000209060060201600201548310158015610c5a57506007805485908110610c4557fe5b90600052602060002090600602016003015483115b1515610c7b5760405160e560020a62461bcd02815260040161067b90612b24565b30600160a060020a031681600160a060020a031663081812fc600787815481101515610ca357fe5b9060005260206000209060060201600401546040518263ffffffff1660e060020a028152600401610cd49190612bb4565b602060405180830381600087803b158015610cee57600080fd5b505af1158015610d02573d6000803e3d6000fd5b505050506040513d601f19601f82011682018060405250610d269190810190612342565b600160a060020a031614610d4f5760405160e560020a62461bcd02815260040161067b90612af4565b6040517fdd62ed3e0000000000000000000000000000000000000000000000000000000081528390600160a060020a0384169063dd62ed3e90610d9890339030906004016129e9565b602060405180830381600087803b158015610db257600080fd5b505af1158015610dc6573d6000803e3d6000fd5b505050506040513d601f19601f82011682018060405250610dea91908101906123d6565b1015610e0b5760405160e560020a62461bcd02815260040161067b90612ba4565b82600785815481101515610e1b57fe5b90600052602060002090600602016003018190555033600785815481101515610e4057fe5b906000526020600020906006020160010160006101000a815481600160a060020a030219169083600160a060020a031602179055507f558a0d5d5468d74b0db24c74eb348b42271c2ebb4c9e953ced38aaed95fa4361843385604051610ea893929190612bc2565b60405180910390a150505050565b610ebf33610f2e565b1515610eca57600080fd5b60025460ff161515610edb57600080fd5b6002805460ff191690556040517f5db9ee0a495bf2e6ff9c91a7834c1ba4fdd244a5e8aa4e537bd38aeae4b073aa90610f159033906129db565b60405180910390a1565b600354600160a060020a031681565b6000610f4160018363ffffffff6120fb16565b92915050565b6007805482908110610f5557fe5b600091825260209091206006909102018054600182015460028301546003840154600485015460059095015460ff85169650610100909404600160a060020a03908116959316939192909187565b60025460ff1690565b600254600090819060ff1615610fc157600080fd5b6003546040517f6352211e000000000000000000000000000000000000000000000000000000008152600160a060020a03909116925033908390636352211e9061100f908990600401612bb4565b602060405180830381600087803b15801561102957600080fd5b505af115801561103d573d6000803e3d6000fd5b505050506040513d601f19601f820116820180604052506110619190810190612342565b600160a060020a03161461108a5760405160e560020a62461bcd02815260040161067b90612ad4565b6040517f081812fc0000000000000000000000000000000000000000000000000000000081523090600160a060020a0384169063081812fc906110d1908990600401612bb4565b602060405180830381600087803b1580156110eb57600080fd5b505af11580156110ff573d6000803e3d6000fd5b505050506040513d601f19601f820116820180604052506111239190810190612342565b600160a060020a03161461114c5760405160e560020a62461bcd02815260040161067b90612af4565b6001600460c0604051908101604052808781526020018881526020018681526020016000600281111561117b57fe5b8152336020808301919091526000604092830181905284546001818101808855968352918390208551600590920201908155918401518282015591830151600280830191909155606084015160038301805493949193909260ff19909116919084908111156111e657fe5b0217905550608082015160038201805474ffffffffffffffffffffffffffffffffffffffff001916610100600160a060020a039384160217905560a0909201516004909101805473ffffffffffffffffffffffffffffffffffffffff19169190921617905533600081815260056020908152604080832080546001810182559084529190922094909303939092018390559051919250907f02d62788b45b68a9eb64f42a2bae69c5b4a36218536465e038eab160c2b2aef2906112aa908490612bb4565b60405180910390a25050505050565b6112c233612132565b565b6112cc6113ed565b15156112d757600080fd5b60008054604051600160a060020a03909116907f8be0079c531659141344cd1fd0a4f28419497f9722a3daafe3b4186f6b6457e0908390a36000805473ffffffffffffffffffffffffffffffffffffffff19169055565b6005602052816000526040600020818154811015156105e857fe5b61135233610f2e565b151561135d57600080fd5b6113668161217a565b50565b6002546101009004600160a060020a031681565b61138633610f2e565b151561139157600080fd5b60025460ff16156113a157600080fd5b6002805460ff191660011790556040517f62e78cea01bee320cd4e420270b5ea74000d11b0c9f74754ebdbfc544b05a25890610f159033906129db565b600054600160a060020a031690565b600054600160a060020a0316331490565b60025460ff161561140e57600080fd5b600780543391908390811061141f57fe5b60009182526020909120600690910201546101009004600160a060020a03161461145e5760405160e560020a62461bcd02815260040161067b90612b84565b6000600780548390811061146e57fe5b600091825260209091206006909102015460ff16600281111561148d57fe5b146114ad5760405160e560020a62461bcd02815260040161067b90612b54565b60026007828154811015156114be57fe5b60009182526020909120600690910201805460ff191660018360028111156114e257fe5b02179055507f28601d865dccc9f113e15a7185c1b38c085d598c71250d3337916a428536d771816040516115169190612bb4565b60405180910390a150565b600254600090819060ff161561153657600080fd5b505060025460035460048054610100909304600160a060020a03908116939216913391908590811061156457fe5b60009182526020909120600590910201600301546101009004600160a060020a031614156115a75760405160e560020a62461bcd02815260040161067b90612b74565b600060048054859081106115b757fe5b600091825260209091206003600590920201015460ff1660028111156115d957fe5b146115f95760405160e560020a62461bcd02815260040161067b90612b04565b600480548490811061160757fe5b9060005260206000209060050201600201544211151561163c5760405160e560020a62461bcd02815260040161067b90612b44565b30600160a060020a031681600160a060020a031663081812fc60048681548110151561166457fe5b9060005260206000209060050201600101546040518263ffffffff1660e060020a0281526004016116959190612bb4565b602060405180830381600087803b1580156116af57600080fd5b505af11580156116c3573d6000803e3d6000fd5b505050506040513d601f19601f820116820180604052506116e79190810190612342565b600160a060020a0316146117105760405160e560020a62461bcd02815260040161067b90612af4565b600480548490811061171e57fe5b60009182526020909120600590910201546040517fdd62ed3e000000000000000000000000000000000000000000000000000000008152600160a060020a0384169063dd62ed3e9061177690339030906004016129e9565b602060405180830381600087803b15801561179057600080fd5b505af11580156117a4573d6000803e3d6000fd5b505050506040513d601f19601f820116820180604052506117c891908101906123d6565b10156117e95760405160e560020a62461bcd02815260040161067b90612ba4565b81600160a060020a03166323b872dd3360048681548110151561180857fe5b906000526020600020906005020160030160019054906101000a9004600160a060020a031660048781548110151561183c57fe5b9060005260206000209060050201600001546040518463ffffffff1660e060020a02815260040161186f93929190612a04565b602060405180830381600087803b15801561188957600080fd5b505af115801561189d573d6000803e3d6000fd5b505050506040513d601f19601f820116820180604052506118c1919081019061239a565b15156118e25760405160e560020a62461bcd02815260040161067b90612ac4565b80600160a060020a03166323b872dd60048581548110151561190057fe5b906000526020600020906005020160030160019054906101000a9004600160a060020a03163360048781548110151561193557fe5b9060005260206000209060050201600101546040518463ffffffff1660e060020a02815260040161196893929190612a04565b600060405180830381600087803b15801561198257600080fd5b505af1158015611996573d6000803e3d6000fd5b50505050336004848154811015156119aa57fe5b906000526020600020906005020160040160006101000a815481600160a060020a030219169083600160a060020a0316021790555060016004848154811015156119f057fe5b60009182526020909120600360059092020101805460ff19166001836002811115611a1757fe5b021790555033600160a060020a03167f8262b86fecd9df80dbb59dce1f2d83b992fa5e477fca9b869af821ea565e673c84604051610aeb9190612bb4565b611a5d6113ed565b1515611a6857600080fd5b60025460ff161515611a7957600080fd5b600160a060020a0381161515611aa45760405160e560020a62461bcd02815260040161067b90612b14565b6003805473ffffffffffffffffffffffffffffffffffffffff1916600160a060020a0392909216919091179055565b611adb6113ed565b1515611ae657600080fd5b60025460ff161515611af757600080fd5b600160a060020a0381161515611b225760405160e560020a62461bcd02815260040161067b90612b14565b60028054600160a060020a039092166101000274ffffffffffffffffffffffffffffffffffffffff0019909216919091179055565b6004805482908110611b6557fe5b6000918252602090912060059091020180546001820154600283015460038401546004909401549294509092909160ff821691600160a060020a036101009091048116911686565b60025460ff1615611bbd57600080fd5b6004805433919083908110611bce57fe5b60009182526020909120600590910201600301546101009004600160a060020a031614611c105760405160e560020a62461bcd02815260040161067b90612b64565b60006004805483908110611c2057fe5b600091825260209091206003600590920201015460ff166002811115611c4257fe5b14611c625760405160e560020a62461bcd02815260040161067b90612b04565b6002600482815481101515611c7357fe5b60009182526020909120600360059092020101805460ff19166001836002811115611c9a57fe5b02179055507fbc3d8540adfcf6600ea8f790c6ed415a6aa7a1219d45ecefc5bdff014348a8b0816040516115169190612bb4565b600254600090819060ff1615611ce357600080fd5b6003546040517f6352211e000000000000000000000000000000000000000000000000000000008152600160a060020a03909116925033908390636352211e90611d31908990600401612bb4565b602060405180830381600087803b158015611d4b57600080fd5b505af1158015611d5f573d6000803e3d6000fd5b505050506040513d601f19601f82011682018060405250611d839190810190612342565b600160a060020a031614611dac5760405160e560020a62461bcd02815260040161067b90612ad4565b6040517f081812fc0000000000000000000000000000000000000000000000000000000081523090600160a060020a0384169063081812fc90611df3908990600401612bb4565b602060405180830381600087803b158015611e0d57600080fd5b505af1158015611e21573d6000803e3d6000fd5b505050506040513d601f19601f82011682018060405250611e459190810190612342565b600160a060020a031614611e6e5760405160e560020a62461bcd02815260040161067b90612af4565b6040805160e0810182526000808252336020830152918101829052606081018690526080810182905260a0810187905260c0810185905260078054600181810180845592909452825160069091027fa66cc928b5edb82af9bd49922954155ab7b0942694bea4ce44661d9a8736c688018054929392909190829060ff191686836002811115611ef957fe5b0217905550602082810151825474ffffffffffffffffffffffffffffffffffffffff001916610100600160a060020a03928316021783556040808501516001808601805473ffffffffffffffffffffffffffffffffffffffff19169290941691909117909255606085015160028501556080850151600385015560a0850151600485015560c090940151600590930192909255336000818152600883528481208054948501815581529190912094909303930183905551919250907f5d551e2a2cc977fd8c530317059b4f2d9f504fb82f7dfad736f8d56679bcdfd0906112aa908490612bb4565b6009602052816000526040600020818154811015156105e857fe5b60606007805480602002602001604051908101604052809291908181526020016000905b828210156105c4576000848152602090206040805160e08101909152600684029091018054829060ff16600281111561205557fe5b600281111561206057fe5b81528154600160a060020a03610100909104811660208084019190915260018085015490921660408401526002840154606084015260038401546080840152600484015460a084015260059093015460c09092019190915291835292019101612020565b6006602052816000526040600020818154811015156105e857fe5b6120e76113ed565b15156120f257600080fd5b611366816121c2565b6000600160a060020a038216151561211257600080fd5b50600160a060020a03166000908152602091909152604090205460ff1690565b61214360018263ffffffff61223f16565b604051600160a060020a038216907fcd265ebaf09df2871cc7bd4133404a235ba12eff2041bb89d9c714a2621c7c7e90600090a250565b61218b60018263ffffffff61228b16565b604051600160a060020a038216907f6719d08c1888103bea251a4ed56406bd0c3e69723c8a1686e017e7bbe159b6f890600090a250565b600160a060020a03811615156121d757600080fd5b60008054604051600160a060020a03808516939216917f8be0079c531659141344cd1fd0a4f28419497f9722a3daafe3b4186f6b6457e091a36000805473ffffffffffffffffffffffffffffffffffffffff1916600160a060020a0392909216919091179055565b600160a060020a038116151561225457600080fd5b61225e82826120fb565b151561226957600080fd5b600160a060020a0316600090815260209190915260409020805460ff19169055565b600160a060020a03811615156122a057600080fd5b6122aa82826120fb565b156122b457600080fd5b600160a060020a0316600090815260209190915260409020805460ff19166001179055565b60006122e58235612c4f565b9392505050565b60006122e58251612c4f565b60006122e58251612c5b565b60006122e58235612c70565b60006122e58251612c70565b60006020828403121561232e57600080fd5b600061233a84846122d9565b949350505050565b60006020828403121561235457600080fd5b600061233a84846122ec565b6000806040838503121561237357600080fd5b600061237f85856122d9565b925050602061239085828601612304565b9150509250929050565b6000602082840312156123ac57600080fd5b600061233a84846122f8565b6000602082840312156123ca57600080fd5b600061233a8484612304565b6000602082840312156123e857600080fd5b600061233a8484612310565b6000806040838503121561240757600080fd5b600061237f8585612304565b60008060006060848603121561242857600080fd5b60006124348686612304565b935050602061244586828701612304565b925050604061245686828701612304565b9150509250925092565b61246981612c4f565b82525050565b600061247a82612c4b565b80845260208401935061248c83612c45565b60005b828110156124bc576124a28683516128d9565b6124ab82612c45565b60e09690960195915060010161248f565b5093949350505050565b60006124d182612c4b565b8084526020840193506124e383612c45565b60005b828110156124bc576124f9868351612962565b61250282612c45565b60c0969096019591506001016124e6565b61246981612c5b565b61246981612c73565b602581527f436f6e747261637420636f756c64206e6f74207472616e73666572207468652060208201527f66756e6473000000000000000000000000000000000000000000000000000000604082015260600190565b602a81527f53656e646572206973206e6f7420746865206f776e6572206f6620746865206360208201527f6572746966696361746500000000000000000000000000000000000000000000604082015260600190565b602281527f596f752063616e6e6f7420626964206f6e20796f7572206f776e20617563746960208201527f6f6e000000000000000000000000000000000000000000000000000000000000604082015260600190565b603181527f436f6e7472616374206973206e6f7420616c6c6f77656420746f206d616e697060208201527f756c617465206365727469666963617465000000000000000000000000000000604082015260600190565b601881527f53616c65206973206e6f74206f70656e20616e796d6f72650000000000000000602082015260400190565b602581527f4e657720746f6b656e20636f6e7472616374206164647265737320697320696e60208201527f76616c6964000000000000000000000000000000000000000000000000000000604082015260600190565b601581527f416d6f756e74206d757374206265206869676865720000000000000000000000602082015260400190565b601b81527f41756374696f6e20686173206e6f742065787069726564207965740000000000602082015260400190565b601081527f53616c6520686173206578706972656400000000000000000000000000000000602082015260400190565b601b81527f41756374696f6e206973206e6f74206f70656e20616e796d6f72650000000000602082015260400190565b601b81527f596f752063616e6e6f742063616e63656c20746869732073616c650000000000602082015260400190565b60208082527f596f752063616e6e6f74206578656375746520796f7572206f776e2073616c659082015260400190565b601e81527f596f752063616e6e6f742063616e63656c20746869732061756374696f6e0000602082015260400190565b601381527f41756374696f6e20686173206578706972656400000000000000000000000000602082015260400190565b603181527f436f6e7472616374206973206e6f7420616c6c6f77656420746f206d616e697060208201527f756c6174652062757965722066756e6473000000000000000000000000000000604082015260600190565b805160e08301906128ea848261251c565b5060208201516128fd6020850182612460565b5060408201516129106040850182612460565b50606082015161292360608501826129d2565b50608082015161293660808501826129d2565b5060a082015161294960a08501826129d2565b5060c082015161295c60c08501826129d2565b50505050565b805160c083019061297384826129d2565b50602082015161298660208501826129d2565b50604082015161299960408501826129d2565b5060608201516129ac606085018261251c565b5060808201516129bf6080850182612460565b5060a082015161295c60a0850182612460565b61246981612c70565b60208101610f418284612460565b604081016129f78285612460565b6122e56020830184612460565b60608101612a128286612460565b612a1f6020830185612460565b61233a60408301846129d2565b602080825281016122e5818461246f565b602080825281016122e581846124c6565b60208101610f418284612513565b60e08101612a6a828a61251c565b612a776020830189612460565b612a846040830188612460565b612a9160608301876129d2565b612a9e60808301866129d2565b612aab60a08301856129d2565b612ab860c08301846129d2565b98975050505050505050565b60208082528101610f4181612525565b60208082528101610f418161257b565b60208082528101610f41816125d1565b60208082528101610f4181612627565b60208082528101610f418161267d565b60208082528101610f41816126ad565b60208082528101610f4181612703565b60208082528101610f4181612733565b60208082528101610f4181612763565b60208082528101610f4181612793565b60208082528101610f41816127c3565b60208082528101610f41816127f3565b60208082528101610f4181612823565b60208082528101610f4181612853565b60208082528101610f4181612883565b60208101610f4182846129d2565b60608101612a1282866129d2565b60408101612bde82856129d2565b6122e560208301846129d2565b60c08101612bf982896129d2565b612c0660208301886129d2565b612c1360408301876129d2565b612c20606083018661251c565b612c2d6080830185612460565b612c3a60a0830184612460565b979650505050505050565b60200190565b5190565b600160a060020a031690565b151590565b600060038210612c6c57fe5b5090565b90565b6000610f4182612c605600a265627a7a72305820934ea7d12cecb43e68b169bc93df75140067d0ce98f4c742ac6780f20446bd616c6578706572696d656e74616cf50037",
  "source": "/* solhint-disable not-rely-on-time */\npragma solidity 0.4.25;\npragma experimental ABIEncoderV2;\n\nimport \"openzeppelin-solidity/contracts/token/ERC20/IERC20.sol\";\nimport \"openzeppelin-solidity/contracts/token/ERC721/IERC721.sol\";\nimport \"openzeppelin-solidity/contracts/ownership/Ownable.sol\";\nimport \"openzeppelin-solidity/contracts/lifecycle/Pausable.sol\";\nimport \"openzeppelin-solidity/contracts/math/SafeMath.sol\";\n\n\n/**\n * @title Marketplace contract\n * @dev This contract handles how certificates can be traded\n */\ncontract Marketplace is Ownable, Pausable {\n    address public tokenContractAddress;\n    address public cooContractAddress;\n\n    constructor(address initialTokenContractAddress, address initialCooContractAddress) public {\n        tokenContractAddress = initialTokenContractAddress;\n        cooContractAddress = initialCooContractAddress;\n    }\n\n    enum Status { Open, Completed, Canceled }\n\n    /**\n     * Sales are instantaneous orders\n     */\n    struct Sale {\n        uint256 price;\n        uint256 certificateId;\n        uint256 expiresAt;\n        Status status;\n        address seller;\n        address buyer;\n    }\n\n    Sale[] public sales;\n\n    mapping (address => uint256[]) public salesToSellers;\n    mapping (address => uint256[]) public salesToBuyers;\n\n    /**\n     * @dev Emitted when a new sale has been created\n     * @param saleId The id of the sale\n     * @param seller The address of the seller\n     */\n    event SaleCreated(\n        uint256 saleId,\n        address indexed seller\n    );\n\n    /**\n     * @dev Emitted when a sale has been completed\n     * @param saleId The id of the sale\n     * @param buyer The address of the buyer\n     */\n    event SaleCompleted(\n        uint256 saleId,\n        address indexed buyer\n    );\n\n    /**\n     * @dev Emitted when a sale has been canceled\n     * @param saleId The id of the sale\n     */\n    event SaleCanceled(\n        uint256 saleId\n    );\n\n    /**\n     * Orders can be auctions too\n     */\n    struct Auction {\n        Status status;\n        address seller;\n        address buyer;\n        uint256 startingPrice;\n        uint256 currentBid;\n        uint256 certificateId;\n        uint256 expiresAt;\n    }\n\n    Auction[] public auctions;\n\n    mapping (address => uint256[]) public auctionsToSellers;\n    mapping (address => uint256[]) public auctionsToBuyers;\n\n    /**\n     * @dev Emitted when a new auction has been created\n     * @param auctionId The id of the auction\n     * @param seller The address of the seller\n     */\n    event AuctionCreated(\n        uint256 auctionId,\n        address indexed seller\n    );\n\n    /**\n     * @dev Emitted when a new bid has been made\n     * @param auctionId The id of the auction\n     * @param bidder The address of the bidder\n     * @param currentBid The amount of the bid\n     */\n    event NewBid(\n        uint256 auctionId,\n        address bidder,\n        uint256 currentBid\n    );\n\n    /**\n     * @dev Emitted when an auction has been completed\n     * @param auctionId The id of the auction\n     * @param buyer The address of the buyer\n     * @param price The final price of the auction\n     */\n    event AuctionCompleted(\n        uint256 auctionId,\n        address indexed buyer,\n        uint256 price\n    );\n\n    /**\n     * @dev Emitted when an auction has been canceled\n     * @param auctionId The id of the auction\n     */\n    event AuctionCanceled(\n        uint256 auctionId\n    );\n\n    /**\n     * @dev Updates the address of the token contract\n     * @param newTokenContractAddress The new address of the token contract\n     */\n    function setTokenContractAddress(address newTokenContractAddress) external onlyOwner() whenPaused() {\n        require(newTokenContractAddress != address(0), \"New token contract address is invalid\");\n\n        tokenContractAddress = newTokenContractAddress;\n    }\n\n    /**\n     * @dev Updates the address of the COO contract\n     * @param newCooContractAddress The new address of the COO contract\n     */\n    function setCooContractAddress(address newCooContractAddress) external onlyOwner() whenPaused() {\n        require(newCooContractAddress != address(0), \"New token contract address is invalid\");\n\n        cooContractAddress = newCooContractAddress;\n    }\n\n    /**\n     * @dev Creates a new sale\n     * @param certificateId The id of the certificate\n     * @param price The expected price\n     * @param expiresAt The expiry date of the sale (as a timestamp)\n     */\n    function createSale(uint256 certificateId, uint256 price, uint256 expiresAt) external whenNotPaused() {\n        IERC721 cooContract = IERC721(cooContractAddress);\n\n        require(\n            cooContract.ownerOf(certificateId) == msg.sender,\n            \"Sender is not the owner of the certificate\"\n        );\n\n        require(\n            cooContract.getApproved(certificateId) == address(this),\n            \"Contract is not allowed to manipulate certificate\"\n        );\n\n        uint256 saleId = sales.push(\n            Sale({\n                status: Status.Open,\n                seller: msg.sender,\n                buyer: address(0),\n                price: price,\n                certificateId: certificateId,\n                expiresAt: expiresAt\n            })\n        ) - 1;\n\n        salesToSellers[msg.sender].push(saleId);\n\n        emit SaleCreated(saleId, msg.sender);\n    }\n\n    /**\n     * @dev Cancels a sale\n     * @param saleId The id of the sale\n     */\n    function cancelSale(uint256 saleId) external whenNotPaused() {\n        require(\n            sales[saleId].seller == msg.sender,\n            \"You cannot cancel this sale\"\n        );\n\n        require(\n            sales[saleId].status == Status.Open,\n            \"Sale is not open anymore\"\n        );\n\n        sales[saleId].status = Status.Canceled;\n\n        emit SaleCanceled(saleId);\n    }\n\n    /**\n     * @dev Executes a sale\n     * @param saleId The id of the sale\n     */\n    function executeSale(uint256 saleId) external whenNotPaused() {\n        IERC20 tokenContract = IERC20(tokenContractAddress);\n        IERC721 cooContract = IERC721(cooContractAddress);\n\n        require(\n            sales[saleId].seller != msg.sender,\n            \"You cannot execute your own sale\"\n        );\n\n        require(\n            sales[saleId].status == Status.Open,\n            \"Sale is not open anymore\"\n        );\n\n        require(\n            now > sales[saleId].expiresAt,\n            \"Sale has expired\"\n        );\n\n        require(\n            cooContract.getApproved(sales[saleId].certificateId) == address(this),\n            \"Contract is not allowed to manipulate certificate\"\n        );\n\n        require(\n            tokenContract.allowance(msg.sender, address(this)) >= sales[saleId].price,\n            \"Contract is not allowed to manipulate buyer funds\"\n        );\n\n        require(\n            tokenContract.transferFrom(msg.sender, sales[saleId].seller, sales[saleId].price),\n            \"Contract could not transfer the funds\"\n        );\n\n        cooContract.transferFrom(sales[saleId].seller, msg.sender, sales[saleId].certificateId);\n\n        sales[saleId].buyer = msg.sender;\n        sales[saleId].status = Status.Completed;\n\n        emit SaleCompleted(saleId, msg.sender);\n    }\n\n    /**\n     * @dev Creates an auction\n     * @param certificateId The id of the certificate\n     * @param startingPrice The starting price of the auction\n     * @param expiresAt The expiry date of the auction\n     */\n    function createAuction(uint256 certificateId, uint256 startingPrice, uint256 expiresAt) external whenNotPaused() {\n        IERC721 cooContract = IERC721(cooContractAddress);\n\n        require(\n            cooContract.ownerOf(certificateId) == msg.sender,\n            \"Sender is not the owner of the certificate\"\n        );\n\n        require(\n            cooContract.getApproved(certificateId) == address(this),\n            \"Contract is not allowed to manipulate certificate\"\n        );\n\n        uint256 auctionId = auctions.push(\n            Auction({\n                status: Status.Open,\n                seller: msg.sender,\n                buyer: address(0),\n                startingPrice: startingPrice,\n                currentBid: 0,\n                certificateId: certificateId,\n                expiresAt: expiresAt\n            })\n        ) - 1;\n\n        auctionsToSellers[msg.sender].push(auctionId);\n\n        emit AuctionCreated(auctionId, msg.sender);\n    }\n\n    /**\n     * @dev Cancels an auction\n     * @param auctionId The id of the auction\n     */\n    function cancelAuction(uint256 auctionId) external whenNotPaused() {\n        require(\n            auctions[auctionId].seller == msg.sender,\n            \"You cannot cancel this auction\"\n        );\n\n        require(\n            auctions[auctionId].status == Status.Open,\n            \"Auction is not open anymore\"\n        );\n\n        auctions[auctionId].status = Status.Canceled;\n\n        emit AuctionCanceled(auctionId);\n    }\n\n    /**\n     * @dev Executes an auction (Makes a new bid)\n     * @param auctionId The id of the auction\n     * @param amount The amount to bid\n     */\n    function executeAuction(uint256 auctionId, uint256 amount) external whenNotPaused() {\n        IERC20 tokenContract = IERC20(tokenContractAddress);\n        IERC721 cooContract = IERC721(cooContractAddress);\n\n        require(\n            auctions[auctionId].seller != msg.sender,\n            \"You cannot bid on your own auction\"\n        );\n\n        require(\n            auctions[auctionId].status == Status.Open,\n            \"Auction is not open anymore\"\n        );\n\n        require(\n            now > auctions[auctionId].expiresAt,\n            \"Auction has expired\"\n        );\n\n        require(\n            amount >= auctions[auctionId].startingPrice && amount > auctions[auctionId].currentBid,\n            \"Amount must be higher\"\n        );\n\n        require(\n            cooContract.getApproved(auctions[auctionId].certificateId) == address(this),\n            \"Contract is not allowed to manipulate certificate\"\n        );\n\n        require(\n            tokenContract.allowance(msg.sender, address(this)) >= amount,\n            \"Contract is not allowed to manipulate buyer funds\"\n        );\n\n        auctions[auctionId].currentBid = amount;\n        auctions[auctionId].buyer = msg.sender;\n\n        emit NewBid(auctionId, msg.sender, amount);\n    }\n\n    /**\n     * @dev Completes an auction (to claim the certificate)\n     * @param auctionId The id of the auction\n     */\n    function completeAuction(uint256 auctionId) external whenNotPaused() {\n        IERC20 tokenContract = IERC20(tokenContractAddress);\n        IERC721 cooContract = IERC721(cooContractAddress);\n\n        require(\n            auctions[auctionId].status == Status.Open,\n            \"Auction is not open anymore\"\n        );\n\n        require(\n            auctions[auctionId].expiresAt < now,\n            \"Auction has not expired yet\"\n        );\n\n        require(\n            cooContract.getApproved(auctions[auctionId].certificateId) == address(this),\n            \"Contract is not allowed to manipulate certificate\"\n        );\n\n        require(\n            tokenContract.allowance(msg.sender, address(this)) >= auctions[auctionId].currentBid,\n            \"Contract is not allowed to manipulate buyer funds\"\n        );\n\n        require(\n            tokenContract.transferFrom(msg.sender, auctions[auctionId].seller, auctions[auctionId].currentBid),\n            \"Contract could not transfer the funds\"\n        );\n\n        cooContract.transferFrom(auctions[auctionId].seller, msg.sender, auctions[auctionId].certificateId);\n\n        auctions[auctionId].buyer = msg.sender;\n        auctions[auctionId].status = Status.Completed;\n\n        emit AuctionCompleted(auctionId, msg.sender, auctions[auctionId].currentBid);\n    }\n\n    /**\n     * @dev Gets all the sales\n     * @return An array containing all the sales\n     */\n    function getSales() external view returns (Sale[]) {\n        return sales;\n    }\n\n    /**\n     * @dev Gets all the auctions\n     * @return An array containing all the auctions\n     */\n    function getAuctions() external view returns (Auction[]) {\n        return auctions;\n    }\n}\n",
  "sourcePath": "/Users/clement/Documents/Dev/herc/COO/COO/contracts/Marketplace.sol",
  "compiler": {
    "name": "solc",
    "version": "0.4.25+commit.59dbf8f1.Emscripten.clang"
  },
  "schemaVersion": "3.0.1",
  "updatedAt": "2019-01-30T16:59:42.452Z",
  "devdoc": {
    "methods": {
      "cancelAuction(uint256)": {
        "details": "Cancels an auction",
        "params": {
          "auctionId": "The id of the auction"
        }
      },
      "cancelSale(uint256)": {
        "details": "Cancels a sale",
        "params": {
          "saleId": "The id of the sale"
        }
      },
      "completeAuction(uint256)": {
        "details": "Completes an auction (to claim the certificate)",
        "params": {
          "auctionId": "The id of the auction"
        }
      },
      "createAuction(uint256,uint256,uint256)": {
        "details": "Creates an auction",
        "params": {
          "certificateId": "The id of the certificate",
          "expiresAt": "The expiry date of the auction",
          "startingPrice": "The starting price of the auction"
        }
      },
      "createSale(uint256,uint256,uint256)": {
        "details": "Creates a new sale",
        "params": {
          "certificateId": "The id of the certificate",
          "expiresAt": "The expiry date of the sale (as a timestamp)",
          "price": "The expected price"
        }
      },
      "executeAuction(uint256,uint256)": {
        "details": "Executes an auction (Makes a new bid)",
        "params": {
          "amount": "The amount to bid",
          "auctionId": "The id of the auction"
        }
      },
      "executeSale(uint256)": {
        "details": "Executes a sale",
        "params": {
          "saleId": "The id of the sale"
        }
      },
      "getAuctions()": {
        "details": "Gets all the auctions",
        "return": "An array containing all the auctions"
      },
      "getSales()": {
        "details": "Gets all the sales",
        "return": "An array containing all the sales"
      },
      "isOwner()": {
        "return": "true if `msg.sender` is the owner of the contract."
      },
      "owner()": {
        "return": "the address of the owner."
      },
      "pause()": {
        "details": "called by the owner to pause, triggers stopped state"
      },
      "paused()": {
        "return": "true if the contract is paused, false otherwise."
      },
      "renounceOwnership()": {
        "details": "Allows the current owner to relinquish control of the contract."
      },
      "setCooContractAddress(address)": {
        "details": "Updates the address of the COO contract",
        "params": {
          "newCooContractAddress": "The new address of the COO contract"
        }
      },
      "setTokenContractAddress(address)": {
        "details": "Updates the address of the token contract",
        "params": {
          "newTokenContractAddress": "The new address of the token contract"
        }
      },
      "transferOwnership(address)": {
        "details": "Allows the current owner to transfer control of the contract to a newOwner.",
        "params": {
          "newOwner": "The address to transfer ownership to."
        }
      },
      "unpause()": {
        "details": "called by the owner to unpause, returns to normal state"
      }
    },
    "title": "Marketplace contract"
  },
  "userdoc": {
    "methods": {
      "renounceOwnership()": {
        "notice": "Renouncing to ownership will leave the contract without an owner. It will not be possible to call the functions with the `onlyOwner` modifier anymore."
      }
    }
  }
}