{
  "contractName": "MetaCOO",
  "abi": [
    {
      "constant": true,
      "inputs": [
        {
          "name": "interfaceId",
          "type": "bytes4"
        }
      ],
      "name": "supportsInterface",
      "outputs": [
        {
          "name": "",
          "type": "bool"
        }
      ],
      "payable": false,
      "stateMutability": "view",
      "type": "function",
      "signature": "0x01ffc9a7"
    },
    {
      "constant": true,
      "inputs": [],
      "name": "name",
      "outputs": [
        {
          "name": "",
          "type": "string"
        }
      ],
      "payable": false,
      "stateMutability": "view",
      "type": "function",
      "signature": "0x06fdde03"
    },
    {
      "constant": true,
      "inputs": [
        {
          "name": "tokenId",
          "type": "uint256"
        }
      ],
      "name": "getApproved",
      "outputs": [
        {
          "name": "",
          "type": "address"
        }
      ],
      "payable": false,
      "stateMutability": "view",
      "type": "function",
      "signature": "0x081812fc"
    },
    {
      "constant": false,
      "inputs": [
        {
          "name": "to",
          "type": "address"
        },
        {
          "name": "tokenId",
          "type": "uint256"
        }
      ],
      "name": "approve",
      "outputs": [],
      "payable": false,
      "stateMutability": "nonpayable",
      "type": "function",
      "signature": "0x095ea7b3"
    },
    {
      "constant": true,
      "inputs": [],
      "name": "totalSupply",
      "outputs": [
        {
          "name": "",
          "type": "uint256"
        }
      ],
      "payable": false,
      "stateMutability": "view",
      "type": "function",
      "signature": "0x18160ddd"
    },
    {
      "constant": false,
      "inputs": [
        {
          "name": "from",
          "type": "address"
        },
        {
          "name": "to",
          "type": "address"
        },
        {
          "name": "tokenId",
          "type": "uint256"
        }
      ],
      "name": "transferFrom",
      "outputs": [],
      "payable": false,
      "stateMutability": "nonpayable",
      "type": "function",
      "signature": "0x23b872dd"
    },
    {
      "constant": true,
      "inputs": [
        {
          "name": "owner",
          "type": "address"
        },
        {
          "name": "index",
          "type": "uint256"
        }
      ],
      "name": "tokenOfOwnerByIndex",
      "outputs": [
        {
          "name": "",
          "type": "uint256"
        }
      ],
      "payable": false,
      "stateMutability": "view",
      "type": "function",
      "signature": "0x2f745c59"
    },
    {
      "constant": false,
      "inputs": [
        {
          "name": "from",
          "type": "address"
        },
        {
          "name": "to",
          "type": "address"
        },
        {
          "name": "tokenId",
          "type": "uint256"
        }
      ],
      "name": "safeTransferFrom",
      "outputs": [],
      "payable": false,
      "stateMutability": "nonpayable",
      "type": "function",
      "signature": "0x42842e0e"
    },
    {
      "constant": false,
      "inputs": [
        {
          "name": "certificateId",
          "type": "uint256"
        },
        {
          "name": "data",
          "type": "string"
        }
      ],
      "name": "updateCertificateData",
      "outputs": [],
      "payable": false,
      "stateMutability": "nonpayable",
      "type": "function",
      "signature": "0x4de40ec6"
    },
    {
      "constant": true,
      "inputs": [
        {
          "name": "index",
          "type": "uint256"
        }
      ],
      "name": "tokenByIndex",
      "outputs": [
        {
          "name": "",
          "type": "uint256"
        }
      ],
      "payable": false,
      "stateMutability": "view",
      "type": "function",
      "signature": "0x4f6ccce7"
    },
    {
      "constant": true,
      "inputs": [
        {
          "name": "certificateId",
          "type": "uint256"
        }
      ],
      "name": "getCertificate",
      "outputs": [
        {
          "components": [
            {
              "name": "assetId",
              "type": "uint256"
            },
            {
              "name": "name",
              "type": "string"
            },
            {
              "name": "label",
              "type": "string"
            },
            {
              "name": "price",
              "type": "uint256"
            },
            {
              "name": "timestamp",
              "type": "uint256"
            },
            {
              "name": "factomEntryHash",
              "type": "string"
            },
            {
              "name": "anotherEncryptionKey",
              "type": "string"
            },
            {
              "name": "data",
              "type": "string"
            }
          ],
          "name": "",
          "type": "tuple"
        }
      ],
      "payable": false,
      "stateMutability": "view",
      "type": "function",
      "signature": "0x51640fee"
    },
    {
      "constant": true,
      "inputs": [
        {
          "name": "tokenId",
          "type": "uint256"
        }
      ],
      "name": "ownerOf",
      "outputs": [
        {
          "name": "",
          "type": "address"
        }
      ],
      "payable": false,
      "stateMutability": "view",
      "type": "function",
      "signature": "0x6352211e"
    },
    {
      "constant": true,
      "inputs": [
        {
          "name": "owner",
          "type": "address"
        }
      ],
      "name": "balanceOf",
      "outputs": [
        {
          "name": "",
          "type": "uint256"
        }
      ],
      "payable": false,
      "stateMutability": "view",
      "type": "function",
      "signature": "0x70a08231"
    },
    {
      "constant": false,
      "inputs": [],
      "name": "renounceOwnership",
      "outputs": [],
      "payable": false,
      "stateMutability": "nonpayable",
      "type": "function",
      "signature": "0x715018a6"
    },
    {
      "constant": true,
      "inputs": [
        {
          "name": "",
          "type": "address"
        }
      ],
      "name": "nonces",
      "outputs": [
        {
          "name": "",
          "type": "uint256"
        }
      ],
      "payable": false,
      "stateMutability": "view",
      "type": "function",
      "signature": "0x7ecebe00"
    },
    {
      "constant": true,
      "inputs": [],
      "name": "owner",
      "outputs": [
        {
          "name": "",
          "type": "address"
        }
      ],
      "payable": false,
      "stateMutability": "view",
      "type": "function",
      "signature": "0x8da5cb5b"
    },
    {
      "constant": true,
      "inputs": [],
      "name": "isOwner",
      "outputs": [
        {
          "name": "",
          "type": "bool"
        }
      ],
      "payable": false,
      "stateMutability": "view",
      "type": "function",
      "signature": "0x8f32d59b"
    },
    {
      "constant": false,
      "inputs": [
        {
          "components": [
            {
              "name": "assetId",
              "type": "uint256"
            },
            {
              "name": "name",
              "type": "string"
            },
            {
              "name": "label",
              "type": "string"
            },
            {
              "name": "price",
              "type": "uint256"
            },
            {
              "name": "timestamp",
              "type": "uint256"
            },
            {
              "name": "factomEntryHash",
              "type": "string"
            },
            {
              "name": "anotherEncryptionKey",
              "type": "string"
            },
            {
              "name": "data",
              "type": "string"
            }
          ],
          "name": "newCertificate",
          "type": "tuple"
        },
        {
          "name": "uri",
          "type": "string"
        }
      ],
      "name": "createCertificate",
      "outputs": [],
      "payable": false,
      "stateMutability": "nonpayable",
      "type": "function",
      "signature": "0x8f502336"
    },
    {
      "constant": true,
      "inputs": [],
      "name": "symbol",
      "outputs": [
        {
          "name": "",
          "type": "string"
        }
      ],
      "payable": false,
      "stateMutability": "view",
      "type": "function",
      "signature": "0x95d89b41"
    },
    {
      "constant": true,
      "inputs": [],
      "name": "tokenAddress",
      "outputs": [
        {
          "name": "",
          "type": "address"
        }
      ],
      "payable": false,
      "stateMutability": "view",
      "type": "function",
      "signature": "0x9d76ea58"
    },
    {
      "constant": false,
      "inputs": [
        {
          "name": "to",
          "type": "address"
        },
        {
          "name": "approved",
          "type": "bool"
        }
      ],
      "name": "setApprovalForAll",
      "outputs": [],
      "payable": false,
      "stateMutability": "nonpayable",
      "type": "function",
      "signature": "0xa22cb465"
    },
    {
      "constant": true,
      "inputs": [],
      "name": "CONTRACT_UPDATE_PRICE",
      "outputs": [
        {
          "name": "",
          "type": "uint256"
        }
      ],
      "payable": false,
      "stateMutability": "view",
      "type": "function",
      "signature": "0xa51ede6f"
    },
    {
      "constant": false,
      "inputs": [
        {
          "name": "from",
          "type": "address"
        },
        {
          "name": "to",
          "type": "address"
        },
        {
          "name": "tokenId",
          "type": "uint256"
        },
        {
          "name": "_data",
          "type": "bytes"
        }
      ],
      "name": "safeTransferFrom",
      "outputs": [],
      "payable": false,
      "stateMutability": "nonpayable",
      "type": "function",
      "signature": "0xb88d4fde"
    },
    {
      "constant": false,
      "inputs": [
        {
          "name": "certificateId",
          "type": "uint256"
        },
        {
          "name": "name",
          "type": "string"
        },
        {
          "name": "label",
          "type": "string"
        },
        {
          "name": "price",
          "type": "uint256"
        },
        {
          "name": "factomEntryHash",
          "type": "string"
        },
        {
          "name": "anotherEncryptionKey",
          "type": "string"
        },
        {
          "name": "data",
          "type": "string"
        }
      ],
      "name": "updateCertificate",
      "outputs": [],
      "payable": false,
      "stateMutability": "nonpayable",
      "type": "function",
      "signature": "0xbbd768bf"
    },
    {
      "constant": true,
      "inputs": [
        {
          "name": "tokenId",
          "type": "uint256"
        }
      ],
      "name": "tokenURI",
      "outputs": [
        {
          "name": "",
          "type": "string"
        }
      ],
      "payable": false,
      "stateMutability": "view",
      "type": "function",
      "signature": "0xc87b56dd"
    },
    {
      "constant": true,
      "inputs": [],
      "name": "CONTRACT_CREATION_PRICE",
      "outputs": [
        {
          "name": "",
          "type": "uint256"
        }
      ],
      "payable": false,
      "stateMutability": "view",
      "type": "function",
      "signature": "0xd274dd69"
    },
    {
      "constant": true,
      "inputs": [
        {
          "name": "owner",
          "type": "address"
        },
        {
          "name": "operator",
          "type": "address"
        }
      ],
      "name": "isApprovedForAll",
      "outputs": [
        {
          "name": "",
          "type": "bool"
        }
      ],
      "payable": false,
      "stateMutability": "view",
      "type": "function",
      "signature": "0xe985e9c5"
    },
    {
      "constant": false,
      "inputs": [
        {
          "name": "newOwner",
          "type": "address"
        }
      ],
      "name": "transferOwnership",
      "outputs": [],
      "payable": false,
      "stateMutability": "nonpayable",
      "type": "function",
      "signature": "0xf2fde38b"
    },
    {
      "inputs": [
        {
          "name": "newTokenAddress",
          "type": "address"
        }
      ],
      "payable": false,
      "stateMutability": "nonpayable",
      "type": "constructor",
      "signature": "constructor"
    },
    {
      "anonymous": false,
      "inputs": [
        {
          "indexed": true,
          "name": "previousOwner",
          "type": "address"
        },
        {
          "indexed": true,
          "name": "newOwner",
          "type": "address"
        }
      ],
      "name": "OwnershipTransferred",
      "type": "event",
      "signature": "0x8be0079c531659141344cd1fd0a4f28419497f9722a3daafe3b4186f6b6457e0"
    },
    {
      "anonymous": false,
      "inputs": [
        {
          "indexed": true,
          "name": "from",
          "type": "address"
        },
        {
          "indexed": true,
          "name": "to",
          "type": "address"
        },
        {
          "indexed": false,
          "name": "tokenId",
          "type": "uint256"
        }
      ],
      "name": "Transfer",
      "type": "event",
      "signature": "0xddf252ad1be2c89b69c2b068fc378daa952ba7f163c4a11628f55a4df523b3ef"
    },
    {
      "anonymous": false,
      "inputs": [
        {
          "indexed": true,
          "name": "owner",
          "type": "address"
        },
        {
          "indexed": true,
          "name": "approved",
          "type": "address"
        },
        {
          "indexed": false,
          "name": "tokenId",
          "type": "uint256"
        }
      ],
      "name": "Approval",
      "type": "event",
      "signature": "0x8c5be1e5ebec7d5bd14f71427d1e84f3dd0314c0f7b2291e5b200ac8c7c3b925"
    },
    {
      "anonymous": false,
      "inputs": [
        {
          "indexed": true,
          "name": "owner",
          "type": "address"
        },
        {
          "indexed": true,
          "name": "operator",
          "type": "address"
        },
        {
          "indexed": false,
          "name": "approved",
          "type": "bool"
        }
      ],
      "name": "ApprovalForAll",
      "type": "event",
      "signature": "0x17307eab39ab6107e8899845ad3d59bd9653f200f220920489ca2b5937696c31"
    },
    {
      "constant": false,
      "inputs": [
        {
          "name": "signature",
          "type": "bytes"
        },
        {
          "components": [
            {
              "name": "assetId",
              "type": "uint256"
            },
            {
              "name": "name",
              "type": "string"
            },
            {
              "name": "label",
              "type": "string"
            },
            {
              "name": "price",
              "type": "uint256"
            },
            {
              "name": "timestamp",
              "type": "uint256"
            },
            {
              "name": "factomEntryHash",
              "type": "string"
            },
            {
              "name": "anotherEncryptionKey",
              "type": "string"
            },
            {
              "name": "data",
              "type": "string"
            }
          ],
          "name": "newCertificate",
          "type": "tuple"
        },
        {
          "name": "uri",
          "type": "string"
        },
        {
          "name": "nonce",
          "type": "uint256"
        }
      ],
      "name": "metaCreateCertificate",
      "outputs": [],
      "payable": false,
      "stateMutability": "nonpayable",
      "type": "function",
      "signature": "0xe1c4fc00"
    },
    {
      "constant": false,
      "inputs": [
        {
          "name": "signature",
          "type": "bytes"
        },
        {
          "name": "certificateId",
          "type": "uint256"
        },
        {
          "name": "name",
          "type": "string"
        },
        {
          "name": "label",
          "type": "string"
        },
        {
          "name": "price",
          "type": "uint256"
        },
        {
          "name": "factomEntryHash",
          "type": "string"
        },
        {
          "name": "anotherEncryptionKey",
          "type": "string"
        },
        {
          "name": "data",
          "type": "string"
        },
        {
          "name": "nonce",
          "type": "uint256"
        }
      ],
      "name": "metaUpdateCertificate",
      "outputs": [],
      "payable": false,
      "stateMutability": "nonpayable",
      "type": "function",
      "signature": "0xd91a9b91"
    },
    {
      "constant": false,
      "inputs": [
        {
          "name": "signature",
          "type": "bytes"
        },
        {
          "name": "certificateId",
          "type": "uint256"
        },
        {
          "name": "data",
          "type": "string"
        },
        {
          "name": "nonce",
          "type": "uint256"
        }
      ],
      "name": "metaUpdateCertificateData",
      "outputs": [],
      "payable": false,
      "stateMutability": "nonpayable",
      "type": "function",
      "signature": "0xa05a2662"
    },
    {
      "constant": false,
      "inputs": [
        {
          "name": "signature",
          "type": "bytes"
        },
        {
          "name": "to",
          "type": "address"
        },
        {
          "name": "tokenId",
          "type": "uint256"
        },
        {
          "name": "nonce",
          "type": "uint256"
        }
      ],
      "name": "metaTransfer",
      "outputs": [],
      "payable": false,
      "stateMutability": "nonpayable",
      "type": "function",
      "signature": "0x7aa7022e"
    },
    {
      "constant": false,
      "inputs": [
        {
          "name": "signature",
          "type": "bytes"
        },
        {
          "name": "spender",
          "type": "address"
        },
        {
          "name": "approved",
          "type": "bool"
        },
        {
          "name": "nonce",
          "type": "uint256"
        }
      ],
      "name": "metaSetApprovalForAll",
      "outputs": [],
      "payable": false,
      "stateMutability": "nonpayable",
      "type": "function",
      "signature": "0x464d1d36"
    },
    {
      "constant": true,
      "inputs": [
        {
          "name": "to",
          "type": "address"
        },
        {
          "name": "tokenId",
          "type": "uint256"
        },
        {
          "name": "nonce",
          "type": "uint256"
        }
      ],
      "name": "metaTransferHash",
      "outputs": [
        {
          "name": "",
          "type": "bytes32"
        }
      ],
      "payable": false,
      "stateMutability": "view",
      "type": "function",
      "signature": "0x2f7085e1"
    },
    {
      "constant": true,
      "inputs": [
        {
          "name": "spender",
          "type": "address"
        },
        {
          "name": "approved",
          "type": "bool"
        },
        {
          "name": "nonce",
          "type": "uint256"
        }
      ],
      "name": "metaSetApprovalForAllHash",
      "outputs": [
        {
          "name": "",
          "type": "bytes32"
        }
      ],
      "payable": false,
      "stateMutability": "view",
      "type": "function",
      "signature": "0x897c01f7"
    },
    {
      "constant": true,
      "inputs": [
        {
          "components": [
            {
              "name": "assetId",
              "type": "uint256"
            },
            {
              "name": "name",
              "type": "string"
            },
            {
              "name": "label",
              "type": "string"
            },
            {
              "name": "price",
              "type": "uint256"
            },
            {
              "name": "timestamp",
              "type": "uint256"
            },
            {
              "name": "factomEntryHash",
              "type": "string"
            },
            {
              "name": "anotherEncryptionKey",
              "type": "string"
            },
            {
              "name": "data",
              "type": "string"
            }
          ],
          "name": "newCertificate",
          "type": "tuple"
        },
        {
          "name": "uri",
          "type": "string"
        },
        {
          "name": "nonce",
          "type": "uint256"
        }
      ],
      "name": "metaCreateCertificateHash",
      "outputs": [
        {
          "name": "",
          "type": "bytes32"
        }
      ],
      "payable": false,
      "stateMutability": "view",
      "type": "function",
      "signature": "0x9dd602b9"
    },
    {
      "constant": true,
      "inputs": [
        {
          "name": "certificateId",
          "type": "uint256"
        },
        {
          "name": "name",
          "type": "string"
        },
        {
          "name": "label",
          "type": "string"
        },
        {
          "name": "price",
          "type": "uint256"
        },
        {
          "name": "factomEntryHash",
          "type": "string"
        },
        {
          "name": "anotherEncryptionKey",
          "type": "string"
        },
        {
          "name": "data",
          "type": "string"
        },
        {
          "name": "nonce",
          "type": "uint256"
        }
      ],
      "name": "metaUpdateCertificateHash",
      "outputs": [
        {
          "name": "",
          "type": "bytes32"
        }
      ],
      "payable": false,
      "stateMutability": "view",
      "type": "function",
      "signature": "0x8090d63b"
    },
    {
      "constant": true,
      "inputs": [
        {
          "name": "certificateId",
          "type": "uint256"
        },
        {
          "name": "data",
          "type": "string"
        },
        {
          "name": "nonce",
          "type": "uint256"
        }
      ],
      "name": "metaUpdateCertificateDataHash",
      "outputs": [
        {
          "name": "",
          "type": "bytes32"
        }
      ],
      "payable": false,
      "stateMutability": "view",
      "type": "function",
      "signature": "0x44b99b7d"
    },
    {
      "constant": true,
      "inputs": [
        {
          "name": "hash",
          "type": "bytes32"
        },
        {
          "name": "signature",
          "type": "bytes"
        }
      ],
      "name": "getSigner",
      "outputs": [
        {
          "name": "",
          "type": "address"
        }
      ],
      "payable": false,
      "stateMutability": "pure",
      "type": "function",
      "signature": "0xf7b2ec0d"
    }
  ],
  "bytecode": "0x60806040523480156200001157600080fd5b5060405160208062003ba8833981018060405262000033919081019062000339565b604080518082018252601881527f4365727469666963617465204f66204f776e65727368697000000000000000006020808301919091528251808401909352600383527f434f4f00000000000000000000000000000000000000000000000000000000009083015282918181620000d37f01ffc9a70000000000000000000000000000000000000000000000000000000064010000000062000212810204565b620001077f80ac58cd0000000000000000000000000000000000000000000000000000000064010000000062000212810204565b6200013b7f780e9d630000000000000000000000000000000000000000000000000000000064010000000062000212810204565b8151620001509060099060208501906200027f565b5080516200016690600a9060208401906200027f565b506200019b7f5b5e139f0000000000000000000000000000000000000000000000000000000064010000000062000212810204565b5050600c8054600160a060020a031916331790819055604051600160a060020a03919091169250600091507f8be0079c531659141344cd1fd0a4f28419497f9722a3daafe3b4186f6b6457e0908290a3600d8054600160a060020a031916600160a060020a03929092169190911790555062000381565b7fffffffff0000000000000000000000000000000000000000000000000000000080821614156200024257600080fd5b7fffffffff00000000000000000000000000000000000000000000000000000000166000908152602081905260409020805460ff19166001179055565b828054600181600116156101000203166002900490600052602060002090601f016020900481019282601f10620002c257805160ff1916838001178555620002f2565b82800160010185558215620002f2579182015b82811115620002f2578251825591602001919060010190620002d5565b506200030092915062000304565b5090565b6200032191905b808211156200030057600081556001016200030b565b90565b60006200033282516200036e565b9392505050565b6000602082840312156200034c57600080fd5b60006200035a848462000324565b949350505050565b600160a060020a031690565b60006200037b8262000362565b92915050565b61381780620003916000396000f3fe6080604052600436106101e25763ffffffff7c010000000000000000000000000000000000000000000000000000000060003504166301ffc9a781146101e757806306fdde031461021d578063081812fc1461023f578063095ea7b31461026c57806318160ddd1461028e57806323b872dd146102b05780632f7085e1146102d05780632f745c59146102f057806342842e0e1461031057806344b99b7d14610330578063464d1d36146103505780634de40ec6146103705780634f6ccce71461039057806351640fee146103b05780636352211e146103dd57806370a08231146103fd578063715018a61461041d5780637aa7022e146104325780637ecebe00146104525780638090d63b14610472578063897c01f7146104925780638da5cb5b146104b25780638f32d59b146104c75780638f502336146104dc57806395d89b41146104fc5780639d76ea58146105115780639dd602b914610526578063a05a266214610546578063a22cb46514610566578063a51ede6f14610586578063b88d4fde1461059b578063bbd768bf146105bb578063c87b56dd146105db578063d274dd6914610586578063d91a9b91146105fb578063e1c4fc001461061b578063e985e9c51461063b578063f2fde38b1461065b578063f7b2ec0d1461067b575b600080fd5b3480156101f357600080fd5b50610207610202366004612d1c565b61069b565b604051610214919061366b565b60405180910390f35b34801561022957600080fd5b506102326106cf565b6040516102149190613687565b34801561024b57600080fd5b5061025f61025a3660046130de565b610766565b60405161021491906135d6565b34801561027857600080fd5b5061028c610287366004612c54565b610798565b005b34801561029a57600080fd5b506102a361085f565b6040516102149190613679565b3480156102bc57600080fd5b5061028c6102cb366004612b2c565b610865565b3480156102dc57600080fd5b506102a36102eb366004612c84565b61088a565b3480156102fc57600080fd5b506102a361030b366004612c54565b61090d565b34801561031c57600080fd5b5061028c61032b366004612b2c565b61095b565b34801561033c57600080fd5b506102a361034b366004613356565b610977565b34801561035c57600080fd5b5061028c61036b366004612d58565b610a46565b34801561037c57600080fd5b5061028c61038b366004612cd4565b610b73565b34801561039c57600080fd5b506102a36103ab3660046130de565b610b82565b3480156103bc57600080fd5b506103d06103cb3660046130de565b610bb7565b60405161021491906136e8565b3480156103e957600080fd5b5061025f6103f83660046130de565b610f0b565b34801561040957600080fd5b506102a3610418366004612ad4565b610f2f565b34801561042957600080fd5b5061028c610f62565b34801561043e57600080fd5b5061028c61044d366004612dc4565b610fcc565b34801561045e57600080fd5b506102a361046d366004612ad4565b611080565b34801561047e57600080fd5b506102a361048d36600461322e565b611092565b34801561049e57600080fd5b506102a36104ad366004612c22565b611297565b3480156104be57600080fd5b5061025f61133b565b3480156104d357600080fd5b5061020761134a565b3480156104e857600080fd5b5061028c6104f7366004613047565b61135b565b34801561050857600080fd5b50610232611366565b34801561051d57600080fd5b5061025f6113c7565b34801561053257600080fd5b506102a361054136600461307d565b6113d6565b34801561055257600080fd5b5061028c610561366004612ffd565b611647565b34801561057257600080fd5b5061028c610581366004612bf2565b6116f3565b34801561059257600080fd5b506102a3611778565b3480156105a757600080fd5b5061028c6105b6366004612b79565b61177d565b3480156105c757600080fd5b5061028c6105d636600461311a565b6117a5565b3480156105e757600080fd5b506102326105f63660046130de565b6117be565b34801561060757600080fd5b5061028c610616366004612eaa565b611873565b34801561062757600080fd5b5061028c610636366004612e1f565b611936565b34801561064757600080fd5b50610207610656366004612af2565b6119e2565b34801561066757600080fd5b5061028c610676366004612ad4565b611a10565b34801561068757600080fd5b5061025f610696366004612cd4565b611a2f565b7bffffffffffffffffffffffffffffffffffffffffffffffffffffffff191660009081526020819052604090205460ff1690565b60098054604080516020601f600260001961010060018816150201909516949094049384018190048102820181019092528281526060939092909183018282801561075b5780601f106107305761010080835404028352916020019161075b565b820191906000526020600020905b81548152906001019060200180831161073e57829003601f168201915b505050505090505b90565b600061077182611b62565b151561077c57600080fd5b50600090815260026020526040902054600160a060020a031690565b60006107a382610f0b565b9050600160a060020a0383811690821614156107be57600080fd5b33600160a060020a03821614806107da57506107da81336119e2565b15156107e557600080fd5b60008281526002602052604090819020805473ffffffffffffffffffffffffffffffffffffffff1916600160a060020a038681169182179092559151908316907f8c5be1e5ebec7d5bd14f71427d1e84f3dd0314c0f7b2291e5b200ac8c7c3b92590610852908690613679565b60405180910390a3505050565b60075490565b61086f3382611b7f565b151561087a57600080fd5b610885838383611bde565b505050565b604080516c010000000000000000000000003081026020808401919091527f6d6574615472616e7366657200000000000000000000000000000000000000006034840152600160a060020a0387169091028284015260548201859052607480830185905283518084039091018152609490920190925280519101205b9392505050565b600061091883610f2f565b821061092357600080fd5b600160a060020a038316600090815260056020526040902080548390811061094757fe5b906000526020600020015490505b92915050565b610885838383602060405190810160405280600081525061177d565b6000308484846040516020018085600160a060020a0316600160a060020a03166c01000000000000000000000000028152601401807f6d6574615570646174654365727469666963617465446174610000000000000081525060190184815260200183805190602001908083835b60208310610a045780518252601f1990920191602091820191016109e5565b51815160209384036101000a60001901801990921691161790529201938452506040805180850381529382019052825192019190912098975050505050505050565b6000610a53848484611297565b90506000610a618287611a2f565b9050600160a060020a0381161515610a975760405160e560020a62461bcd028152600401610a8e906136d8565b60405180910390fd5b600160a060020a0381166000908152600f60205260409020548314610ad15760405160e560020a62461bcd028152600401610a8e906136c8565b600160a060020a038082166000818152600f60205260409020805460010190559086161415610aff57600080fd5b600160a060020a038181166000818152600460209081526040808320948a168084529490915290819020805460ff1916881515179055517f17307eab39ab6107e8899845ad3d59bd9653f200f220920489ca2b5937696c3190610b6390889061366b565b60405180910390a3505050505050565b610b7e338383611bfd565b5050565b6000610b8c61085f565b8210610b9757600080fd5b6007805483908110610ba557fe5b90600052602060002001549050919050565b610bbf6127fe565b600e805483908110610bcd57fe5b9060005260206000209060080201610100604051908101604052908160008201548152602001600182018054600181600116156101000203166002900480601f016020809104026020016040519081016040528092919081815260200182805460018160011615610100020316600290048015610c8b5780601f10610c6057610100808354040283529160200191610c8b565b820191906000526020600020905b815481529060010190602001808311610c6e57829003601f168201915b5050509183525050600282810180546040805160206001841615610100026000190190931694909404601f81018390048302850183019091528084529381019390830182828015610d1d5780601f10610cf257610100808354040283529160200191610d1d565b820191906000526020600020905b815481529060010190602001808311610d0057829003601f168201915b505050505081526020016003820154815260200160048201548152602001600582018054600181600116156101000203166002900480601f016020809104026020016040519081016040528092919081815260200182805460018160011615610100020316600290048015610dd35780601f10610da857610100808354040283529160200191610dd3565b820191906000526020600020905b815481529060010190602001808311610db657829003601f168201915b505050918352505060068201805460408051602060026001851615610100026000190190941693909304601f8101849004840282018401909252818152938201939291830182828015610e675780601f10610e3c57610100808354040283529160200191610e67565b820191906000526020600020905b815481529060010190602001808311610e4a57829003601f168201915b505050918352505060078201805460408051602060026001851615610100026000190190941693909304601f8101849004840282018401909252818152938201939291830182828015610efb5780601f10610ed057610100808354040283529160200191610efb565b820191906000526020600020905b815481529060010190602001808311610ede57829003601f168201915b5050505050815250509050919050565b600081815260016020526040812054600160a060020a031680151561095557600080fd5b6000600160a060020a0382161515610f4657600080fd5b50600160a060020a031660009081526003602052604090205490565b610f6a61134a565b1515610f7557600080fd5b600c54604051600091600160a060020a0316907f8be0079c531659141344cd1fd0a4f28419497f9722a3daafe3b4186f6b6457e0908390a3600c805473ffffffffffffffffffffffffffffffffffffffff19169055565b6000610fd984848461088a565b90506000610fe78287611a2f565b9050600160a060020a03811615156110145760405160e560020a62461bcd028152600401610a8e906136d8565b600160a060020a0381166000908152600f6020526040902054831461104e5760405160e560020a62461bcd028152600401610a8e906136c8565b600160a060020a0381166000908152600f6020526040902080546001019055611078818686611bde565b505050505050565b600f6020526000908152604090205481565b6000308989898989898989604051602001808a600160a060020a0316600160a060020a03166c01000000000000000000000000028152601401807f6d6574615570646174654365727469666963617465000000000000000000000081525060150189815260200188805190602001908083835b602083106111245780518252601f199092019160209182019101611105565b51815160209384036101000a60001901801990921691161790528a5191909301928a0191508083835b6020831061116c5780518252601f19909201916020918201910161114d565b51815160209384036101000a60001901801990921691161790529201888152875190830192880191508083835b602083106111b85780518252601f199092019160209182019101611199565b51815160209384036101000a600019018019909216911617905287519190930192870191508083835b602083106112005780518252601f1990920191602091820191016111e1565b51815160209384036101000a600019018019909216911617905286519190930192860191508083835b602083106112485780518252601f199092019160209182019101611229565b51815160001960209485036101000a0190811690199190911617905292019384525060408051808503815293820190528251920191909120995050505050505050505098975050505050505050565b60408051306c010000000000000000000000009081026020808401919091527f6d657461536574417070726f76616c466f72416c6c00000000000000000000006034840152600160a060020a03969096160260498201529215157f010000000000000000000000000000000000000000000000000000000000000002605d840152605e8084019290925280518084039092018252607e909201909152805191012090565b600c54600160a060020a031690565b600c54600160a060020a0316331490565b610b7e338383611c6d565b600a8054604080516020601f600260001961010060018816150201909516949094049384018190048102820181019092528281526060939092909183018282801561075b5780601f106107305761010080835404028352916020019161075b565b600d54600160a060020a031681565b600030846000015185602001518660400151876060015188608001518960a001518a60c001518b60e001518b8b604051602001808c600160a060020a0316600160a060020a03166c01000000000000000000000000028152601401807f6d657461437265617465436572746966696361746500000000000000000000008152506015018b81526020018a805190602001908083835b6020831061148a5780518252601f19909201916020918201910161146b565b51815160209384036101000a60001901801990921691161790528c5191909301928c0191508083835b602083106114d25780518252601f1990920191602091820191016114b3565b51815160209384036101000a600019018019909216911617905292018a81528083018a90528851604090910192890191508083835b602083106115265780518252601f199092019160209182019101611507565b51815160209384036101000a600019018019909216911617905288519190930192880191508083835b6020831061156e5780518252601f19909201916020918201910161154f565b51815160209384036101000a600019018019909216911617905287519190930192870191508083835b602083106115b65780518252601f199092019160209182019101611597565b51815160209384036101000a600019018019909216911617905286519190930192860191508083835b602083106115fe5780518252601f1990920191602091820191016115df565b51815160209384036101000a6000190180199092169116179052920193845250604080518085038152938201905282519201919091209f9e505050505050505050505050505050565b6000611654848484610977565b905060006116628287611a2f565b9050600160a060020a038116151561168f5760405160e560020a62461bcd028152600401610a8e906136d8565b600160a060020a0381166000908152600f602052604090205483146116c95760405160e560020a62461bcd028152600401610a8e906136c8565b600160a060020a0381166000908152600f6020526040902080546001019055611078818686611bfd565b600160a060020a03821633141561170957600080fd5b336000818152600460209081526040808320600160a060020a038716808552925291829020805460ff191685151517905590519091907f17307eab39ab6107e8899845ad3d59bd9653f200f220920489ca2b5937696c319061176c90859061366b565b60405180910390a35050565b600081565b611788848484610865565b61179484848484611f63565b151561179f57600080fd5b50505050565b6117b53388888888888888612071565b50505050505050565b60606117c982611b62565b15156117d457600080fd5b6000828152600b602090815260409182902080548351601f6002600019610100600186161502019093169290920491820184900484028101840190945280845290918301828280156118675780601f1061183c57610100808354040283529160200191611867565b820191906000526020600020905b81548152906001019060200180831161184a57829003601f168201915b50505050509050919050565b60006118858989898989898989611092565b90506000611893828c611a2f565b9050600160a060020a03811615156118c05760405160e560020a62461bcd028152600401610a8e906136d8565b600160a060020a0381166000908152600f602052604090205483146118fa5760405160e560020a62461bcd028152600401610a8e906136c8565b600160a060020a0381166000908152600f6020526040902080546001019055611929818b8b8b8b8b8b8b612071565b5050505050505050505050565b60006119438484846113d6565b905060006119518287611a2f565b9050600160a060020a038116151561197e5760405160e560020a62461bcd028152600401610a8e906136d8565b600160a060020a0381166000908152600f602052604090205483146119b85760405160e560020a62461bcd028152600401610a8e906136c8565b600160a060020a0381166000908152600f6020526040902080546001019055611078818686611c6d565b600160a060020a03918216600090815260046020908152604080832093909416825291909152205460ff1690565b611a1861134a565b1515611a2357600080fd5b611a2c81612364565b50565b60008060008084516041141515611a4c5760009350505050610955565b50505060208201516040830151606084015160001a601b60ff82161015611a7157601b015b8060ff16601b14158015611a8957508060ff16601c14155b15611a9a5760009350505050610955565b60018660405160200180807f19457468657265756d205369676e6564204d6573736167653a0a333200000000815250601c018281526020019150506040516020818303038152906040528051906020012082858560405160008152602001604052604051808581526020018460ff1660ff1681526020018381526020018281526020019450505050506020604051602081039080840390855afa158015611b45573d6000803e3d6000fd5b505050602060405103519350505050610955565b50505092915050565b600090815260016020526040902054600160a060020a0316151590565b600080611b8b83610f0b565b905080600160a060020a031684600160a060020a03161480611bc6575083600160a060020a0316611bbb84610766565b600160a060020a0316145b80611bd65750611bd681856119e2565b949350505050565b611be98383836123e2565b611bf38382612500565b61088582826125f0565b82600160a060020a0316611c1083610f0b565b600160a060020a031614611c395760405160e560020a62461bcd028152600401610a8e906136b8565b80600e83815481101515611c4957fe5b9060005260206000209060080201600701908051906020019061179f929190612844565b600d546040517fdd62ed3e000000000000000000000000000000000000000000000000000000008152600160a060020a0390911690600090829063dd62ed3e90611cbd9088903090600401613628565b60206040518083038186803b158015611cd557600080fd5b505afa158015611ce9573d6000803e3d6000fd5b505050506040513d601f19601f82011682018060405250611d0d91908101906130fc565b1015611d2e5760405160e560020a62461bcd028152600401610a8e906136a8565b6040517f23b872dd000000000000000000000000000000000000000000000000000000008152600160a060020a038216906323b872dd90611d789087903090600090600401613643565b602060405180830381600087803b158015611d9257600080fd5b505af1158015611da6573d6000803e3d6000fd5b505050506040513d601f19601f82011682018060405250611dca9190810190612cb6565b1515611deb5760405160e560020a62461bcd028152600401610a8e90613698565b6040805161010081018252845181526020808601518183019081528684015193830193909352606080870151908301526080808701519083015260a0808701519083015260c0808701519083015260e08087015190830152600e805460018181018084556000938452855160089093027fbb7b4a454dc3493923482f07822329ed19e8244eff582cc204f8554c3620c3fd8101938455965180519497929691959194611ebe937fbb7b4a454dc3493923482f07822329ed19e8244eff582cc204f8554c3620c3fe01929190910190612844565b5060408201518051611eda916002840191602090910190612844565b50606082015160038201556080820151600482015560a08201518051611f0a916005840191602090910190612844565b5060c08201518051611f26916006840191602090910190612844565b5060e08201518051611f42916007840191602090910190612844565b505050039050611f52858261262e565b611f5c818461264b565b5050505050565b6000611f7784600160a060020a031661267e565b1515611f8557506001611bd6565b6040517f150b7a02000000000000000000000000000000000000000000000000000000008152600090600160a060020a0386169063150b7a0290611fd39033908a90899089906004016135e4565b602060405180830381600087803b158015611fed57600080fd5b505af1158015612001573d6000803e3d6000fd5b505050506040513d601f19601f820116820180604052506120259190810190612d3a565b7bffffffffffffffffffffffffffffffffffffffffffffffffffffffff19167f150b7a020000000000000000000000000000000000000000000000000000000014915050949350505050565b600d546040517fdd62ed3e000000000000000000000000000000000000000000000000000000008152600160a060020a0390911690600090829063dd62ed3e906120c1908d903090600401613628565b60206040518083038186803b1580156120d957600080fd5b505afa1580156120ed573d6000803e3d6000fd5b505050506040513d601f19601f8201168201806040525061211191908101906130fc565b10156121325760405160e560020a62461bcd028152600401610a8e906136a8565b6040517f23b872dd000000000000000000000000000000000000000000000000000000008152600160a060020a038216906323b872dd9061217c908c903090600090600401613643565b602060405180830381600087803b15801561219657600080fd5b505af11580156121aa573d6000803e3d6000fd5b505050506040513d601f19601f820116820180604052506121ce9190810190612cb6565b15156121ef5760405160e560020a62461bcd028152600401610a8e90613698565b88600160a060020a031661220289610f0b565b600160a060020a03161461222b5760405160e560020a62461bcd028152600401610a8e906136b8565b86600e8981548110151561223b57fe5b9060005260206000209060080201600101908051906020019061225f929190612844565b5085600e8981548110151561227057fe5b90600052602060002090600802016002019080519060200190612294929190612844565b5084600e898154811015156122a557fe5b90600052602060002090600802016003018190555083600e898154811015156122ca57fe5b906000526020600020906008020160050190805190602001906122ee929190612844565b5082600e898154811015156122ff57fe5b90600052602060002090600802016006019080519060200190612323929190612844565b5081600e8981548110151561233457fe5b90600052602060002090600802016007019080519060200190612358929190612844565b50505050505050505050565b600160a060020a038116151561237957600080fd5b600c54604051600160a060020a038084169216907f8be0079c531659141344cd1fd0a4f28419497f9722a3daafe3b4186f6b6457e090600090a3600c805473ffffffffffffffffffffffffffffffffffffffff1916600160a060020a0392909216919091179055565b82600160a060020a03166123f582610f0b565b600160a060020a03161461240857600080fd5b600160a060020a038216151561241d57600080fd5b61242681612686565b600160a060020a03831660009081526003602052604090205461245090600163ffffffff6126ce16565b600160a060020a03808516600090815260036020526040808220939093559084168152205461248690600163ffffffff6126e316565b600160a060020a0380841660008181526003602090815260408083209590955585825260019052839020805473ffffffffffffffffffffffffffffffffffffffff1916821790559151908516907fddf252ad1be2c89b69c2b068fc378daa952ba7f163c4a11628f55a4df523b3ef90610852908590613679565b600160a060020a03821660009081526005602052604081205461252a90600163ffffffff6126ce16565b6000838152600660205260409020549091508082146125c757600160a060020a038416600090815260056020526040812080548490811061256757fe5b90600052602060002001549050806005600087600160a060020a0316600160a060020a03168152602001908152602001600020838154811015156125a757fe5b600091825260208083209091019290925591825260069052604090208190555b600160a060020a0384166000908152600560205260409020805490611f5c9060001983016128c2565b600160a060020a0390911660009081526005602081815260408084208054868652600684529185208290559282526001810183559183529091200155565b61263882826126f5565b61264282826125f0565b610b7e816127ba565b61265482611b62565b151561265f57600080fd5b6000828152600b60209081526040909120825161088592840190612844565b6000903b1190565b600081815260026020526040902054600160a060020a031615611a2c576000908152600260205260409020805473ffffffffffffffffffffffffffffffffffffffff19169055565b6000828211156126dd57600080fd5b50900390565b60008282018381101561090657600080fd5b600160a060020a038216151561270a57600080fd5b61271381611b62565b1561271d57600080fd5b6000818152600160208181526040808420805473ffffffffffffffffffffffffffffffffffffffff1916600160a060020a038816908117909155845260039091529091205461276b916126e3565b600160a060020a0383166000818152600360205260408082209390935591519091907fddf252ad1be2c89b69c2b068fc378daa952ba7f163c4a11628f55a4df523b3ef9061176c908590613679565b600780546000838152600860205260408120829055600182018355919091527fa66cc928b5edb82af9bd49922954155ab7b0942694bea4ce44661d9a8736c6880155565b6101006040519081016040528060008152602001606081526020016060815260200160008152602001600081526020016060815260200160608152602001606081525090565b828054600181600116156101000203166002900490600052602060002090601f016020900481019282601f1061288557805160ff19168380011785556128b2565b828001600101855582156128b2579182015b828111156128b2578251825591602001919060010190612897565b506128be9291506128e2565b5090565b815481835581811115610885576000838152602090206108859181019083015b61076391905b808211156128be57600081556001016128e8565b6000610906823561374c565b60006109068235613757565b60006109068251613757565b60006109068235610763565b60006109068235613768565b60006109068251613768565b6000601f8201831361295557600080fd5b813561296861296382613720565b6136f9565b9150808252602083016020830185838301111561298457600080fd5b611b5983828461379b565b600061010082840312156129a257600080fd5b6129ad6101006136f9565b905060006129bb8484612920565b825250602082013567ffffffffffffffff8111156129d857600080fd5b6129e484828501612944565b602083015250604082013567ffffffffffffffff811115612a0457600080fd5b612a1084828501612944565b6040830152506060612a2484828501612920565b6060830152506080612a3884828501612920565b60808301525060a082013567ffffffffffffffff811115612a5857600080fd5b612a6484828501612944565b60a08301525060c082013567ffffffffffffffff811115612a8457600080fd5b612a9084828501612944565b60c08301525060e082013567ffffffffffffffff811115612ab057600080fd5b612abc84828501612944565b60e08301525092915050565b60006109068251610763565b600060208284031215612ae657600080fd5b6000611bd684846128fc565b60008060408385031215612b0557600080fd5b6000612b1185856128fc565b9250506020612b22858286016128fc565b9150509250929050565b600080600060608486031215612b4157600080fd5b6000612b4d86866128fc565b9350506020612b5e868287016128fc565b9250506040612b6f86828701612920565b9150509250925092565b60008060008060808587031215612b8f57600080fd5b6000612b9b87876128fc565b9450506020612bac878288016128fc565b9350506040612bbd87828801612920565b925050606085013567ffffffffffffffff811115612bda57600080fd5b612be687828801612944565b91505092959194509250565b60008060408385031215612c0557600080fd5b6000612c1185856128fc565b9250506020612b2285828601612908565b600080600060608486031215612c3757600080fd5b6000612c4386866128fc565b9350506020612b5e86828701612908565b60008060408385031215612c6757600080fd5b6000612c7385856128fc565b9250506020612b2285828601612920565b600080600060608486031215612c9957600080fd5b6000612ca586866128fc565b9350506020612b5e86828701612920565b600060208284031215612cc857600080fd5b6000611bd68484612914565b60008060408385031215612ce757600080fd5b6000612cf38585612920565b925050602083013567ffffffffffffffff811115612d1057600080fd5b612b2285828601612944565b600060208284031215612d2e57600080fd5b6000611bd6848461292c565b600060208284031215612d4c57600080fd5b6000611bd68484612938565b60008060008060808587031215612d6e57600080fd5b843567ffffffffffffffff811115612d8557600080fd5b612d9187828801612944565b9450506020612da2878288016128fc565b9350506040612db387828801612908565b9250506060612be687828801612920565b60008060008060808587031215612dda57600080fd5b843567ffffffffffffffff811115612df157600080fd5b612dfd87828801612944565b9450506020612e0e878288016128fc565b9350506040612db387828801612920565b60008060008060808587031215612e3557600080fd5b843567ffffffffffffffff811115612e4c57600080fd5b612e5887828801612944565b945050602085013567ffffffffffffffff811115612e7557600080fd5b612e818782880161298f565b935050604085013567ffffffffffffffff811115612e9e57600080fd5b612db387828801612944565b60008060008060008060008060006101208a8c031215612ec957600080fd5b893567ffffffffffffffff811115612ee057600080fd5b612eec8c828d01612944565b9950506020612efd8c828d01612920565b98505060408a013567ffffffffffffffff811115612f1a57600080fd5b612f268c828d01612944565b97505060608a013567ffffffffffffffff811115612f4357600080fd5b612f4f8c828d01612944565b9650506080612f608c828d01612920565b95505060a08a013567ffffffffffffffff811115612f7d57600080fd5b612f898c828d01612944565b94505060c08a013567ffffffffffffffff811115612fa657600080fd5b612fb28c828d01612944565b93505060e08a013567ffffffffffffffff811115612fcf57600080fd5b612fdb8c828d01612944565b925050610100612fed8c828d01612920565b9150509295985092959850929598565b6000806000806080858703121561301357600080fd5b843567ffffffffffffffff81111561302a57600080fd5b61303687828801612944565b9450506020612e8187828801612920565b6000806040838503121561305a57600080fd5b823567ffffffffffffffff81111561307157600080fd5b612cf38582860161298f565b60008060006060848603121561309257600080fd5b833567ffffffffffffffff8111156130a957600080fd5b6130b58682870161298f565b935050602084013567ffffffffffffffff8111156130d257600080fd5b612b5e86828701612944565b6000602082840312156130f057600080fd5b6000611bd68484612920565b60006020828403121561310e57600080fd5b6000611bd68484612ac8565b600080600080600080600060e0888a03121561313557600080fd5b60006131418a8a612920565b975050602088013567ffffffffffffffff81111561315e57600080fd5b61316a8a828b01612944565b965050604088013567ffffffffffffffff81111561318757600080fd5b6131938a828b01612944565b95505060606131a48a828b01612920565b945050608088013567ffffffffffffffff8111156131c157600080fd5b6131cd8a828b01612944565b93505060a088013567ffffffffffffffff8111156131ea57600080fd5b6131f68a828b01612944565b92505060c088013567ffffffffffffffff81111561321357600080fd5b61321f8a828b01612944565b91505092959891949750929550565b600080600080600080600080610100898b03121561324b57600080fd5b60006132578b8b612920565b985050602089013567ffffffffffffffff81111561327457600080fd5b6132808b828c01612944565b975050604089013567ffffffffffffffff81111561329d57600080fd5b6132a98b828c01612944565b96505060606132ba8b828c01612920565b955050608089013567ffffffffffffffff8111156132d757600080fd5b6132e38b828c01612944565b94505060a089013567ffffffffffffffff81111561330057600080fd5b61330c8b828c01612944565b93505060c089013567ffffffffffffffff81111561332957600080fd5b6133358b828c01612944565b92505060e06133468b828c01612920565b9150509295985092959890939650565b60008060006060848603121561336b57600080fd5b60006130b58686612920565b6133808161378a565b82525050565b6133808161374c565b61338081613757565b61338081610763565b60006133ac82613748565b8084526133c08160208601602086016137a7565b6133c9816137d3565b9093016020019392505050565b600f81527f5472616e73666572206661696c65640000000000000000000000000000000000602082015260400190565b603281527f436f6e7472616374206973206e6f7420616c6c6f77656420746f206d616e697060208201527f756c6174652073656e6465722066756e64730000000000000000000000000000604082015260600190565b603081527f4365727469666963617465732063616e206f6e6c79206265207570646174656460208201527f206279207468656972206f776e65727300000000000000000000000000000000604082015260600190565b601081527f4e6f6e636520697320696e76616c696400000000000000000000000000000000602082015260400190565b601181527f43616e6e6f7420676574207369676e6572000000000000000000000000000000602082015260400190565b80516000906101008401906135278582613398565b506020830151848203602086015261353f82826133a1565b9150506040830151848203604086015261355982826133a1565b915050606083015161356e6060860182613398565b5060808301516135816080860182613398565b5060a083015184820360a086015261359982826133a1565b91505060c083015184820360c08601526135b382826133a1565b91505060e083015184820360e08601526135cd82826133a1565b95945050505050565b602081016109558284613386565b608081016135f28287613377565b6135ff6020830186613386565b61360c6040830185613398565b818103606083015261361e81846133a1565b9695505050505050565b604081016136368285613386565b6109066020830184613386565b606081016136518286613386565b61365e6020830185613386565b611bd66040830184613398565b60208101610955828461338f565b602081016109558284613398565b6020808252810161090681846133a1565b60208082528101610955816133d6565b6020808252810161095581613406565b602080825281016109558161345c565b60208082528101610955816134b2565b60208082528101610955816134e2565b602080825281016109068184613512565b60405181810167ffffffffffffffff8111828210171561371857600080fd5b604052919050565b600067ffffffffffffffff82111561373757600080fd5b506020601f91909101601f19160190565b5190565b60006109558261375c565b151590565b600160a060020a031690565b7bffffffffffffffffffffffffffffffffffffffffffffffffffffffff191690565b60006109558260006109558261374c565b82818337506000910152565b60005b838110156137c25781810151838201526020016137aa565b8381111561179f5750506000910152565b601f01601f19169056fea265627a7a72305820a7c3f09dbcea04937f23a4c1dc1aba26c471fe334e36281abb681cb21976d0c26c6578706572696d656e74616cf50037",
  "source": "/* solhint-disable no-empty-blocks */\n\npragma solidity 0.5.0;\npragma experimental ABIEncoderV2;\n\nimport \"./COO.sol\";\n\n\n/**\n * @title Certificate of Ownership Meta Transactions\n * @dev This contract handles our meta-transactions\n */\ncontract MetaCOO is COO {\n    constructor(\n        address newTokenAddress\n    ) public COO(\n        newTokenAddress\n    ) {\n    }\n\n    mapping (address => uint256) public nonces;\n\n    function metaCreateCertificate(\n        bytes memory signature,\n        Certificate memory newCertificate,\n        string memory uri,\n        uint256 nonce\n    ) public {\n        bytes32 hash = metaCreateCertificateHash(\n            newCertificate,\n            uri,\n            nonce\n        );\n\n        address signer = getSigner(hash, signature);\n\n        require(signer != address(0), \"Cannot get signer\");\n        require(nonce == nonces[signer], \"Nonce is invalid\");\n\n        nonces[signer] += 1;\n\n        _createCertificate(signer, newCertificate, uri);\n    }\n\n    function metaUpdateCertificate(\n        bytes memory signature,\n        uint256 certificateId,\n        string memory name,\n        string memory label,\n        uint256 price,\n        string memory factomEntryHash,\n        string memory anotherEncryptionKey,\n        string memory data,\n        uint256 nonce\n    ) public {\n        bytes32 hash = metaUpdateCertificateHash(\n            certificateId,\n            name,\n            label,\n            price,\n            factomEntryHash,\n            anotherEncryptionKey,\n            data,\n            nonce\n        );\n\n        address signer = getSigner(hash, signature);\n\n        require(signer != address(0), \"Cannot get signer\");\n        require(nonce == nonces[signer], \"Nonce is invalid\");\n\n        nonces[signer] += 1;\n\n        _updateCertificate(\n            signer,\n            certificateId,\n            name,\n            label,\n            price,\n            factomEntryHash,\n            anotherEncryptionKey,\n            data\n        );\n    }\n\n    function metaUpdateCertificateData(\n        bytes memory signature,\n        uint256 certificateId,\n        string memory data,\n        uint256 nonce\n    ) public {\n        bytes32 hash = metaUpdateCertificateDataHash(\n            certificateId,\n            data,\n            nonce\n        );\n\n        address signer = getSigner(hash, signature);\n\n        require(signer != address(0), \"Cannot get signer\");\n        require(nonce == nonces[signer], \"Nonce is invalid\");\n\n        nonces[signer] += 1;\n\n        _updateCertificateData(\n            signer,\n            certificateId,\n            data\n        );\n    }\n\n    function metaTransfer(bytes memory signature, address to, uint256 tokenId, uint256 nonce) public {\n        bytes32 hash = metaTransferHash(to, tokenId, nonce);\n        address signer = getSigner(hash, signature);\n\n        require(signer != address(0), \"Cannot get signer\");\n        require(nonce == nonces[signer], \"Nonce is invalid\");\n\n        nonces[signer] += 1;\n\n        _transferFrom(signer, to, tokenId);\n    }\n\n    function metaSetApprovalForAll(bytes memory signature, address spender, bool approved, uint256 nonce) public {\n        bytes32 hash = metaSetApprovalForAllHash(spender, approved, nonce);\n        address signer = getSigner(hash, signature);\n\n        require(signer != address(0), \"Cannot get signer\");\n        require(nonce == nonces[signer], \"Nonce is invalid\");\n\n        nonces[signer] += 1;\n\n        require(spender != signer);\n\n        _operatorApprovals[signer][spender] = approved;\n        emit ApprovalForAll(signer, spender, approved);\n    }\n\n    function metaTransferHash(address to, uint256 tokenId, uint256 nonce) public view returns (bytes32) {\n        return keccak256(abi.encodePacked(address(this), \"metaTransfer\", to, tokenId, nonce));\n    }\n\n    function metaSetApprovalForAllHash(address spender, bool approved, uint256 nonce) public view returns (bytes32) {\n        return keccak256(abi.encodePacked(address(this), \"metaSetApprovalForAll\", spender, approved, nonce));\n    }\n\n    function metaCreateCertificateHash(\n        Certificate memory newCertificate,\n        string memory uri,\n        uint256 nonce\n    ) public view returns (bytes32) {\n        return keccak256(abi.encodePacked(\n            address(this),\n            \"metaCreateCertificate\",\n            newCertificate.assetId,\n            newCertificate.name,\n            newCertificate.label,\n            newCertificate.price,\n            newCertificate.timestamp,\n            newCertificate.factomEntryHash,\n            newCertificate.anotherEncryptionKey,\n            newCertificate.data,\n            uri,\n            nonce\n        ));\n    }\n\n    function metaUpdateCertificateHash(\n        uint256 certificateId,\n        string memory name,\n        string memory label,\n        uint256 price,\n        string memory factomEntryHash,\n        string memory anotherEncryptionKey,\n        string memory data,\n        uint256 nonce\n    ) public view returns (bytes32) {\n        return keccak256(abi.encodePacked(\n            address(this),\n            \"metaUpdateCertificate\",\n            certificateId,\n            name,\n            label,\n            price,\n            factomEntryHash,\n            anotherEncryptionKey,\n            data,\n            nonce\n        ));\n    }\n\n    function metaUpdateCertificateDataHash(\n        uint256 certificateId,\n        string memory data,\n        uint256 nonce\n    ) public view returns (bytes32) {\n        return keccak256(abi.encodePacked(\n            address(this),\n            \"metaUpdateCertificateData\",\n            certificateId,\n            data,\n            nonce\n        ));\n    }\n\n    /**\n     * @dev Gets the signer of an hash using the signature\n     * @param hash The hash to check\n     * @param signature The signature to use\n     * @return The address of the signer or 0x0 address is something went wrong\n     */\n    function getSigner(bytes32 hash, bytes memory signature) public pure returns (address) {\n        bytes32 r;\n        bytes32 s;\n        uint8 v;\n\n        if (signature.length != 65) {\n            return address(0);\n        }\n\n        /* solhint-disable-next-line no-inline-assembly */\n        assembly {\n            r := mload(add(signature, 32))\n            s := mload(add(signature, 64))\n            v := byte(0, mload(add(signature, 96)))\n        }\n\n        if (v < 27) {\n            v += 27;\n        }\n\n        if (v != 27 && v != 28) {\n            return address(0);\n        } else {\n            return ecrecover(keccak256(\n                abi.encodePacked(\"\\x19Ethereum Signed Message:\\n32\", hash)\n            ), v, r, s);\n        }\n    }\n}\n",
  "sourcePath": "/Users/clement/Documents/Dev/herc/COO/COO/contracts/MetaCOO.sol",
  "compiler": {
    "name": "solc",
    "version": "0.5.0+commit.1d4f565a.Emscripten.clang"
  },
  "schemaVersion": "3.0.1",
  "updatedAt": "2019-02-28T09:49:42.860Z",
  "devdoc": {
    "details": "This contract handles our meta-transactions",
    "methods": {
      "approve(address,uint256)": {
        "details": "Approves another address to transfer the given token ID The zero address indicates there is no approved address. There can only be one approved address per token at a given time. Can only be called by the token owner or an approved operator.",
        "params": {
          "to": "address to be approved for the given token ID",
          "tokenId": "uint256 ID of the token to be approved"
        }
      },
      "balanceOf(address)": {
        "details": "Gets the balance of the specified address",
        "params": {
          "owner": "address to query the balance of"
        },
        "return": "uint256 representing the amount owned by the passed address"
      },
      "getApproved(uint256)": {
        "details": "Gets the approved address for a token ID, or zero if no address set Reverts if the token ID does not exist.",
        "params": {
          "tokenId": "uint256 ID of the token to query the approval of"
        },
        "return": "address currently approved for the given token ID"
      },
      "getCertificate(uint256)": {
        "details": "Gets a certificate and the related information, can only be called by the certificate owner",
        "params": {
          "certificateId": "The id of a certificate"
        },
        "return": "The required certificate"
      },
      "getSigner(bytes32,bytes)": {
        "details": "Gets the signer of an hash using the signature",
        "params": {
          "hash": "The hash to check",
          "signature": "The signature to use"
        },
        "return": "The address of the signer or 0x0 address is something went wrong"
      },
      "isApprovedForAll(address,address)": {
        "details": "Tells whether an operator is approved by a given owner",
        "params": {
          "operator": "operator address which you want to query the approval of",
          "owner": "owner address which you want to query the approval of"
        },
        "return": "bool whether the given operator is approved by the given owner"
      },
      "isOwner()": {
        "return": "true if `msg.sender` is the owner of the contract."
      },
      "name()": {
        "details": "Gets the token name",
        "return": "string representing the token name"
      },
      "owner()": {
        "return": "the address of the owner."
      },
      "ownerOf(uint256)": {
        "details": "Gets the owner of the specified token ID",
        "params": {
          "tokenId": "uint256 ID of the token to query the owner of"
        },
        "return": "owner address currently marked as the owner of the given token ID"
      },
      "renounceOwnership()": {
        "details": "Allows the current owner to relinquish control of the contract."
      },
      "safeTransferFrom(address,address,uint256)": {
        "details": "Safely transfers the ownership of a given token ID to another address If the target address is a contract, it must implement `onERC721Received`, which is called upon a safe transfer, and return the magic value `bytes4(keccak256(\"onERC721Received(address,address,uint256,bytes)\"))`; otherwise, the transfer is reverted.     * Requires the msg sender to be the owner, approved, or operator",
        "params": {
          "from": "current owner of the token",
          "to": "address to receive the ownership of the given token ID",
          "tokenId": "uint256 ID of the token to be transferred"
        }
      },
      "safeTransferFrom(address,address,uint256,bytes)": {
        "details": "Safely transfers the ownership of a given token ID to another address If the target address is a contract, it must implement `onERC721Received`, which is called upon a safe transfer, and return the magic value `bytes4(keccak256(\"onERC721Received(address,address,uint256,bytes)\"))`; otherwise, the transfer is reverted. Requires the msg sender to be the owner, approved, or operator",
        "params": {
          "_data": "bytes data to send along with a safe transfer check",
          "from": "current owner of the token",
          "to": "address to receive the ownership of the given token ID",
          "tokenId": "uint256 ID of the token to be transferred"
        }
      },
      "setApprovalForAll(address,bool)": {
        "details": "Sets or unsets the approval of a given operator An operator is allowed to transfer all tokens of the sender on their behalf",
        "params": {
          "approved": "representing the status of the approval to be set",
          "to": "operator address to set the approval"
        }
      },
      "supportsInterface(bytes4)": {
        "details": "implement supportsInterface(bytes4) using a lookup table"
      },
      "symbol()": {
        "details": "Gets the token symbol",
        "return": "string representing the token symbol"
      },
      "tokenByIndex(uint256)": {
        "details": "Gets the token ID at a given index of all the tokens in this contract Reverts if the index is greater or equal to the total number of tokens",
        "params": {
          "index": "uint256 representing the index to be accessed of the tokens list"
        },
        "return": "uint256 token ID at the given index of the tokens list"
      },
      "tokenOfOwnerByIndex(address,uint256)": {
        "details": "Gets the token ID at a given index of the tokens list of the requested owner",
        "params": {
          "index": "uint256 representing the index to be accessed of the requested tokens list",
          "owner": "address owning the tokens list to be accessed"
        },
        "return": "uint256 token ID at the given index of the tokens list owned by the requested address"
      },
      "tokenURI(uint256)": {
        "details": "Returns an URI for a given token ID Throws if the token ID does not exist. May return an empty string.",
        "params": {
          "tokenId": "uint256 ID of the token to query"
        }
      },
      "totalSupply()": {
        "details": "Gets the total amount of tokens stored by the contract",
        "return": "uint256 representing the total amount of tokens"
      },
      "transferFrom(address,address,uint256)": {
        "details": "Transfers the ownership of a given token ID to another address Usage of this method is discouraged, use `safeTransferFrom` whenever possible Requires the msg sender to be the owner, approved, or operator",
        "params": {
          "from": "current owner of the token",
          "to": "address to receive the ownership of the given token ID",
          "tokenId": "uint256 ID of the token to be transferred"
        }
      },
      "transferOwnership(address)": {
        "details": "Allows the current owner to transfer control of the contract to a newOwner.",
        "params": {
          "newOwner": "The address to transfer ownership to."
        }
      }
    },
    "title": "Certificate of Ownership Meta Transactions"
  },
  "userdoc": {
    "methods": {
      "renounceOwnership()": {
        "notice": "Renouncing to ownership will leave the contract without an owner. It will not be possible to call the functions with the `onlyOwner` modifier anymore."
      }
    }
  }
}