{
  "contractName": "MetaCOO",
  "abi": [
    {
      "constant": true,
      "inputs": [
        {
          "name": "interfaceId",
          "type": "bytes4"
        }
      ],
      "name": "supportsInterface",
      "outputs": [
        {
          "name": "",
          "type": "bool"
        }
      ],
      "payable": false,
      "stateMutability": "view",
      "type": "function",
      "signature": "0x01ffc9a7"
    },
    {
      "constant": true,
      "inputs": [],
      "name": "name",
      "outputs": [
        {
          "name": "",
          "type": "string"
        }
      ],
      "payable": false,
      "stateMutability": "view",
      "type": "function",
      "signature": "0x06fdde03"
    },
    {
      "constant": true,
      "inputs": [
        {
          "name": "tokenId",
          "type": "uint256"
        }
      ],
      "name": "getApproved",
      "outputs": [
        {
          "name": "",
          "type": "address"
        }
      ],
      "payable": false,
      "stateMutability": "view",
      "type": "function",
      "signature": "0x081812fc"
    },
    {
      "constant": false,
      "inputs": [
        {
          "name": "to",
          "type": "address"
        },
        {
          "name": "tokenId",
          "type": "uint256"
        }
      ],
      "name": "approve",
      "outputs": [],
      "payable": false,
      "stateMutability": "nonpayable",
      "type": "function",
      "signature": "0x095ea7b3"
    },
    {
      "constant": false,
      "inputs": [
        {
          "components": [
            {
              "name": "assetId",
              "type": "uint256"
            },
            {
              "name": "name",
              "type": "string"
            },
            {
              "name": "label",
              "type": "string"
            },
            {
              "name": "price",
              "type": "uint256"
            },
            {
              "name": "timestamp",
              "type": "uint256"
            },
            {
              "name": "factomEntryHash",
              "type": "string"
            },
            {
              "name": "anotherEncryptionKey",
              "type": "string"
            },
            {
              "name": "data",
              "type": "string"
            }
          ],
          "name": "newCertificate",
          "type": "tuple"
        }
      ],
      "name": "createCertificate",
      "outputs": [],
      "payable": false,
      "stateMutability": "nonpayable",
      "type": "function",
      "signature": "0x0f1950f0"
    },
    {
      "constant": true,
      "inputs": [],
      "name": "totalSupply",
      "outputs": [
        {
          "name": "",
          "type": "uint256"
        }
      ],
      "payable": false,
      "stateMutability": "view",
      "type": "function",
      "signature": "0x18160ddd"
    },
    {
      "constant": false,
      "inputs": [
        {
          "name": "from",
          "type": "address"
        },
        {
          "name": "to",
          "type": "address"
        },
        {
          "name": "tokenId",
          "type": "uint256"
        }
      ],
      "name": "transferFrom",
      "outputs": [],
      "payable": false,
      "stateMutability": "nonpayable",
      "type": "function",
      "signature": "0x23b872dd"
    },
    {
      "constant": true,
      "inputs": [
        {
          "name": "owner",
          "type": "address"
        },
        {
          "name": "index",
          "type": "uint256"
        }
      ],
      "name": "tokenOfOwnerByIndex",
      "outputs": [
        {
          "name": "",
          "type": "uint256"
        }
      ],
      "payable": false,
      "stateMutability": "view",
      "type": "function",
      "signature": "0x2f745c59"
    },
    {
      "constant": false,
      "inputs": [
        {
          "name": "from",
          "type": "address"
        },
        {
          "name": "to",
          "type": "address"
        },
        {
          "name": "tokenId",
          "type": "uint256"
        }
      ],
      "name": "safeTransferFrom",
      "outputs": [],
      "payable": false,
      "stateMutability": "nonpayable",
      "type": "function",
      "signature": "0x42842e0e"
    },
    {
      "constant": true,
      "inputs": [
        {
          "name": "index",
          "type": "uint256"
        }
      ],
      "name": "tokenByIndex",
      "outputs": [
        {
          "name": "",
          "type": "uint256"
        }
      ],
      "payable": false,
      "stateMutability": "view",
      "type": "function",
      "signature": "0x4f6ccce7"
    },
    {
      "constant": true,
      "inputs": [
        {
          "name": "certificateId",
          "type": "uint256"
        }
      ],
      "name": "getCertificate",
      "outputs": [
        {
          "components": [
            {
              "name": "assetId",
              "type": "uint256"
            },
            {
              "name": "name",
              "type": "string"
            },
            {
              "name": "label",
              "type": "string"
            },
            {
              "name": "price",
              "type": "uint256"
            },
            {
              "name": "timestamp",
              "type": "uint256"
            },
            {
              "name": "factomEntryHash",
              "type": "string"
            },
            {
              "name": "anotherEncryptionKey",
              "type": "string"
            },
            {
              "name": "data",
              "type": "string"
            }
          ],
          "name": "",
          "type": "tuple"
        }
      ],
      "payable": false,
      "stateMutability": "view",
      "type": "function",
      "signature": "0x51640fee"
    },
    {
      "constant": true,
      "inputs": [
        {
          "name": "tokenId",
          "type": "uint256"
        }
      ],
      "name": "ownerOf",
      "outputs": [
        {
          "name": "",
          "type": "address"
        }
      ],
      "payable": false,
      "stateMutability": "view",
      "type": "function",
      "signature": "0x6352211e"
    },
    {
      "constant": true,
      "inputs": [
        {
          "name": "owner",
          "type": "address"
        }
      ],
      "name": "balanceOf",
      "outputs": [
        {
          "name": "",
          "type": "uint256"
        }
      ],
      "payable": false,
      "stateMutability": "view",
      "type": "function",
      "signature": "0x70a08231"
    },
    {
      "constant": false,
      "inputs": [],
      "name": "renounceOwnership",
      "outputs": [],
      "payable": false,
      "stateMutability": "nonpayable",
      "type": "function",
      "signature": "0x715018a6"
    },
    {
      "constant": true,
      "inputs": [
        {
          "name": "",
          "type": "address"
        }
      ],
      "name": "nonces",
      "outputs": [
        {
          "name": "",
          "type": "uint256"
        }
      ],
      "payable": false,
      "stateMutability": "view",
      "type": "function",
      "signature": "0x7ecebe00"
    },
    {
      "constant": true,
      "inputs": [],
      "name": "owner",
      "outputs": [
        {
          "name": "",
          "type": "address"
        }
      ],
      "payable": false,
      "stateMutability": "view",
      "type": "function",
      "signature": "0x8da5cb5b"
    },
    {
      "constant": true,
      "inputs": [],
      "name": "isOwner",
      "outputs": [
        {
          "name": "",
          "type": "bool"
        }
      ],
      "payable": false,
      "stateMutability": "view",
      "type": "function",
      "signature": "0x8f32d59b"
    },
    {
      "constant": true,
      "inputs": [],
      "name": "symbol",
      "outputs": [
        {
          "name": "",
          "type": "string"
        }
      ],
      "payable": false,
      "stateMutability": "view",
      "type": "function",
      "signature": "0x95d89b41"
    },
    {
      "constant": true,
      "inputs": [],
      "name": "tokenAddress",
      "outputs": [
        {
          "name": "",
          "type": "address"
        }
      ],
      "payable": false,
      "stateMutability": "view",
      "type": "function",
      "signature": "0x9d76ea58"
    },
    {
      "constant": false,
      "inputs": [
        {
          "name": "to",
          "type": "address"
        },
        {
          "name": "approved",
          "type": "bool"
        }
      ],
      "name": "setApprovalForAll",
      "outputs": [],
      "payable": false,
      "stateMutability": "nonpayable",
      "type": "function",
      "signature": "0xa22cb465"
    },
    {
      "constant": true,
      "inputs": [],
      "name": "CONTRACT_UPDATE_PRICE",
      "outputs": [
        {
          "name": "",
          "type": "uint256"
        }
      ],
      "payable": false,
      "stateMutability": "view",
      "type": "function",
      "signature": "0xa51ede6f"
    },
    {
      "constant": false,
      "inputs": [
        {
          "name": "from",
          "type": "address"
        },
        {
          "name": "to",
          "type": "address"
        },
        {
          "name": "tokenId",
          "type": "uint256"
        },
        {
          "name": "_data",
          "type": "bytes"
        }
      ],
      "name": "safeTransferFrom",
      "outputs": [],
      "payable": false,
      "stateMutability": "nonpayable",
      "type": "function",
      "signature": "0xb88d4fde"
    },
    {
      "constant": false,
      "inputs": [
        {
          "name": "certificateId",
          "type": "uint256"
        },
        {
          "name": "name",
          "type": "string"
        },
        {
          "name": "label",
          "type": "string"
        },
        {
          "name": "price",
          "type": "uint256"
        },
        {
          "name": "factomEntryHash",
          "type": "string"
        },
        {
          "name": "anotherEncryptionKey",
          "type": "string"
        },
        {
          "name": "data",
          "type": "string"
        }
      ],
      "name": "updateCertificate",
      "outputs": [],
      "payable": false,
      "stateMutability": "nonpayable",
      "type": "function",
      "signature": "0xbbd768bf"
    },
    {
      "constant": true,
      "inputs": [
        {
          "name": "tokenId",
          "type": "uint256"
        }
      ],
      "name": "tokenURI",
      "outputs": [
        {
          "name": "",
          "type": "string"
        }
      ],
      "payable": false,
      "stateMutability": "view",
      "type": "function",
      "signature": "0xc87b56dd"
    },
    {
      "constant": true,
      "inputs": [],
      "name": "CONTRACT_CREATION_PRICE",
      "outputs": [
        {
          "name": "",
          "type": "uint256"
        }
      ],
      "payable": false,
      "stateMutability": "view",
      "type": "function",
      "signature": "0xd274dd69"
    },
    {
      "constant": true,
      "inputs": [
        {
          "name": "owner",
          "type": "address"
        },
        {
          "name": "operator",
          "type": "address"
        }
      ],
      "name": "isApprovedForAll",
      "outputs": [
        {
          "name": "",
          "type": "bool"
        }
      ],
      "payable": false,
      "stateMutability": "view",
      "type": "function",
      "signature": "0xe985e9c5"
    },
    {
      "constant": false,
      "inputs": [
        {
          "name": "newOwner",
          "type": "address"
        }
      ],
      "name": "transferOwnership",
      "outputs": [],
      "payable": false,
      "stateMutability": "nonpayable",
      "type": "function",
      "signature": "0xf2fde38b"
    },
    {
      "inputs": [
        {
          "name": "newTokenAddress",
          "type": "address"
        }
      ],
      "payable": false,
      "stateMutability": "nonpayable",
      "type": "constructor",
      "signature": "constructor"
    },
    {
      "anonymous": false,
      "inputs": [
        {
          "indexed": true,
          "name": "previousOwner",
          "type": "address"
        },
        {
          "indexed": true,
          "name": "newOwner",
          "type": "address"
        }
      ],
      "name": "OwnershipTransferred",
      "type": "event",
      "signature": "0x8be0079c531659141344cd1fd0a4f28419497f9722a3daafe3b4186f6b6457e0"
    },
    {
      "anonymous": false,
      "inputs": [
        {
          "indexed": true,
          "name": "from",
          "type": "address"
        },
        {
          "indexed": true,
          "name": "to",
          "type": "address"
        },
        {
          "indexed": false,
          "name": "tokenId",
          "type": "uint256"
        }
      ],
      "name": "Transfer",
      "type": "event",
      "signature": "0xddf252ad1be2c89b69c2b068fc378daa952ba7f163c4a11628f55a4df523b3ef"
    },
    {
      "anonymous": false,
      "inputs": [
        {
          "indexed": true,
          "name": "owner",
          "type": "address"
        },
        {
          "indexed": true,
          "name": "approved",
          "type": "address"
        },
        {
          "indexed": false,
          "name": "tokenId",
          "type": "uint256"
        }
      ],
      "name": "Approval",
      "type": "event",
      "signature": "0x8c5be1e5ebec7d5bd14f71427d1e84f3dd0314c0f7b2291e5b200ac8c7c3b925"
    },
    {
      "anonymous": false,
      "inputs": [
        {
          "indexed": true,
          "name": "owner",
          "type": "address"
        },
        {
          "indexed": true,
          "name": "operator",
          "type": "address"
        },
        {
          "indexed": false,
          "name": "approved",
          "type": "bool"
        }
      ],
      "name": "ApprovalForAll",
      "type": "event",
      "signature": "0x17307eab39ab6107e8899845ad3d59bd9653f200f220920489ca2b5937696c31"
    },
    {
      "constant": false,
      "inputs": [
        {
          "name": "signature",
          "type": "bytes"
        },
        {
          "components": [
            {
              "name": "assetId",
              "type": "uint256"
            },
            {
              "name": "name",
              "type": "string"
            },
            {
              "name": "label",
              "type": "string"
            },
            {
              "name": "price",
              "type": "uint256"
            },
            {
              "name": "timestamp",
              "type": "uint256"
            },
            {
              "name": "factomEntryHash",
              "type": "string"
            },
            {
              "name": "anotherEncryptionKey",
              "type": "string"
            },
            {
              "name": "data",
              "type": "string"
            }
          ],
          "name": "newCertificate",
          "type": "tuple"
        },
        {
          "name": "nonce",
          "type": "uint256"
        }
      ],
      "name": "metaCreateCertificate",
      "outputs": [],
      "payable": false,
      "stateMutability": "nonpayable",
      "type": "function",
      "signature": "0x8f52b374"
    },
    {
      "constant": false,
      "inputs": [
        {
          "name": "signature",
          "type": "bytes"
        },
        {
          "name": "certificateId",
          "type": "uint256"
        },
        {
          "name": "name",
          "type": "string"
        },
        {
          "name": "label",
          "type": "string"
        },
        {
          "name": "price",
          "type": "uint256"
        },
        {
          "name": "factomEntryHash",
          "type": "string"
        },
        {
          "name": "anotherEncryptionKey",
          "type": "string"
        },
        {
          "name": "data",
          "type": "string"
        },
        {
          "name": "nonce",
          "type": "uint256"
        }
      ],
      "name": "metaUpdateCertificate",
      "outputs": [],
      "payable": false,
      "stateMutability": "nonpayable",
      "type": "function",
      "signature": "0xd91a9b91"
    },
    {
      "constant": false,
      "inputs": [
        {
          "name": "signature",
          "type": "bytes"
        },
        {
          "name": "to",
          "type": "address"
        },
        {
          "name": "tokenId",
          "type": "uint256"
        },
        {
          "name": "nonce",
          "type": "uint256"
        }
      ],
      "name": "metaTransfer",
      "outputs": [],
      "payable": false,
      "stateMutability": "nonpayable",
      "type": "function",
      "signature": "0x7aa7022e"
    },
    {
      "constant": false,
      "inputs": [
        {
          "name": "signature",
          "type": "bytes"
        },
        {
          "name": "spender",
          "type": "address"
        },
        {
          "name": "approved",
          "type": "bool"
        },
        {
          "name": "nonce",
          "type": "uint256"
        }
      ],
      "name": "metaSetApprovalForAll",
      "outputs": [],
      "payable": false,
      "stateMutability": "nonpayable",
      "type": "function",
      "signature": "0x464d1d36"
    },
    {
      "constant": true,
      "inputs": [
        {
          "name": "to",
          "type": "address"
        },
        {
          "name": "tokenId",
          "type": "uint256"
        },
        {
          "name": "nonce",
          "type": "uint256"
        }
      ],
      "name": "metaTransferHash",
      "outputs": [
        {
          "name": "",
          "type": "bytes32"
        }
      ],
      "payable": false,
      "stateMutability": "view",
      "type": "function",
      "signature": "0x2f7085e1"
    },
    {
      "constant": true,
      "inputs": [
        {
          "name": "spender",
          "type": "address"
        },
        {
          "name": "approved",
          "type": "bool"
        },
        {
          "name": "nonce",
          "type": "uint256"
        }
      ],
      "name": "metaSetApprovalForAllHash",
      "outputs": [
        {
          "name": "",
          "type": "bytes32"
        }
      ],
      "payable": false,
      "stateMutability": "view",
      "type": "function",
      "signature": "0x897c01f7"
    },
    {
      "constant": true,
      "inputs": [
        {
          "components": [
            {
              "name": "assetId",
              "type": "uint256"
            },
            {
              "name": "name",
              "type": "string"
            },
            {
              "name": "label",
              "type": "string"
            },
            {
              "name": "price",
              "type": "uint256"
            },
            {
              "name": "timestamp",
              "type": "uint256"
            },
            {
              "name": "factomEntryHash",
              "type": "string"
            },
            {
              "name": "anotherEncryptionKey",
              "type": "string"
            },
            {
              "name": "data",
              "type": "string"
            }
          ],
          "name": "newCertificate",
          "type": "tuple"
        },
        {
          "name": "nonce",
          "type": "uint256"
        }
      ],
      "name": "metaCreateCertificateHash",
      "outputs": [
        {
          "name": "",
          "type": "bytes32"
        }
      ],
      "payable": false,
      "stateMutability": "view",
      "type": "function",
      "signature": "0x306bebaa"
    },
    {
      "constant": true,
      "inputs": [
        {
          "name": "certificateId",
          "type": "uint256"
        },
        {
          "name": "name",
          "type": "string"
        },
        {
          "name": "label",
          "type": "string"
        },
        {
          "name": "price",
          "type": "uint256"
        },
        {
          "name": "factomEntryHash",
          "type": "string"
        },
        {
          "name": "anotherEncryptionKey",
          "type": "string"
        },
        {
          "name": "data",
          "type": "string"
        },
        {
          "name": "nonce",
          "type": "uint256"
        }
      ],
      "name": "metaUpdateCertificateHash",
      "outputs": [
        {
          "name": "",
          "type": "bytes32"
        }
      ],
      "payable": false,
      "stateMutability": "view",
      "type": "function",
      "signature": "0x8090d63b"
    },
    {
      "constant": true,
      "inputs": [
        {
          "name": "hash",
          "type": "bytes32"
        },
        {
          "name": "signature",
          "type": "bytes"
        }
      ],
      "name": "getSigner",
      "outputs": [
        {
          "name": "",
          "type": "address"
        }
      ],
      "payable": false,
      "stateMutability": "pure",
      "type": "function",
      "signature": "0xf7b2ec0d"
    }
  ],
  "bytecode": "0x60806040523480156200001157600080fd5b50604051602080620037e5833981018060405262000033919081019062000339565b604080518082018252601881527f4365727469666963617465204f66204f776e65727368697000000000000000006020808301919091528251808401909352600383527f434f4f00000000000000000000000000000000000000000000000000000000009083015282918181620000d37f01ffc9a70000000000000000000000000000000000000000000000000000000064010000000062000212810204565b620001077f80ac58cd0000000000000000000000000000000000000000000000000000000064010000000062000212810204565b6200013b7f780e9d630000000000000000000000000000000000000000000000000000000064010000000062000212810204565b8151620001509060099060208501906200027f565b5080516200016690600a9060208401906200027f565b506200019b7f5b5e139f0000000000000000000000000000000000000000000000000000000064010000000062000212810204565b5050600c8054600160a060020a031916331790819055604051600160a060020a03919091169250600091507f8be0079c531659141344cd1fd0a4f28419497f9722a3daafe3b4186f6b6457e0908290a3600d8054600160a060020a031916600160a060020a03929092169190911790555062000381565b7fffffffff0000000000000000000000000000000000000000000000000000000080821614156200024257600080fd5b7fffffffff00000000000000000000000000000000000000000000000000000000166000908152602081905260409020805460ff19166001179055565b828054600181600116156101000203166002900490600052602060002090601f016020900481019282601f10620002c257805160ff1916838001178555620002f2565b82800160010185558215620002f2579182015b82811115620002f2578251825591602001919060010190620002d5565b506200030092915062000304565b5090565b6200032191905b808211156200030057600081556001016200030b565b90565b60006200033282516200036e565b9392505050565b6000602082840312156200034c57600080fd5b60006200035a848462000324565b949350505050565b600160a060020a031690565b60006200037b8262000362565b92915050565b61345480620003916000396000f3fe6080604052600436106101c15763ffffffff7c010000000000000000000000000000000000000000000000000000000060003504166301ffc9a781146101c657806306fdde03146101fc578063081812fc1461021e578063095ea7b31461024b5780630f1950f01461026d57806318160ddd1461028d57806323b872dd146102af5780632f7085e1146102cf5780632f745c59146102ef578063306bebaa1461030f57806342842e0e1461032f578063464d1d361461034f5780634f6ccce71461036f57806351640fee1461038f5780636352211e146103bc57806370a08231146103dc578063715018a6146103fc5780637aa7022e146104115780637ecebe00146104315780638090d63b14610451578063897c01f7146104715780638da5cb5b146104915780638f32d59b146104a65780638f52b374146104bb57806395d89b41146104db5780639d76ea58146104f0578063a22cb46514610505578063a51ede6f14610525578063b88d4fde1461053a578063bbd768bf1461055a578063c87b56dd1461057a578063d274dd6914610525578063d91a9b911461059a578063e985e9c5146105ba578063f2fde38b146105da578063f7b2ec0d146105fa575b600080fd5b3480156101d257600080fd5b506101e66101e1366004612a1a565b61061a565b6040516101f391906132a8565b60405180910390f35b34801561020857600080fd5b5061021161064e565b6040516101f391906132c4565b34801561022a57600080fd5b5061023e610239366004612d3c565b6106e5565b6040516101f39190613213565b34801561025757600080fd5b5061026b610266366004612952565b610717565b005b34801561027957600080fd5b5061026b610288366004612cd1565b6107de565b34801561029957600080fd5b506102a26107eb565b6040516101f391906132b6565b3480156102bb57600080fd5b5061026b6102ca36600461282a565b6107f1565b3480156102db57600080fd5b506102a26102ea366004612982565b610816565b3480156102fb57600080fd5b506102a261030a366004612952565b610899565b34801561031b57600080fd5b506102a261032a366004612d06565b6108e7565b34801561033b57600080fd5b5061026b61034a36600461282a565b610b0d565b34801561035b57600080fd5b5061026b61036a366004612a56565b610b29565b34801561037b57600080fd5b506102a261038a366004612d3c565b610c56565b34801561039b57600080fd5b506103af6103aa366004612d3c565b610c8b565b6040516101f39190613325565b3480156103c857600080fd5b5061023e6103d7366004612d3c565b610fdf565b3480156103e857600080fd5b506102a26103f73660046127d2565b611003565b34801561040857600080fd5b5061026b611036565b34801561041d57600080fd5b5061026b61042c366004612ac2565b6110a0565b34801561043d57600080fd5b506102a261044c3660046127d2565b611154565b34801561045d57600080fd5b506102a261046c366004612e8c565b611166565b34801561047d57600080fd5b506102a261048c366004612920565b61136b565b34801561049d57600080fd5b5061023e61140f565b3480156104b257600080fd5b506101e661141e565b3480156104c757600080fd5b5061026b6104d6366004612b1d565b61142f565b3480156104e757600080fd5b506102116114e0565b3480156104fc57600080fd5b5061023e611541565b34801561051157600080fd5b5061026b6105203660046128f0565b611550565b34801561053157600080fd5b506102a26115d5565b34801561054657600080fd5b5061026b610555366004612877565b6115da565b34801561056657600080fd5b5061026b610575366004612d78565b611602565b34801561058657600080fd5b50610211610595366004612d3c565b61161b565b3480156105a657600080fd5b5061026b6105b5366004612b7e565b6116d0565b3480156105c657600080fd5b506101e66105d53660046127f0565b611793565b3480156105e657600080fd5b5061026b6105f53660046127d2565b6117c1565b34801561060657600080fd5b5061023e6106153660046129d2565b6117dd565b7bffffffffffffffffffffffffffffffffffffffffffffffffffffffff191660009081526020819052604090205460ff1690565b60098054604080516020601f60026000196101006001881615020190951694909404938401819004810282018101909252828152606093909290918301828280156106da5780601f106106af576101008083540402835291602001916106da565b820191906000526020600020905b8154815290600101906020018083116106bd57829003601f168201915b505050505090505b90565b60006106f082611910565b15156106fb57600080fd5b50600090815260026020526040902054600160a060020a031690565b600061072282610fdf565b9050600160a060020a03838116908216141561073d57600080fd5b33600160a060020a038216148061075957506107598133611793565b151561076457600080fd5b60008281526002602052604090819020805473ffffffffffffffffffffffffffffffffffffffff1916600160a060020a038681169182179092559151908316907f8c5be1e5ebec7d5bd14f71427d1e84f3dd0314c0f7b2291e5b200ac8c7c3b925906107d19086906132b6565b60405180910390a3505050565b6107e8338261192d565b50565b60075490565b6107fb3382611c12565b151561080657600080fd5b610811838383611c71565b505050565b604080516c010000000000000000000000003081026020808401919091527f6d6574615472616e7366657200000000000000000000000000000000000000006034840152600160a060020a0387169091028284015260548201859052607480830185905283518084039091018152609490920190925280519101205b9392505050565b60006108a483611003565b82106108af57600080fd5b600160a060020a03831660009081526005602052604090208054839081106108d357fe5b906000526020600020015490505b92915050565b600030836000015184602001518560400151866060015187608001518860a001518960c001518a60e001518a604051602001808b600160a060020a0316600160a060020a03166c01000000000000000000000000028152601401807f6d657461437265617465436572746966696361746500000000000000000000008152506015018a815260200189805190602001908083835b6020831061099a5780518252601f19909201916020918201910161097b565b51815160209384036101000a60001901801990921691161790528b5191909301928b0191508083835b602083106109e25780518252601f1990920191602091820191016109c3565b51815160209384036101000a600019018019909216911617905292018981528083018990528751604090910192880191508083835b60208310610a365780518252601f199092019160209182019101610a17565b51815160209384036101000a600019018019909216911617905287519190930192870191508083835b60208310610a7e5780518252601f199092019160209182019101610a5f565b51815160209384036101000a600019018019909216911617905286519190930192860191508083835b60208310610ac65780518252601f199092019160209182019101610aa7565b51815160209384036101000a6000190180199092169116179052920193845250604080518085038152938201905282519201919091209d9c50505050505050505050505050565b61081183838360206040519081016040528060008152506115da565b6000610b3684848461136b565b90506000610b4482876117dd565b9050600160a060020a0381161515610b7a5760405160e560020a62461bcd028152600401610b7190613315565b60405180910390fd5b600160a060020a0381166000908152600f60205260409020548314610bb45760405160e560020a62461bcd028152600401610b7190613305565b600160a060020a038082166000818152600f60205260409020805460010190559086161415610be257600080fd5b600160a060020a038181166000818152600460209081526040808320948a168084529490915290819020805460ff1916881515179055517f17307eab39ab6107e8899845ad3d59bd9653f200f220920489ca2b5937696c3190610c469088906132a8565b60405180910390a3505050505050565b6000610c606107eb565b8210610c6b57600080fd5b6007805483908110610c7957fe5b90600052602060002001549050919050565b610c936124fc565b600e805483908110610ca157fe5b9060005260206000209060080201610100604051908101604052908160008201548152602001600182018054600181600116156101000203166002900480601f016020809104026020016040519081016040528092919081815260200182805460018160011615610100020316600290048015610d5f5780601f10610d3457610100808354040283529160200191610d5f565b820191906000526020600020905b815481529060010190602001808311610d4257829003601f168201915b5050509183525050600282810180546040805160206001841615610100026000190190931694909404601f81018390048302850183019091528084529381019390830182828015610df15780601f10610dc657610100808354040283529160200191610df1565b820191906000526020600020905b815481529060010190602001808311610dd457829003601f168201915b505050505081526020016003820154815260200160048201548152602001600582018054600181600116156101000203166002900480601f016020809104026020016040519081016040528092919081815260200182805460018160011615610100020316600290048015610ea75780601f10610e7c57610100808354040283529160200191610ea7565b820191906000526020600020905b815481529060010190602001808311610e8a57829003601f168201915b505050918352505060068201805460408051602060026001851615610100026000190190941693909304601f8101849004840282018401909252818152938201939291830182828015610f3b5780601f10610f1057610100808354040283529160200191610f3b565b820191906000526020600020905b815481529060010190602001808311610f1e57829003601f168201915b505050918352505060078201805460408051602060026001851615610100026000190190941693909304601f8101849004840282018401909252818152938201939291830182828015610fcf5780601f10610fa457610100808354040283529160200191610fcf565b820191906000526020600020905b815481529060010190602001808311610fb257829003601f168201915b5050505050815250509050919050565b600081815260016020526040812054600160a060020a03168015156108e157600080fd5b6000600160a060020a038216151561101a57600080fd5b50600160a060020a031660009081526003602052604090205490565b61103e61141e565b151561104957600080fd5b600c54604051600091600160a060020a0316907f8be0079c531659141344cd1fd0a4f28419497f9722a3daafe3b4186f6b6457e0908390a3600c805473ffffffffffffffffffffffffffffffffffffffff19169055565b60006110ad848484610816565b905060006110bb82876117dd565b9050600160a060020a03811615156110e85760405160e560020a62461bcd028152600401610b7190613315565b600160a060020a0381166000908152600f602052604090205483146111225760405160e560020a62461bcd028152600401610b7190613305565b600160a060020a0381166000908152600f602052604090208054600101905561114c818686611c71565b505050505050565b600f6020526000908152604090205481565b6000308989898989898989604051602001808a600160a060020a0316600160a060020a03166c01000000000000000000000000028152601401807f6d6574615570646174654365727469666963617465000000000000000000000081525060150189815260200188805190602001908083835b602083106111f85780518252601f1990920191602091820191016111d9565b51815160209384036101000a60001901801990921691161790528a5191909301928a0191508083835b602083106112405780518252601f199092019160209182019101611221565b51815160209384036101000a60001901801990921691161790529201888152875190830192880191508083835b6020831061128c5780518252601f19909201916020918201910161126d565b51815160209384036101000a600019018019909216911617905287519190930192870191508083835b602083106112d45780518252601f1990920191602091820191016112b5565b51815160209384036101000a600019018019909216911617905286519190930192860191508083835b6020831061131c5780518252601f1990920191602091820191016112fd565b51815160001960209485036101000a0190811690199190911617905292019384525060408051808503815293820190528251920191909120995050505050505050505098975050505050505050565b60408051306c010000000000000000000000009081026020808401919091527f6d657461536574417070726f76616c466f72416c6c00000000000000000000006034840152600160a060020a03969096160260498201529215157f010000000000000000000000000000000000000000000000000000000000000002605d840152605e8084019290925280518084039092018252607e909201909152805191012090565b600c54600160a060020a031690565b600c54600160a060020a0316331490565b600061143b83836108e7565b9050600061144982866117dd565b9050600160a060020a03811615156114765760405160e560020a62461bcd028152600401610b7190613315565b600160a060020a0381166000908152600f602052604090205483146114b05760405160e560020a62461bcd028152600401610b7190613305565b600160a060020a0381166000908152600f60205260409020805460010190556114d9818561192d565b5050505050565b600a8054604080516020601f60026000196101006001881615020190951694909404938401819004810282018101909252828152606093909290918301828280156106da5780601f106106af576101008083540402835291602001916106da565b600d54600160a060020a031681565b600160a060020a03821633141561156657600080fd5b336000818152600460209081526040808320600160a060020a038716808552925291829020805460ff191685151517905590519091907f17307eab39ab6107e8899845ad3d59bd9653f200f220920489ca2b5937696c31906115c99085906132a8565b60405180910390a35050565b600081565b6115e58484846107f1565b6115f184848484611c90565b15156115fc57600080fd5b50505050565b6116123388888888888888611d9e565b50505050505050565b606061162682611910565b151561163157600080fd5b6000828152600b602090815260409182902080548351601f6002600019610100600186161502019093169290920491820184900484028101840190945280845290918301828280156116c45780601f10611699576101008083540402835291602001916116c4565b820191906000526020600020905b8154815290600101906020018083116116a757829003601f168201915b50505050509050919050565b60006116e28989898989898989611166565b905060006116f0828c6117dd565b9050600160a060020a038116151561171d5760405160e560020a62461bcd028152600401610b7190613315565b600160a060020a0381166000908152600f602052604090205483146117575760405160e560020a62461bcd028152600401610b7190613305565b600160a060020a0381166000908152600f6020526040902080546001019055611786818b8b8b8b8b8b8b611d9e565b5050505050505050505050565b600160a060020a03918216600090815260046020908152604080832093909416825291909152205460ff1690565b6117c961141e565b15156117d457600080fd5b6107e881612091565b600080600080845160411415156117fa57600093505050506108e1565b50505060208201516040830151606084015160001a601b60ff8216101561181f57601b015b8060ff16601b1415801561183757508060ff16601c14155b1561184857600093505050506108e1565b60018660405160200180807f19457468657265756d205369676e6564204d6573736167653a0a333200000000815250601c018281526020019150506040516020818303038152906040528051906020012082858560405160008152602001604052604051808581526020018460ff1660ff1681526020018381526020018281526020019450505050506020604051602081039080840390855afa1580156118f3573d6000803e3d6000fd5b5050506020604051035193505050506108e1565b50505092915050565b600090815260016020526040902054600160a060020a0316151590565b600d546040517fdd62ed3e000000000000000000000000000000000000000000000000000000008152600160a060020a0390911690600090829063dd62ed3e9061197d9087903090600401613265565b60206040518083038186803b15801561199557600080fd5b505afa1580156119a9573d6000803e3d6000fd5b505050506040513d601f19601f820116820180604052506119cd9190810190612d5a565b10156119ee5760405160e560020a62461bcd028152600401610b71906132e5565b6040517f23b872dd000000000000000000000000000000000000000000000000000000008152600160a060020a038216906323b872dd90611a389086903090600090600401613280565b602060405180830381600087803b158015611a5257600080fd5b505af1158015611a66573d6000803e3d6000fd5b505050506040513d601f19601f82011682018060405250611a8a91908101906129b4565b1515611aab5760405160e560020a62461bcd028152600401610b71906132d5565b6040805161010081018252835181526020808501518183019081528584015193830193909352606080860151908301526080808601519083015260a0808601519083015260c0808601519083015260e08086015190830152600e805460018181018084556000938452855160089093027fbb7b4a454dc3493923482f07822329ed19e8244eff582cc204f8554c3620c3fd8101938455965180519497929691959194611b7e937fbb7b4a454dc3493923482f07822329ed19e8244eff582cc204f8554c3620c3fe01929190910190612542565b5060408201518051611b9a916002840191602090910190612542565b50606082015160038201556080820151600482015560a08201518051611bca916005840191602090910190612542565b5060c08201518051611be6916006840191602090910190612542565b5060e08201518051611c02916007840191602090910190612542565b5050500390506115fc848261210f565b600080611c1e83610fdf565b905080600160a060020a031684600160a060020a03161480611c59575083600160a060020a0316611c4e846106e5565b600160a060020a0316145b80611c695750611c698185611793565b949350505050565b611c7c838383612130565b611c86838261224e565b610811828261233e565b6000611ca484600160a060020a031661237c565b1515611cb257506001611c69565b6040517f150b7a02000000000000000000000000000000000000000000000000000000008152600090600160a060020a0386169063150b7a0290611d009033908a9089908990600401613221565b602060405180830381600087803b158015611d1a57600080fd5b505af1158015611d2e573d6000803e3d6000fd5b505050506040513d601f19601f82011682018060405250611d529190810190612a38565b7bffffffffffffffffffffffffffffffffffffffffffffffffffffffff19167f150b7a020000000000000000000000000000000000000000000000000000000014915050949350505050565b600d546040517fdd62ed3e000000000000000000000000000000000000000000000000000000008152600160a060020a0390911690600090829063dd62ed3e90611dee908d903090600401613265565b60206040518083038186803b158015611e0657600080fd5b505afa158015611e1a573d6000803e3d6000fd5b505050506040513d601f19601f82011682018060405250611e3e9190810190612d5a565b1015611e5f5760405160e560020a62461bcd028152600401610b71906132e5565b6040517f23b872dd000000000000000000000000000000000000000000000000000000008152600160a060020a038216906323b872dd90611ea9908c903090600090600401613280565b602060405180830381600087803b158015611ec357600080fd5b505af1158015611ed7573d6000803e3d6000fd5b505050506040513d601f19601f82011682018060405250611efb91908101906129b4565b1515611f1c5760405160e560020a62461bcd028152600401610b71906132d5565b88600160a060020a0316611f2f89610fdf565b600160a060020a031614611f585760405160e560020a62461bcd028152600401610b71906132f5565b86600e89815481101515611f6857fe5b90600052602060002090600802016001019080519060200190611f8c929190612542565b5085600e89815481101515611f9d57fe5b90600052602060002090600802016002019080519060200190611fc1929190612542565b5084600e89815481101515611fd257fe5b90600052602060002090600802016003018190555083600e89815481101515611ff757fe5b9060005260206000209060080201600501908051906020019061201b929190612542565b5082600e8981548110151561202c57fe5b90600052602060002090600802016006019080519060200190612050929190612542565b5081600e8981548110151561206157fe5b90600052602060002090600802016007019080519060200190612085929190612542565b50505050505050505050565b600160a060020a03811615156120a657600080fd5b600c54604051600160a060020a038084169216907f8be0079c531659141344cd1fd0a4f28419497f9722a3daafe3b4186f6b6457e090600090a3600c805473ffffffffffffffffffffffffffffffffffffffff1916600160a060020a0392909216919091179055565b6121198282612384565b612123828261233e565b61212c81612449565b5050565b82600160a060020a031661214382610fdf565b600160a060020a03161461215657600080fd5b600160a060020a038216151561216b57600080fd5b6121748161248d565b600160a060020a03831660009081526003602052604090205461219e90600163ffffffff6124d516565b600160a060020a0380851660009081526003602052604080822093909355908416815220546121d490600163ffffffff6124ea16565b600160a060020a0380841660008181526003602090815260408083209590955585825260019052839020805473ffffffffffffffffffffffffffffffffffffffff1916821790559151908516907fddf252ad1be2c89b69c2b068fc378daa952ba7f163c4a11628f55a4df523b3ef906107d19085906132b6565b600160a060020a03821660009081526005602052604081205461227890600163ffffffff6124d516565b60008381526006602052604090205490915080821461231557600160a060020a03841660009081526005602052604081208054849081106122b557fe5b90600052602060002001549050806005600087600160a060020a0316600160a060020a03168152602001908152602001600020838154811015156122f557fe5b600091825260208083209091019290925591825260069052604090208190555b600160a060020a03841660009081526005602052604090208054906114d99060001983016125c0565b600160a060020a0390911660009081526005602081815260408084208054868652600684529185208290559282526001810183559183529091200155565b6000903b1190565b600160a060020a038216151561239957600080fd5b6123a281611910565b156123ac57600080fd5b6000818152600160208181526040808420805473ffffffffffffffffffffffffffffffffffffffff1916600160a060020a03881690811790915584526003909152909120546123fa916124ea565b600160a060020a0383166000818152600360205260408082209390935591519091907fddf252ad1be2c89b69c2b068fc378daa952ba7f163c4a11628f55a4df523b3ef906115c99085906132b6565b600780546000838152600860205260408120829055600182018355919091527fa66cc928b5edb82af9bd49922954155ab7b0942694bea4ce44661d9a8736c6880155565b600081815260026020526040902054600160a060020a0316156107e8576000908152600260205260409020805473ffffffffffffffffffffffffffffffffffffffff19169055565b6000828211156124e457600080fd5b50900390565b60008282018381101561089257600080fd5b6101006040519081016040528060008152602001606081526020016060815260200160008152602001600081526020016060815260200160608152602001606081525090565b828054600181600116156101000203166002900490600052602060002090601f016020900481019282601f1061258357805160ff19168380011785556125b0565b828001600101855582156125b0579182015b828111156125b0578251825591602001919060010190612595565b506125bc9291506125e0565b5090565b815481835581811115610811576000838152602090206108119181019083015b6106e291905b808211156125bc57600081556001016125e6565b60006108928235613389565b60006108928235613394565b60006108928251613394565b600061089282356106e2565b600061089282356133a5565b600061089282516133a5565b6000601f8201831361265357600080fd5b81356126666126618261335d565b613336565b9150808252602083016020830185838301111561268257600080fd5b6119078382846133d8565b600061010082840312156126a057600080fd5b6126ab610100613336565b905060006126b9848461261e565b825250602082013567ffffffffffffffff8111156126d657600080fd5b6126e284828501612642565b602083015250604082013567ffffffffffffffff81111561270257600080fd5b61270e84828501612642565b60408301525060606127228482850161261e565b60608301525060806127368482850161261e565b60808301525060a082013567ffffffffffffffff81111561275657600080fd5b61276284828501612642565b60a08301525060c082013567ffffffffffffffff81111561278257600080fd5b61278e84828501612642565b60c08301525060e082013567ffffffffffffffff8111156127ae57600080fd5b6127ba84828501612642565b60e08301525092915050565b600061089282516106e2565b6000602082840312156127e457600080fd5b6000611c6984846125fa565b6000806040838503121561280357600080fd5b600061280f85856125fa565b9250506020612820858286016125fa565b9150509250929050565b60008060006060848603121561283f57600080fd5b600061284b86866125fa565b935050602061285c868287016125fa565b925050604061286d8682870161261e565b9150509250925092565b6000806000806080858703121561288d57600080fd5b600061289987876125fa565b94505060206128aa878288016125fa565b93505060406128bb8782880161261e565b925050606085013567ffffffffffffffff8111156128d857600080fd5b6128e487828801612642565b91505092959194509250565b6000806040838503121561290357600080fd5b600061290f85856125fa565b925050602061282085828601612606565b60008060006060848603121561293557600080fd5b600061294186866125fa565b935050602061285c86828701612606565b6000806040838503121561296557600080fd5b600061297185856125fa565b92505060206128208582860161261e565b60008060006060848603121561299757600080fd5b60006129a386866125fa565b935050602061285c8682870161261e565b6000602082840312156129c657600080fd5b6000611c698484612612565b600080604083850312156129e557600080fd5b60006129f1858561261e565b925050602083013567ffffffffffffffff811115612a0e57600080fd5b61282085828601612642565b600060208284031215612a2c57600080fd5b6000611c69848461262a565b600060208284031215612a4a57600080fd5b6000611c698484612636565b60008060008060808587031215612a6c57600080fd5b843567ffffffffffffffff811115612a8357600080fd5b612a8f87828801612642565b9450506020612aa0878288016125fa565b9350506040612ab187828801612606565b92505060606128e48782880161261e565b60008060008060808587031215612ad857600080fd5b843567ffffffffffffffff811115612aef57600080fd5b612afb87828801612642565b9450506020612b0c878288016125fa565b9350506040612ab18782880161261e565b600080600060608486031215612b3257600080fd5b833567ffffffffffffffff811115612b4957600080fd5b612b5586828701612642565b935050602084013567ffffffffffffffff811115612b7257600080fd5b61285c8682870161268d565b60008060008060008060008060006101208a8c031215612b9d57600080fd5b893567ffffffffffffffff811115612bb457600080fd5b612bc08c828d01612642565b9950506020612bd18c828d0161261e565b98505060408a013567ffffffffffffffff811115612bee57600080fd5b612bfa8c828d01612642565b97505060608a013567ffffffffffffffff811115612c1757600080fd5b612c238c828d01612642565b9650506080612c348c828d0161261e565b95505060a08a013567ffffffffffffffff811115612c5157600080fd5b612c5d8c828d01612642565b94505060c08a013567ffffffffffffffff811115612c7a57600080fd5b612c868c828d01612642565b93505060e08a013567ffffffffffffffff811115612ca357600080fd5b612caf8c828d01612642565b925050610100612cc18c828d0161261e565b9150509295985092959850929598565b600060208284031215612ce357600080fd5b813567ffffffffffffffff811115612cfa57600080fd5b611c698482850161268d565b60008060408385031215612d1957600080fd5b823567ffffffffffffffff811115612d3057600080fd5b6129718582860161268d565b600060208284031215612d4e57600080fd5b6000611c69848461261e565b600060208284031215612d6c57600080fd5b6000611c6984846127c6565b600080600080600080600060e0888a031215612d9357600080fd5b6000612d9f8a8a61261e565b975050602088013567ffffffffffffffff811115612dbc57600080fd5b612dc88a828b01612642565b965050604088013567ffffffffffffffff811115612de557600080fd5b612df18a828b01612642565b9550506060612e028a828b0161261e565b945050608088013567ffffffffffffffff811115612e1f57600080fd5b612e2b8a828b01612642565b93505060a088013567ffffffffffffffff811115612e4857600080fd5b612e548a828b01612642565b92505060c088013567ffffffffffffffff811115612e7157600080fd5b612e7d8a828b01612642565b91505092959891949750929550565b600080600080600080600080610100898b031215612ea957600080fd5b6000612eb58b8b61261e565b985050602089013567ffffffffffffffff811115612ed257600080fd5b612ede8b828c01612642565b975050604089013567ffffffffffffffff811115612efb57600080fd5b612f078b828c01612642565b9650506060612f188b828c0161261e565b955050608089013567ffffffffffffffff811115612f3557600080fd5b612f418b828c01612642565b94505060a089013567ffffffffffffffff811115612f5e57600080fd5b612f6a8b828c01612642565b93505060c089013567ffffffffffffffff811115612f8757600080fd5b612f938b828c01612642565b92505060e0612fa48b828c0161261e565b9150509295985092959890939650565b612fbd816133c7565b82525050565b612fbd81613389565b612fbd81613394565b612fbd816106e2565b6000612fe982613385565b808452612ffd8160208601602086016133e4565b61300681613410565b9093016020019392505050565b600f81527f5472616e73666572206661696c65640000000000000000000000000000000000602082015260400190565b603281527f436f6e7472616374206973206e6f7420616c6c6f77656420746f206d616e697060208201527f756c6174652073656e6465722066756e64730000000000000000000000000000604082015260600190565b603081527f4365727469666963617465732063616e206f6e6c79206265207570646174656460208201527f206279207468656972206f776e65727300000000000000000000000000000000604082015260600190565b601081527f4e6f6e636520697320696e76616c696400000000000000000000000000000000602082015260400190565b601181527f43616e6e6f7420676574207369676e6572000000000000000000000000000000602082015260400190565b80516000906101008401906131648582612fd5565b506020830151848203602086015261317c8282612fde565b915050604083015184820360408601526131968282612fde565b91505060608301516131ab6060860182612fd5565b5060808301516131be6080860182612fd5565b5060a083015184820360a08601526131d68282612fde565b91505060c083015184820360c08601526131f08282612fde565b91505060e083015184820360e086015261320a8282612fde565b95945050505050565b602081016108e18284612fc3565b6080810161322f8287612fb4565b61323c6020830186612fc3565b6132496040830185612fd5565b818103606083015261325b8184612fde565b9695505050505050565b604081016132738285612fc3565b6108926020830184612fc3565b6060810161328e8286612fc3565b61329b6020830185612fc3565b611c696040830184612fd5565b602081016108e18284612fcc565b602081016108e18284612fd5565b602080825281016108928184612fde565b602080825281016108e181613013565b602080825281016108e181613043565b602080825281016108e181613099565b602080825281016108e1816130ef565b602080825281016108e18161311f565b60208082528101610892818461314f565b60405181810167ffffffffffffffff8111828210171561335557600080fd5b604052919050565b600067ffffffffffffffff82111561337457600080fd5b506020601f91909101601f19160190565b5190565b60006108e182613399565b151590565b600160a060020a031690565b7bffffffffffffffffffffffffffffffffffffffffffffffffffffffff191690565b60006108e18260006108e182613389565b82818337506000910152565b60005b838110156133ff5781810151838201526020016133e7565b838111156115fc5750506000910152565b601f01601f19169056fea265627a7a7230582095017a330be99b9d98c1171bc65fe1dd16178b7f2eb9d8ec00ed8c8e14b0c48a6c6578706572696d656e74616cf50037",
  "source": "/* solhint-disable no-empty-blocks */\n\npragma solidity 0.5.0;\npragma experimental ABIEncoderV2;\n\nimport \"./COO.sol\";\n\n\n/**\n * @title Certificate of Ownership Meta Transactions\n * @dev This contract handles our meta-transactions\n */\ncontract MetaCOO is COO {\n    constructor(\n        address newTokenAddress\n    ) public COO(\n        newTokenAddress\n    ) {\n    }\n\n    mapping (address => uint256) public nonces;\n\n    function metaCreateCertificate(\n        bytes memory signature,\n        Certificate memory newCertificate,\n        uint256 nonce\n    ) public {\n        bytes32 hash = metaCreateCertificateHash(\n            newCertificate,\n            nonce\n        );\n\n        address signer = getSigner(hash, signature);\n\n        require(signer != address(0), \"Cannot get signer\");\n        require(nonce == nonces[signer], \"Nonce is invalid\");\n\n        nonces[signer] += 1;\n\n        _createCertificate(signer, newCertificate);\n    }\n\n    function metaUpdateCertificate(\n        bytes memory signature,\n        uint256 certificateId,\n        string memory name,\n        string memory label,\n        uint256 price,\n        string memory factomEntryHash,\n        string memory anotherEncryptionKey,\n        string memory data,\n        uint256 nonce\n    ) public {\n        bytes32 hash = metaUpdateCertificateHash(\n            certificateId,\n            name,\n            label,\n            price,\n            factomEntryHash,\n            anotherEncryptionKey,\n            data,\n            nonce\n        );\n\n        address signer = getSigner(hash, signature);\n\n        require(signer != address(0), \"Cannot get signer\");\n        require(nonce == nonces[signer], \"Nonce is invalid\");\n\n        nonces[signer] += 1;\n\n        _updateCertificate(\n            signer,\n            certificateId,\n            name,\n            label,\n            price,\n            factomEntryHash,\n            anotherEncryptionKey,\n            data\n        );\n    }\n\n    function metaTransfer(bytes memory signature, address to, uint256 tokenId, uint256 nonce) public {\n        bytes32 hash = metaTransferHash(to, tokenId, nonce);\n        address signer = getSigner(hash, signature);\n\n        require(signer != address(0), \"Cannot get signer\");\n        require(nonce == nonces[signer], \"Nonce is invalid\");\n\n        nonces[signer] += 1;\n\n        _transferFrom(signer, to, tokenId);\n    }\n\n    function metaSetApprovalForAll(bytes memory signature, address spender, bool approved, uint256 nonce) public {\n        bytes32 hash = metaSetApprovalForAllHash(spender, approved, nonce);\n        address signer = getSigner(hash, signature);\n\n        require(signer != address(0), \"Cannot get signer\");\n        require(nonce == nonces[signer], \"Nonce is invalid\");\n\n        nonces[signer] += 1;\n\n        require(spender != signer);\n\n        _operatorApprovals[signer][spender] = approved;\n        emit ApprovalForAll(signer, spender, approved);\n    }\n\n    function metaTransferHash(address to, uint256 tokenId, uint256 nonce) public view returns (bytes32) {\n        return keccak256(abi.encodePacked(address(this), \"metaTransfer\", to, tokenId, nonce));\n    }\n\n    function metaSetApprovalForAllHash(address spender, bool approved, uint256 nonce) public view returns (bytes32) {\n        return keccak256(abi.encodePacked(address(this), \"metaSetApprovalForAll\", spender, approved, nonce));\n    }\n\n    function metaCreateCertificateHash(\n        Certificate memory newCertificate,\n        uint256 nonce\n    ) public view returns (bytes32) {\n        return keccak256(abi.encodePacked(\n            address(this),\n            \"metaCreateCertificate\",\n            newCertificate.assetId,\n            newCertificate.name,\n            newCertificate.label,\n            newCertificate.price,\n            newCertificate.timestamp,\n            newCertificate.factomEntryHash,\n            newCertificate.anotherEncryptionKey,\n            newCertificate.data,\n            nonce\n        ));\n    }\n\n    function metaUpdateCertificateHash(\n        uint256 certificateId,\n        string memory name,\n        string memory label,\n        uint256 price,\n        string memory factomEntryHash,\n        string memory anotherEncryptionKey,\n        string memory data,\n        uint256 nonce\n    ) public view returns (bytes32) {\n        return keccak256(abi.encodePacked(\n            address(this),\n            \"metaUpdateCertificate\",\n            certificateId,\n            name,\n            label,\n            price,\n            factomEntryHash,\n            anotherEncryptionKey,\n            data,\n            nonce\n        ));\n    }\n\n    /**\n     * @dev Gets the signer of an hash using the signature\n     * @param hash The hash to check\n     * @param signature The signature to use\n     * @return The address of the signer or 0x0 address is something went wrong\n     */\n    function getSigner(bytes32 hash, bytes memory signature) public pure returns (address) {\n        bytes32 r;\n        bytes32 s;\n        uint8 v;\n\n        if (signature.length != 65) {\n            return address(0);\n        }\n\n        /* solhint-disable-next-line no-inline-assembly */\n        assembly {\n            r := mload(add(signature, 32))\n            s := mload(add(signature, 64))\n            v := byte(0, mload(add(signature, 96)))\n        }\n\n        if (v < 27) {\n            v += 27;\n        }\n\n        if (v != 27 && v != 28) {\n            return address(0);\n        } else {\n            return ecrecover(keccak256(\n                abi.encodePacked(\"\\x19Ethereum Signed Message:\\n32\", hash)\n            ), v, r, s);\n        }\n    }\n}\n",
  "sourcePath": "/Users/clement/Documents/Dev/herc/COO/COO/contracts/MetaCOO.sol",
  "compiler": {
    "name": "solc",
    "version": "0.5.0+commit.1d4f565a.Emscripten.clang"
  },
  "schemaVersion": "3.0.1",
  "updatedAt": "2019-02-21T08:38:48.805Z",
  "devdoc": {
    "details": "This contract handles our meta-transactions",
    "methods": {
      "approve(address,uint256)": {
        "details": "Approves another address to transfer the given token ID The zero address indicates there is no approved address. There can only be one approved address per token at a given time. Can only be called by the token owner or an approved operator.",
        "params": {
          "to": "address to be approved for the given token ID",
          "tokenId": "uint256 ID of the token to be approved"
        }
      },
      "balanceOf(address)": {
        "details": "Gets the balance of the specified address",
        "params": {
          "owner": "address to query the balance of"
        },
        "return": "uint256 representing the amount owned by the passed address"
      },
      "getApproved(uint256)": {
        "details": "Gets the approved address for a token ID, or zero if no address set Reverts if the token ID does not exist.",
        "params": {
          "tokenId": "uint256 ID of the token to query the approval of"
        },
        "return": "address currently approved for the given token ID"
      },
      "getCertificate(uint256)": {
        "details": "Gets a certificate and the related information, can only be called by the certificate owner",
        "params": {
          "certificateId": "The id of a certificate"
        },
        "return": "The required certificate"
      },
      "getSigner(bytes32,bytes)": {
        "details": "Gets the signer of an hash using the signature",
        "params": {
          "hash": "The hash to check",
          "signature": "The signature to use"
        },
        "return": "The address of the signer or 0x0 address is something went wrong"
      },
      "isApprovedForAll(address,address)": {
        "details": "Tells whether an operator is approved by a given owner",
        "params": {
          "operator": "operator address which you want to query the approval of",
          "owner": "owner address which you want to query the approval of"
        },
        "return": "bool whether the given operator is approved by the given owner"
      },
      "isOwner()": {
        "return": "true if `msg.sender` is the owner of the contract."
      },
      "name()": {
        "details": "Gets the token name",
        "return": "string representing the token name"
      },
      "owner()": {
        "return": "the address of the owner."
      },
      "ownerOf(uint256)": {
        "details": "Gets the owner of the specified token ID",
        "params": {
          "tokenId": "uint256 ID of the token to query the owner of"
        },
        "return": "owner address currently marked as the owner of the given token ID"
      },
      "renounceOwnership()": {
        "details": "Allows the current owner to relinquish control of the contract."
      },
      "safeTransferFrom(address,address,uint256)": {
        "details": "Safely transfers the ownership of a given token ID to another address If the target address is a contract, it must implement `onERC721Received`, which is called upon a safe transfer, and return the magic value `bytes4(keccak256(\"onERC721Received(address,address,uint256,bytes)\"))`; otherwise, the transfer is reverted.     * Requires the msg sender to be the owner, approved, or operator",
        "params": {
          "from": "current owner of the token",
          "to": "address to receive the ownership of the given token ID",
          "tokenId": "uint256 ID of the token to be transferred"
        }
      },
      "safeTransferFrom(address,address,uint256,bytes)": {
        "details": "Safely transfers the ownership of a given token ID to another address If the target address is a contract, it must implement `onERC721Received`, which is called upon a safe transfer, and return the magic value `bytes4(keccak256(\"onERC721Received(address,address,uint256,bytes)\"))`; otherwise, the transfer is reverted. Requires the msg sender to be the owner, approved, or operator",
        "params": {
          "_data": "bytes data to send along with a safe transfer check",
          "from": "current owner of the token",
          "to": "address to receive the ownership of the given token ID",
          "tokenId": "uint256 ID of the token to be transferred"
        }
      },
      "setApprovalForAll(address,bool)": {
        "details": "Sets or unsets the approval of a given operator An operator is allowed to transfer all tokens of the sender on their behalf",
        "params": {
          "approved": "representing the status of the approval to be set",
          "to": "operator address to set the approval"
        }
      },
      "supportsInterface(bytes4)": {
        "details": "implement supportsInterface(bytes4) using a lookup table"
      },
      "symbol()": {
        "details": "Gets the token symbol",
        "return": "string representing the token symbol"
      },
      "tokenByIndex(uint256)": {
        "details": "Gets the token ID at a given index of all the tokens in this contract Reverts if the index is greater or equal to the total number of tokens",
        "params": {
          "index": "uint256 representing the index to be accessed of the tokens list"
        },
        "return": "uint256 token ID at the given index of the tokens list"
      },
      "tokenOfOwnerByIndex(address,uint256)": {
        "details": "Gets the token ID at a given index of the tokens list of the requested owner",
        "params": {
          "index": "uint256 representing the index to be accessed of the requested tokens list",
          "owner": "address owning the tokens list to be accessed"
        },
        "return": "uint256 token ID at the given index of the tokens list owned by the requested address"
      },
      "tokenURI(uint256)": {
        "details": "Returns an URI for a given token ID Throws if the token ID does not exist. May return an empty string.",
        "params": {
          "tokenId": "uint256 ID of the token to query"
        }
      },
      "totalSupply()": {
        "details": "Gets the total amount of tokens stored by the contract",
        "return": "uint256 representing the total amount of tokens"
      },
      "transferFrom(address,address,uint256)": {
        "details": "Transfers the ownership of a given token ID to another address Usage of this method is discouraged, use `safeTransferFrom` whenever possible Requires the msg sender to be the owner, approved, or operator",
        "params": {
          "from": "current owner of the token",
          "to": "address to receive the ownership of the given token ID",
          "tokenId": "uint256 ID of the token to be transferred"
        }
      },
      "transferOwnership(address)": {
        "details": "Allows the current owner to transfer control of the contract to a newOwner.",
        "params": {
          "newOwner": "The address to transfer ownership to."
        }
      }
    },
    "title": "Certificate of Ownership Meta Transactions"
  },
  "userdoc": {
    "methods": {
      "renounceOwnership()": {
        "notice": "Renouncing to ownership will leave the contract without an owner. It will not be possible to call the functions with the `onlyOwner` modifier anymore."
      }
    }
  }
}