{
  "contractName": "MetaCOO",
  "abi": [
    {
      "constant": true,
      "inputs": [
        {
          "name": "interfaceId",
          "type": "bytes4"
        }
      ],
      "name": "supportsInterface",
      "outputs": [
        {
          "name": "",
          "type": "bool"
        }
      ],
      "payable": false,
      "stateMutability": "view",
      "type": "function",
      "signature": "0x01ffc9a7"
    },
    {
      "constant": true,
      "inputs": [],
      "name": "name",
      "outputs": [
        {
          "name": "",
          "type": "string"
        }
      ],
      "payable": false,
      "stateMutability": "view",
      "type": "function",
      "signature": "0x06fdde03"
    },
    {
      "constant": true,
      "inputs": [
        {
          "name": "tokenId",
          "type": "uint256"
        }
      ],
      "name": "getApproved",
      "outputs": [
        {
          "name": "",
          "type": "address"
        }
      ],
      "payable": false,
      "stateMutability": "view",
      "type": "function",
      "signature": "0x081812fc"
    },
    {
      "constant": false,
      "inputs": [
        {
          "name": "to",
          "type": "address"
        },
        {
          "name": "tokenId",
          "type": "uint256"
        }
      ],
      "name": "approve",
      "outputs": [],
      "payable": false,
      "stateMutability": "nonpayable",
      "type": "function",
      "signature": "0x095ea7b3"
    },
    {
      "constant": false,
      "inputs": [
        {
          "components": [
            {
              "name": "assetId",
              "type": "uint256"
            },
            {
              "name": "name",
              "type": "string"
            },
            {
              "name": "label",
              "type": "string"
            },
            {
              "name": "price",
              "type": "uint256"
            },
            {
              "name": "timestamp",
              "type": "uint256"
            },
            {
              "name": "factomEntryHash",
              "type": "string"
            },
            {
              "name": "anotherEncryptionKey",
              "type": "string"
            },
            {
              "name": "data",
              "type": "string"
            }
          ],
          "name": "newCertificate",
          "type": "tuple"
        }
      ],
      "name": "createCertificate",
      "outputs": [],
      "payable": false,
      "stateMutability": "nonpayable",
      "type": "function",
      "signature": "0x0f1950f0"
    },
    {
      "constant": true,
      "inputs": [],
      "name": "totalSupply",
      "outputs": [
        {
          "name": "",
          "type": "uint256"
        }
      ],
      "payable": false,
      "stateMutability": "view",
      "type": "function",
      "signature": "0x18160ddd"
    },
    {
      "constant": false,
      "inputs": [
        {
          "name": "from",
          "type": "address"
        },
        {
          "name": "to",
          "type": "address"
        },
        {
          "name": "tokenId",
          "type": "uint256"
        }
      ],
      "name": "transferFrom",
      "outputs": [],
      "payable": false,
      "stateMutability": "nonpayable",
      "type": "function",
      "signature": "0x23b872dd"
    },
    {
      "constant": true,
      "inputs": [
        {
          "name": "owner",
          "type": "address"
        },
        {
          "name": "index",
          "type": "uint256"
        }
      ],
      "name": "tokenOfOwnerByIndex",
      "outputs": [
        {
          "name": "",
          "type": "uint256"
        }
      ],
      "payable": false,
      "stateMutability": "view",
      "type": "function",
      "signature": "0x2f745c59"
    },
    {
      "constant": false,
      "inputs": [
        {
          "name": "from",
          "type": "address"
        },
        {
          "name": "to",
          "type": "address"
        },
        {
          "name": "tokenId",
          "type": "uint256"
        }
      ],
      "name": "safeTransferFrom",
      "outputs": [],
      "payable": false,
      "stateMutability": "nonpayable",
      "type": "function",
      "signature": "0x42842e0e"
    },
    {
      "constant": false,
      "inputs": [
        {
          "name": "certificateId",
          "type": "uint256"
        },
        {
          "name": "data",
          "type": "string"
        }
      ],
      "name": "updateCertificateData",
      "outputs": [],
      "payable": false,
      "stateMutability": "nonpayable",
      "type": "function",
      "signature": "0x4de40ec6"
    },
    {
      "constant": true,
      "inputs": [
        {
          "name": "index",
          "type": "uint256"
        }
      ],
      "name": "tokenByIndex",
      "outputs": [
        {
          "name": "",
          "type": "uint256"
        }
      ],
      "payable": false,
      "stateMutability": "view",
      "type": "function",
      "signature": "0x4f6ccce7"
    },
    {
      "constant": true,
      "inputs": [
        {
          "name": "certificateId",
          "type": "uint256"
        }
      ],
      "name": "getCertificate",
      "outputs": [
        {
          "components": [
            {
              "name": "assetId",
              "type": "uint256"
            },
            {
              "name": "name",
              "type": "string"
            },
            {
              "name": "label",
              "type": "string"
            },
            {
              "name": "price",
              "type": "uint256"
            },
            {
              "name": "timestamp",
              "type": "uint256"
            },
            {
              "name": "factomEntryHash",
              "type": "string"
            },
            {
              "name": "anotherEncryptionKey",
              "type": "string"
            },
            {
              "name": "data",
              "type": "string"
            }
          ],
          "name": "",
          "type": "tuple"
        }
      ],
      "payable": false,
      "stateMutability": "view",
      "type": "function",
      "signature": "0x51640fee"
    },
    {
      "constant": true,
      "inputs": [
        {
          "name": "tokenId",
          "type": "uint256"
        }
      ],
      "name": "ownerOf",
      "outputs": [
        {
          "name": "",
          "type": "address"
        }
      ],
      "payable": false,
      "stateMutability": "view",
      "type": "function",
      "signature": "0x6352211e"
    },
    {
      "constant": true,
      "inputs": [
        {
          "name": "owner",
          "type": "address"
        }
      ],
      "name": "balanceOf",
      "outputs": [
        {
          "name": "",
          "type": "uint256"
        }
      ],
      "payable": false,
      "stateMutability": "view",
      "type": "function",
      "signature": "0x70a08231"
    },
    {
      "constant": false,
      "inputs": [],
      "name": "renounceOwnership",
      "outputs": [],
      "payable": false,
      "stateMutability": "nonpayable",
      "type": "function",
      "signature": "0x715018a6"
    },
    {
      "constant": true,
      "inputs": [
        {
          "name": "",
          "type": "address"
        }
      ],
      "name": "nonces",
      "outputs": [
        {
          "name": "",
          "type": "uint256"
        }
      ],
      "payable": false,
      "stateMutability": "view",
      "type": "function",
      "signature": "0x7ecebe00"
    },
    {
      "constant": true,
      "inputs": [],
      "name": "owner",
      "outputs": [
        {
          "name": "",
          "type": "address"
        }
      ],
      "payable": false,
      "stateMutability": "view",
      "type": "function",
      "signature": "0x8da5cb5b"
    },
    {
      "constant": true,
      "inputs": [],
      "name": "isOwner",
      "outputs": [
        {
          "name": "",
          "type": "bool"
        }
      ],
      "payable": false,
      "stateMutability": "view",
      "type": "function",
      "signature": "0x8f32d59b"
    },
    {
      "constant": true,
      "inputs": [],
      "name": "symbol",
      "outputs": [
        {
          "name": "",
          "type": "string"
        }
      ],
      "payable": false,
      "stateMutability": "view",
      "type": "function",
      "signature": "0x95d89b41"
    },
    {
      "constant": true,
      "inputs": [],
      "name": "tokenAddress",
      "outputs": [
        {
          "name": "",
          "type": "address"
        }
      ],
      "payable": false,
      "stateMutability": "view",
      "type": "function",
      "signature": "0x9d76ea58"
    },
    {
      "constant": false,
      "inputs": [
        {
          "name": "to",
          "type": "address"
        },
        {
          "name": "approved",
          "type": "bool"
        }
      ],
      "name": "setApprovalForAll",
      "outputs": [],
      "payable": false,
      "stateMutability": "nonpayable",
      "type": "function",
      "signature": "0xa22cb465"
    },
    {
      "constant": true,
      "inputs": [],
      "name": "CONTRACT_UPDATE_PRICE",
      "outputs": [
        {
          "name": "",
          "type": "uint256"
        }
      ],
      "payable": false,
      "stateMutability": "view",
      "type": "function",
      "signature": "0xa51ede6f"
    },
    {
      "constant": false,
      "inputs": [
        {
          "name": "from",
          "type": "address"
        },
        {
          "name": "to",
          "type": "address"
        },
        {
          "name": "tokenId",
          "type": "uint256"
        },
        {
          "name": "_data",
          "type": "bytes"
        }
      ],
      "name": "safeTransferFrom",
      "outputs": [],
      "payable": false,
      "stateMutability": "nonpayable",
      "type": "function",
      "signature": "0xb88d4fde"
    },
    {
      "constant": false,
      "inputs": [
        {
          "name": "certificateId",
          "type": "uint256"
        },
        {
          "name": "name",
          "type": "string"
        },
        {
          "name": "label",
          "type": "string"
        },
        {
          "name": "price",
          "type": "uint256"
        },
        {
          "name": "factomEntryHash",
          "type": "string"
        },
        {
          "name": "anotherEncryptionKey",
          "type": "string"
        },
        {
          "name": "data",
          "type": "string"
        }
      ],
      "name": "updateCertificate",
      "outputs": [],
      "payable": false,
      "stateMutability": "nonpayable",
      "type": "function",
      "signature": "0xbbd768bf"
    },
    {
      "constant": true,
      "inputs": [
        {
          "name": "tokenId",
          "type": "uint256"
        }
      ],
      "name": "tokenURI",
      "outputs": [
        {
          "name": "",
          "type": "string"
        }
      ],
      "payable": false,
      "stateMutability": "view",
      "type": "function",
      "signature": "0xc87b56dd"
    },
    {
      "constant": true,
      "inputs": [],
      "name": "CONTRACT_CREATION_PRICE",
      "outputs": [
        {
          "name": "",
          "type": "uint256"
        }
      ],
      "payable": false,
      "stateMutability": "view",
      "type": "function",
      "signature": "0xd274dd69"
    },
    {
      "constant": true,
      "inputs": [
        {
          "name": "owner",
          "type": "address"
        },
        {
          "name": "operator",
          "type": "address"
        }
      ],
      "name": "isApprovedForAll",
      "outputs": [
        {
          "name": "",
          "type": "bool"
        }
      ],
      "payable": false,
      "stateMutability": "view",
      "type": "function",
      "signature": "0xe985e9c5"
    },
    {
      "constant": false,
      "inputs": [
        {
          "name": "newOwner",
          "type": "address"
        }
      ],
      "name": "transferOwnership",
      "outputs": [],
      "payable": false,
      "stateMutability": "nonpayable",
      "type": "function",
      "signature": "0xf2fde38b"
    },
    {
      "inputs": [
        {
          "name": "newTokenAddress",
          "type": "address"
        }
      ],
      "payable": false,
      "stateMutability": "nonpayable",
      "type": "constructor",
      "signature": "constructor"
    },
    {
      "anonymous": false,
      "inputs": [
        {
          "indexed": true,
          "name": "previousOwner",
          "type": "address"
        },
        {
          "indexed": true,
          "name": "newOwner",
          "type": "address"
        }
      ],
      "name": "OwnershipTransferred",
      "type": "event",
      "signature": "0x8be0079c531659141344cd1fd0a4f28419497f9722a3daafe3b4186f6b6457e0"
    },
    {
      "anonymous": false,
      "inputs": [
        {
          "indexed": true,
          "name": "from",
          "type": "address"
        },
        {
          "indexed": true,
          "name": "to",
          "type": "address"
        },
        {
          "indexed": false,
          "name": "tokenId",
          "type": "uint256"
        }
      ],
      "name": "Transfer",
      "type": "event",
      "signature": "0xddf252ad1be2c89b69c2b068fc378daa952ba7f163c4a11628f55a4df523b3ef"
    },
    {
      "anonymous": false,
      "inputs": [
        {
          "indexed": true,
          "name": "owner",
          "type": "address"
        },
        {
          "indexed": true,
          "name": "approved",
          "type": "address"
        },
        {
          "indexed": false,
          "name": "tokenId",
          "type": "uint256"
        }
      ],
      "name": "Approval",
      "type": "event",
      "signature": "0x8c5be1e5ebec7d5bd14f71427d1e84f3dd0314c0f7b2291e5b200ac8c7c3b925"
    },
    {
      "anonymous": false,
      "inputs": [
        {
          "indexed": true,
          "name": "owner",
          "type": "address"
        },
        {
          "indexed": true,
          "name": "operator",
          "type": "address"
        },
        {
          "indexed": false,
          "name": "approved",
          "type": "bool"
        }
      ],
      "name": "ApprovalForAll",
      "type": "event",
      "signature": "0x17307eab39ab6107e8899845ad3d59bd9653f200f220920489ca2b5937696c31"
    },
    {
      "constant": false,
      "inputs": [
        {
          "name": "signature",
          "type": "bytes"
        },
        {
          "components": [
            {
              "name": "assetId",
              "type": "uint256"
            },
            {
              "name": "name",
              "type": "string"
            },
            {
              "name": "label",
              "type": "string"
            },
            {
              "name": "price",
              "type": "uint256"
            },
            {
              "name": "timestamp",
              "type": "uint256"
            },
            {
              "name": "factomEntryHash",
              "type": "string"
            },
            {
              "name": "anotherEncryptionKey",
              "type": "string"
            },
            {
              "name": "data",
              "type": "string"
            }
          ],
          "name": "newCertificate",
          "type": "tuple"
        },
        {
          "name": "nonce",
          "type": "uint256"
        }
      ],
      "name": "metaCreateCertificate",
      "outputs": [],
      "payable": false,
      "stateMutability": "nonpayable",
      "type": "function",
      "signature": "0x8f52b374"
    },
    {
      "constant": false,
      "inputs": [
        {
          "name": "signature",
          "type": "bytes"
        },
        {
          "name": "certificateId",
          "type": "uint256"
        },
        {
          "name": "name",
          "type": "string"
        },
        {
          "name": "label",
          "type": "string"
        },
        {
          "name": "price",
          "type": "uint256"
        },
        {
          "name": "factomEntryHash",
          "type": "string"
        },
        {
          "name": "anotherEncryptionKey",
          "type": "string"
        },
        {
          "name": "data",
          "type": "string"
        },
        {
          "name": "nonce",
          "type": "uint256"
        }
      ],
      "name": "metaUpdateCertificate",
      "outputs": [],
      "payable": false,
      "stateMutability": "nonpayable",
      "type": "function",
      "signature": "0xd91a9b91"
    },
    {
      "constant": false,
      "inputs": [
        {
          "name": "signature",
          "type": "bytes"
        },
        {
          "name": "certificateId",
          "type": "uint256"
        },
        {
          "name": "data",
          "type": "string"
        },
        {
          "name": "nonce",
          "type": "uint256"
        }
      ],
      "name": "metaUpdateCertificateData",
      "outputs": [],
      "payable": false,
      "stateMutability": "nonpayable",
      "type": "function",
      "signature": "0xa05a2662"
    },
    {
      "constant": false,
      "inputs": [
        {
          "name": "signature",
          "type": "bytes"
        },
        {
          "name": "to",
          "type": "address"
        },
        {
          "name": "tokenId",
          "type": "uint256"
        },
        {
          "name": "nonce",
          "type": "uint256"
        }
      ],
      "name": "metaTransfer",
      "outputs": [],
      "payable": false,
      "stateMutability": "nonpayable",
      "type": "function",
      "signature": "0x7aa7022e"
    },
    {
      "constant": false,
      "inputs": [
        {
          "name": "signature",
          "type": "bytes"
        },
        {
          "name": "spender",
          "type": "address"
        },
        {
          "name": "approved",
          "type": "bool"
        },
        {
          "name": "nonce",
          "type": "uint256"
        }
      ],
      "name": "metaSetApprovalForAll",
      "outputs": [],
      "payable": false,
      "stateMutability": "nonpayable",
      "type": "function",
      "signature": "0x464d1d36"
    },
    {
      "constant": true,
      "inputs": [
        {
          "name": "to",
          "type": "address"
        },
        {
          "name": "tokenId",
          "type": "uint256"
        },
        {
          "name": "nonce",
          "type": "uint256"
        }
      ],
      "name": "metaTransferHash",
      "outputs": [
        {
          "name": "",
          "type": "bytes32"
        }
      ],
      "payable": false,
      "stateMutability": "view",
      "type": "function",
      "signature": "0x2f7085e1"
    },
    {
      "constant": true,
      "inputs": [
        {
          "name": "spender",
          "type": "address"
        },
        {
          "name": "approved",
          "type": "bool"
        },
        {
          "name": "nonce",
          "type": "uint256"
        }
      ],
      "name": "metaSetApprovalForAllHash",
      "outputs": [
        {
          "name": "",
          "type": "bytes32"
        }
      ],
      "payable": false,
      "stateMutability": "view",
      "type": "function",
      "signature": "0x897c01f7"
    },
    {
      "constant": true,
      "inputs": [
        {
          "components": [
            {
              "name": "assetId",
              "type": "uint256"
            },
            {
              "name": "name",
              "type": "string"
            },
            {
              "name": "label",
              "type": "string"
            },
            {
              "name": "price",
              "type": "uint256"
            },
            {
              "name": "timestamp",
              "type": "uint256"
            },
            {
              "name": "factomEntryHash",
              "type": "string"
            },
            {
              "name": "anotherEncryptionKey",
              "type": "string"
            },
            {
              "name": "data",
              "type": "string"
            }
          ],
          "name": "newCertificate",
          "type": "tuple"
        },
        {
          "name": "nonce",
          "type": "uint256"
        }
      ],
      "name": "metaCreateCertificateHash",
      "outputs": [
        {
          "name": "",
          "type": "bytes32"
        }
      ],
      "payable": false,
      "stateMutability": "view",
      "type": "function",
      "signature": "0x306bebaa"
    },
    {
      "constant": true,
      "inputs": [
        {
          "name": "certificateId",
          "type": "uint256"
        },
        {
          "name": "data",
          "type": "string"
        },
        {
          "name": "nonce",
          "type": "uint256"
        }
      ],
      "name": "metaUpdateCertificateHash",
      "outputs": [
        {
          "name": "",
          "type": "bytes32"
        }
      ],
      "payable": false,
      "stateMutability": "view",
      "type": "function",
      "signature": "0xa2671822"
    },
    {
      "constant": true,
      "inputs": [
        {
          "name": "certificateId",
          "type": "uint256"
        },
        {
          "name": "name",
          "type": "string"
        },
        {
          "name": "label",
          "type": "string"
        },
        {
          "name": "price",
          "type": "uint256"
        },
        {
          "name": "factomEntryHash",
          "type": "string"
        },
        {
          "name": "anotherEncryptionKey",
          "type": "string"
        },
        {
          "name": "data",
          "type": "string"
        },
        {
          "name": "nonce",
          "type": "uint256"
        }
      ],
      "name": "metaUpdateCertificateHash",
      "outputs": [
        {
          "name": "",
          "type": "bytes32"
        }
      ],
      "payable": false,
      "stateMutability": "view",
      "type": "function",
      "signature": "0x8090d63b"
    },
    {
      "constant": true,
      "inputs": [
        {
          "name": "hash",
          "type": "bytes32"
        },
        {
          "name": "signature",
          "type": "bytes"
        }
      ],
      "name": "getSigner",
      "outputs": [
        {
          "name": "",
          "type": "address"
        }
      ],
      "payable": false,
      "stateMutability": "pure",
      "type": "function",
      "signature": "0xf7b2ec0d"
    }
  ],
  "bytecode": "0x60806040523480156200001157600080fd5b5060405160208062003b19833981018060405262000033919081019062000339565b604080518082018252601881527f4365727469666963617465204f66204f776e65727368697000000000000000006020808301919091528251808401909352600383527f434f4f00000000000000000000000000000000000000000000000000000000009083015282918181620000d37f01ffc9a70000000000000000000000000000000000000000000000000000000064010000000062000212810204565b620001077f80ac58cd0000000000000000000000000000000000000000000000000000000064010000000062000212810204565b6200013b7f780e9d630000000000000000000000000000000000000000000000000000000064010000000062000212810204565b8151620001509060099060208501906200027f565b5080516200016690600a9060208401906200027f565b506200019b7f5b5e139f0000000000000000000000000000000000000000000000000000000064010000000062000212810204565b5050600c8054600160a060020a031916331790819055604051600160a060020a03919091169250600091507f8be0079c531659141344cd1fd0a4f28419497f9722a3daafe3b4186f6b6457e0908290a3600d8054600160a060020a031916600160a060020a03929092169190911790555062000381565b7fffffffff0000000000000000000000000000000000000000000000000000000080821614156200024257600080fd5b7fffffffff00000000000000000000000000000000000000000000000000000000166000908152602081905260409020805460ff19166001179055565b828054600181600116156101000203166002900490600052602060002090601f016020900481019282601f10620002c257805160ff1916838001178555620002f2565b82800160010185558215620002f2579182015b82811115620002f2578251825591602001919060010190620002d5565b506200030092915062000304565b5090565b6200032191905b808211156200030057600081556001016200030b565b90565b60006200033282516200036e565b9392505050565b6000602082840312156200034c57600080fd5b60006200035a848462000324565b949350505050565b600160a060020a031690565b60006200037b8262000362565b92915050565b61378880620003916000396000f3fe6080604052600436106101e25763ffffffff7c010000000000000000000000000000000000000000000000000000000060003504166301ffc9a781146101e757806306fdde031461021d578063081812fc1461023f578063095ea7b31461026c5780630f1950f01461028e57806318160ddd146102ae57806323b872dd146102d05780632f7085e1146102f05780632f745c5914610310578063306bebaa1461033057806342842e0e14610350578063464d1d36146103705780634de40ec6146103905780634f6ccce7146103b057806351640fee146103d05780636352211e146103fd57806370a082311461041d578063715018a61461043d5780637aa7022e146104525780637ecebe00146104725780638090d63b14610492578063897c01f7146104b25780638da5cb5b146104d25780638f32d59b146104e75780638f52b374146104fc57806395d89b411461051c5780639d76ea5814610531578063a05a266214610546578063a22cb46514610566578063a267182214610586578063a51ede6f146105a6578063b88d4fde146105bb578063bbd768bf146105db578063c87b56dd146105fb578063d274dd69146105a6578063d91a9b911461061b578063e985e9c51461063b578063f2fde38b1461065b578063f7b2ec0d1461067b575b600080fd5b3480156101f357600080fd5b50610207610202366004612c91565b61069b565b60405161021491906135dc565b60405180910390f35b34801561022957600080fd5b506102326106cf565b60405161021491906135f8565b34801561024b57600080fd5b5061025f61025a366004613026565b610766565b6040516102149190613547565b34801561027857600080fd5b5061028c610287366004612bc9565b610798565b005b34801561029a57600080fd5b5061028c6102a9366004612fbb565b61085f565b3480156102ba57600080fd5b506102c361086c565b60405161021491906135ea565b3480156102dc57600080fd5b5061028c6102eb366004612aa1565b610872565b3480156102fc57600080fd5b506102c361030b366004612bf9565b610897565b34801561031c57600080fd5b506102c361032b366004612bc9565b61091a565b34801561033c57600080fd5b506102c361034b366004612ff0565b610968565b34801561035c57600080fd5b5061028c61036b366004612aa1565b610b8e565b34801561037c57600080fd5b5061028c61038b366004612ccd565b610baa565b34801561039c57600080fd5b5061028c6103ab366004612c49565b610cd7565b3480156103bc57600080fd5b506102c36103cb366004613026565b610ce6565b3480156103dc57600080fd5b506103f06103eb366004613026565b610d1b565b6040516102149190613659565b34801561040957600080fd5b5061025f610418366004613026565b61106f565b34801561042957600080fd5b506102c3610438366004612a49565b611093565b34801561044957600080fd5b5061028c6110c6565b34801561045e57600080fd5b5061028c61046d366004612d39565b611130565b34801561047e57600080fd5b506102c361048d366004612a49565b6111e4565b34801561049e57600080fd5b506102c36104ad366004613176565b6111f6565b3480156104be57600080fd5b506102c36104cd366004612b97565b6113fb565b3480156104de57600080fd5b5061025f61149f565b3480156104f357600080fd5b506102076114ae565b34801561050857600080fd5b5061028c610517366004612d94565b6114bf565b34801561052857600080fd5b50610232611570565b34801561053d57600080fd5b5061025f6115d1565b34801561055257600080fd5b5061028c610561366004612f48565b6115e0565b34801561057257600080fd5b5061028c610581366004612b67565b61168c565b34801561059257600080fd5b506102c36105a136600461329e565b611711565b3480156105b257600080fd5b506102c36117e0565b3480156105c757600080fd5b5061028c6105d6366004612aee565b6117e5565b3480156105e757600080fd5b5061028c6105f6366004613062565b61180d565b34801561060757600080fd5b50610232610616366004613026565b611826565b34801561062757600080fd5b5061028c610636366004612df5565b6118db565b34801561064757600080fd5b50610207610656366004612a67565b61199e565b34801561066757600080fd5b5061028c610676366004612a49565b6119cc565b34801561068757600080fd5b5061025f610696366004612c49565b6119e8565b7bffffffffffffffffffffffffffffffffffffffffffffffffffffffff191660009081526020819052604090205460ff1690565b60098054604080516020601f600260001961010060018816150201909516949094049384018190048102820181019092528281526060939092909183018282801561075b5780601f106107305761010080835404028352916020019161075b565b820191906000526020600020905b81548152906001019060200180831161073e57829003601f168201915b505050505090505b90565b600061077182611b1b565b151561077c57600080fd5b50600090815260026020526040902054600160a060020a031690565b60006107a38261106f565b9050600160a060020a0383811690821614156107be57600080fd5b33600160a060020a03821614806107da57506107da813361199e565b15156107e557600080fd5b60008281526002602052604090819020805473ffffffffffffffffffffffffffffffffffffffff1916600160a060020a038681169182179092559151908316907f8c5be1e5ebec7d5bd14f71427d1e84f3dd0314c0f7b2291e5b200ac8c7c3b925906108529086906135ea565b60405180910390a3505050565b6108693382611b38565b50565b60075490565b61087c3382611e1d565b151561088757600080fd5b610892838383611e7c565b505050565b604080516c010000000000000000000000003081026020808401919091527f6d6574615472616e7366657200000000000000000000000000000000000000006034840152600160a060020a0387169091028284015260548201859052607480830185905283518084039091018152609490920190925280519101205b9392505050565b600061092583611093565b821061093057600080fd5b600160a060020a038316600090815260056020526040902080548390811061095457fe5b906000526020600020015490505b92915050565b600030836000015184602001518560400151866060015187608001518860a001518960c001518a60e001518a604051602001808b600160a060020a0316600160a060020a03166c01000000000000000000000000028152601401807f6d657461437265617465436572746966696361746500000000000000000000008152506015018a815260200189805190602001908083835b60208310610a1b5780518252601f1990920191602091820191016109fc565b51815160209384036101000a60001901801990921691161790528b5191909301928b0191508083835b60208310610a635780518252601f199092019160209182019101610a44565b51815160209384036101000a600019018019909216911617905292018981528083018990528751604090910192880191508083835b60208310610ab75780518252601f199092019160209182019101610a98565b51815160209384036101000a600019018019909216911617905287519190930192870191508083835b60208310610aff5780518252601f199092019160209182019101610ae0565b51815160209384036101000a600019018019909216911617905286519190930192860191508083835b60208310610b475780518252601f199092019160209182019101610b28565b51815160209384036101000a6000190180199092169116179052920193845250604080518085038152938201905282519201919091209d9c50505050505050505050505050565b61089283838360206040519081016040528060008152506117e5565b6000610bb78484846113fb565b90506000610bc582876119e8565b9050600160a060020a0381161515610bfb5760405160e560020a62461bcd028152600401610bf290613649565b60405180910390fd5b600160a060020a0381166000908152600f60205260409020548314610c355760405160e560020a62461bcd028152600401610bf290613639565b600160a060020a038082166000818152600f60205260409020805460010190559086161415610c6357600080fd5b600160a060020a038181166000818152600460209081526040808320948a168084529490915290819020805460ff1916881515179055517f17307eab39ab6107e8899845ad3d59bd9653f200f220920489ca2b5937696c3190610cc79088906135dc565b60405180910390a3505050505050565b610ce2338383611e9b565b5050565b6000610cf061086c565b8210610cfb57600080fd5b6007805483908110610d0957fe5b90600052602060002001549050919050565b610d23612773565b600e805483908110610d3157fe5b9060005260206000209060080201610100604051908101604052908160008201548152602001600182018054600181600116156101000203166002900480601f016020809104026020016040519081016040528092919081815260200182805460018160011615610100020316600290048015610def5780601f10610dc457610100808354040283529160200191610def565b820191906000526020600020905b815481529060010190602001808311610dd257829003601f168201915b5050509183525050600282810180546040805160206001841615610100026000190190931694909404601f81018390048302850183019091528084529381019390830182828015610e815780601f10610e5657610100808354040283529160200191610e81565b820191906000526020600020905b815481529060010190602001808311610e6457829003601f168201915b505050505081526020016003820154815260200160048201548152602001600582018054600181600116156101000203166002900480601f016020809104026020016040519081016040528092919081815260200182805460018160011615610100020316600290048015610f375780601f10610f0c57610100808354040283529160200191610f37565b820191906000526020600020905b815481529060010190602001808311610f1a57829003601f168201915b505050918352505060068201805460408051602060026001851615610100026000190190941693909304601f8101849004840282018401909252818152938201939291830182828015610fcb5780601f10610fa057610100808354040283529160200191610fcb565b820191906000526020600020905b815481529060010190602001808311610fae57829003601f168201915b505050918352505060078201805460408051602060026001851615610100026000190190941693909304601f810184900484028201840190925281815293820193929183018282801561105f5780601f106110345761010080835404028352916020019161105f565b820191906000526020600020905b81548152906001019060200180831161104257829003601f168201915b5050505050815250509050919050565b600081815260016020526040812054600160a060020a031680151561096257600080fd5b6000600160a060020a03821615156110aa57600080fd5b50600160a060020a031660009081526003602052604090205490565b6110ce6114ae565b15156110d957600080fd5b600c54604051600091600160a060020a0316907f8be0079c531659141344cd1fd0a4f28419497f9722a3daafe3b4186f6b6457e0908390a3600c805473ffffffffffffffffffffffffffffffffffffffff19169055565b600061113d848484610897565b9050600061114b82876119e8565b9050600160a060020a03811615156111785760405160e560020a62461bcd028152600401610bf290613649565b600160a060020a0381166000908152600f602052604090205483146111b25760405160e560020a62461bcd028152600401610bf290613639565b600160a060020a0381166000908152600f60205260409020805460010190556111dc818686611e7c565b505050505050565b600f6020526000908152604090205481565b6000308989898989898989604051602001808a600160a060020a0316600160a060020a03166c01000000000000000000000000028152601401807f6d6574615570646174654365727469666963617465000000000000000000000081525060150189815260200188805190602001908083835b602083106112885780518252601f199092019160209182019101611269565b51815160209384036101000a60001901801990921691161790528a5191909301928a0191508083835b602083106112d05780518252601f1990920191602091820191016112b1565b51815160209384036101000a60001901801990921691161790529201888152875190830192880191508083835b6020831061131c5780518252601f1990920191602091820191016112fd565b51815160209384036101000a600019018019909216911617905287519190930192870191508083835b602083106113645780518252601f199092019160209182019101611345565b51815160209384036101000a600019018019909216911617905286519190930192860191508083835b602083106113ac5780518252601f19909201916020918201910161138d565b51815160001960209485036101000a0190811690199190911617905292019384525060408051808503815293820190528251920191909120995050505050505050505098975050505050505050565b60408051306c010000000000000000000000009081026020808401919091527f6d657461536574417070726f76616c466f72416c6c00000000000000000000006034840152600160a060020a03969096160260498201529215157f010000000000000000000000000000000000000000000000000000000000000002605d840152605e8084019290925280518084039092018252607e909201909152805191012090565b600c54600160a060020a031690565b600c54600160a060020a0316331490565b60006114cb8383610968565b905060006114d982866119e8565b9050600160a060020a03811615156115065760405160e560020a62461bcd028152600401610bf290613649565b600160a060020a0381166000908152600f602052604090205483146115405760405160e560020a62461bcd028152600401610bf290613639565b600160a060020a0381166000908152600f60205260409020805460010190556115698185611b38565b5050505050565b600a8054604080516020601f600260001961010060018816150201909516949094049384018190048102820181019092528281526060939092909183018282801561075b5780601f106107305761010080835404028352916020019161075b565b600d54600160a060020a031681565b60006115ed848484611711565b905060006115fb82876119e8565b9050600160a060020a03811615156116285760405160e560020a62461bcd028152600401610bf290613649565b600160a060020a0381166000908152600f602052604090205483146116625760405160e560020a62461bcd028152600401610bf290613639565b600160a060020a0381166000908152600f60205260409020805460010190556111dc818686611e9b565b600160a060020a0382163314156116a257600080fd5b336000818152600460209081526040808320600160a060020a038716808552925291829020805460ff191685151517905590519091907f17307eab39ab6107e8899845ad3d59bd9653f200f220920489ca2b5937696c31906117059085906135dc565b60405180910390a35050565b6000308484846040516020018085600160a060020a0316600160a060020a03166c01000000000000000000000000028152601401807f6d6574615570646174654365727469666963617465446174610000000000000081525060190184815260200183805190602001908083835b6020831061179e5780518252601f19909201916020918201910161177f565b51815160209384036101000a60001901801990921691161790529201938452506040805180850381529382019052825192019190912098975050505050505050565b600081565b6117f0848484610872565b6117fc84848484611f0b565b151561180757600080fd5b50505050565b61181d3388888888888888612019565b50505050505050565b606061183182611b1b565b151561183c57600080fd5b6000828152600b602090815260409182902080548351601f6002600019610100600186161502019093169290920491820184900484028101840190945280845290918301828280156118cf5780601f106118a4576101008083540402835291602001916118cf565b820191906000526020600020905b8154815290600101906020018083116118b257829003601f168201915b50505050509050919050565b60006118ed89898989898989896111f6565b905060006118fb828c6119e8565b9050600160a060020a03811615156119285760405160e560020a62461bcd028152600401610bf290613649565b600160a060020a0381166000908152600f602052604090205483146119625760405160e560020a62461bcd028152600401610bf290613639565b600160a060020a0381166000908152600f6020526040902080546001019055611991818b8b8b8b8b8b8b612019565b5050505050505050505050565b600160a060020a03918216600090815260046020908152604080832093909416825291909152205460ff1690565b6119d46114ae565b15156119df57600080fd5b6108698161230c565b60008060008084516041141515611a055760009350505050610962565b50505060208201516040830151606084015160001a601b60ff82161015611a2a57601b015b8060ff16601b14158015611a4257508060ff16601c14155b15611a535760009350505050610962565b60018660405160200180807f19457468657265756d205369676e6564204d6573736167653a0a333200000000815250601c018281526020019150506040516020818303038152906040528051906020012082858560405160008152602001604052604051808581526020018460ff1660ff1681526020018381526020018281526020019450505050506020604051602081039080840390855afa158015611afe573d6000803e3d6000fd5b505050602060405103519350505050610962565b50505092915050565b600090815260016020526040902054600160a060020a0316151590565b600d546040517fdd62ed3e000000000000000000000000000000000000000000000000000000008152600160a060020a0390911690600090829063dd62ed3e90611b889087903090600401613599565b60206040518083038186803b158015611ba057600080fd5b505afa158015611bb4573d6000803e3d6000fd5b505050506040513d601f19601f82011682018060405250611bd89190810190613044565b1015611bf95760405160e560020a62461bcd028152600401610bf290613619565b6040517f23b872dd000000000000000000000000000000000000000000000000000000008152600160a060020a038216906323b872dd90611c4390869030906000906004016135b4565b602060405180830381600087803b158015611c5d57600080fd5b505af1158015611c71573d6000803e3d6000fd5b505050506040513d601f19601f82011682018060405250611c959190810190612c2b565b1515611cb65760405160e560020a62461bcd028152600401610bf290613609565b6040805161010081018252835181526020808501518183019081528584015193830193909352606080860151908301526080808601519083015260a0808601519083015260c0808601519083015260e08086015190830152600e805460018181018084556000938452855160089093027fbb7b4a454dc3493923482f07822329ed19e8244eff582cc204f8554c3620c3fd8101938455965180519497929691959194611d89937fbb7b4a454dc3493923482f07822329ed19e8244eff582cc204f8554c3620c3fe019291909101906127b9565b5060408201518051611da59160028401916020909101906127b9565b50606082015160038201556080820151600482015560a08201518051611dd59160058401916020909101906127b9565b5060c08201518051611df19160068401916020909101906127b9565b5060e08201518051611e0d9160078401916020909101906127b9565b505050039050611807848261238a565b600080611e298361106f565b905080600160a060020a031684600160a060020a03161480611e64575083600160a060020a0316611e5984610766565b600160a060020a0316145b80611e745750611e74818561199e565b949350505050565b611e878383836123a7565b611e9183826124c5565b61089282826125b5565b82600160a060020a0316611eae8361106f565b600160a060020a031614611ed75760405160e560020a62461bcd028152600401610bf290613629565b80600e83815481101515611ee757fe5b906000526020600020906008020160070190805190602001906118079291906127b9565b6000611f1f84600160a060020a03166125f3565b1515611f2d57506001611e74565b6040517f150b7a02000000000000000000000000000000000000000000000000000000008152600090600160a060020a0386169063150b7a0290611f7b9033908a9089908990600401613555565b602060405180830381600087803b158015611f9557600080fd5b505af1158015611fa9573d6000803e3d6000fd5b505050506040513d601f19601f82011682018060405250611fcd9190810190612caf565b7bffffffffffffffffffffffffffffffffffffffffffffffffffffffff19167f150b7a020000000000000000000000000000000000000000000000000000000014915050949350505050565b600d546040517fdd62ed3e000000000000000000000000000000000000000000000000000000008152600160a060020a0390911690600090829063dd62ed3e90612069908d903090600401613599565b60206040518083038186803b15801561208157600080fd5b505afa158015612095573d6000803e3d6000fd5b505050506040513d601f19601f820116820180604052506120b99190810190613044565b10156120da5760405160e560020a62461bcd028152600401610bf290613619565b6040517f23b872dd000000000000000000000000000000000000000000000000000000008152600160a060020a038216906323b872dd90612124908c9030906000906004016135b4565b602060405180830381600087803b15801561213e57600080fd5b505af1158015612152573d6000803e3d6000fd5b505050506040513d601f19601f820116820180604052506121769190810190612c2b565b15156121975760405160e560020a62461bcd028152600401610bf290613609565b88600160a060020a03166121aa8961106f565b600160a060020a0316146121d35760405160e560020a62461bcd028152600401610bf290613629565b86600e898154811015156121e357fe5b906000526020600020906008020160010190805190602001906122079291906127b9565b5085600e8981548110151561221857fe5b9060005260206000209060080201600201908051906020019061223c9291906127b9565b5084600e8981548110151561224d57fe5b90600052602060002090600802016003018190555083600e8981548110151561227257fe5b906000526020600020906008020160050190805190602001906122969291906127b9565b5082600e898154811015156122a757fe5b906000526020600020906008020160060190805190602001906122cb9291906127b9565b5081600e898154811015156122dc57fe5b906000526020600020906008020160070190805190602001906123009291906127b9565b50505050505050505050565b600160a060020a038116151561232157600080fd5b600c54604051600160a060020a038084169216907f8be0079c531659141344cd1fd0a4f28419497f9722a3daafe3b4186f6b6457e090600090a3600c805473ffffffffffffffffffffffffffffffffffffffff1916600160a060020a0392909216919091179055565b61239482826125fb565b61239e82826125b5565b610ce2816126c0565b82600160a060020a03166123ba8261106f565b600160a060020a0316146123cd57600080fd5b600160a060020a03821615156123e257600080fd5b6123eb81612704565b600160a060020a03831660009081526003602052604090205461241590600163ffffffff61274c16565b600160a060020a03808516600090815260036020526040808220939093559084168152205461244b90600163ffffffff61276116565b600160a060020a0380841660008181526003602090815260408083209590955585825260019052839020805473ffffffffffffffffffffffffffffffffffffffff1916821790559151908516907fddf252ad1be2c89b69c2b068fc378daa952ba7f163c4a11628f55a4df523b3ef906108529085906135ea565b600160a060020a0382166000908152600560205260408120546124ef90600163ffffffff61274c16565b60008381526006602052604090205490915080821461258c57600160a060020a038416600090815260056020526040812080548490811061252c57fe5b90600052602060002001549050806005600087600160a060020a0316600160a060020a031681526020019081526020016000208381548110151561256c57fe5b600091825260208083209091019290925591825260069052604090208190555b600160a060020a0384166000908152600560205260409020805490611569906000198301612837565b600160a060020a0390911660009081526005602081815260408084208054868652600684529185208290559282526001810183559183529091200155565b6000903b1190565b600160a060020a038216151561261057600080fd5b61261981611b1b565b1561262357600080fd5b6000818152600160208181526040808420805473ffffffffffffffffffffffffffffffffffffffff1916600160a060020a038816908117909155845260039091529091205461267191612761565b600160a060020a0383166000818152600360205260408082209390935591519091907fddf252ad1be2c89b69c2b068fc378daa952ba7f163c4a11628f55a4df523b3ef906117059085906135ea565b600780546000838152600860205260408120829055600182018355919091527fa66cc928b5edb82af9bd49922954155ab7b0942694bea4ce44661d9a8736c6880155565b600081815260026020526040902054600160a060020a031615610869576000908152600260205260409020805473ffffffffffffffffffffffffffffffffffffffff19169055565b60008282111561275b57600080fd5b50900390565b60008282018381101561091357600080fd5b6101006040519081016040528060008152602001606081526020016060815260200160008152602001600081526020016060815260200160608152602001606081525090565b828054600181600116156101000203166002900490600052602060002090601f016020900481019282601f106127fa57805160ff1916838001178555612827565b82800160010185558215612827579182015b8281111561282757825182559160200191906001019061280c565b50612833929150612857565b5090565b815481835581811115610892576000838152602090206108929181019083015b61076391905b80821115612833576000815560010161285d565b600061091382356136bd565b600061091382356136c8565b600061091382516136c8565b60006109138235610763565b600061091382356136d9565b600061091382516136d9565b6000601f820183136128ca57600080fd5b81356128dd6128d882613691565b61366a565b915080825260208301602083018583830111156128f957600080fd5b611b1283828461370c565b6000610100828403121561291757600080fd5b61292261010061366a565b905060006129308484612895565b825250602082013567ffffffffffffffff81111561294d57600080fd5b612959848285016128b9565b602083015250604082013567ffffffffffffffff81111561297957600080fd5b612985848285016128b9565b604083015250606061299984828501612895565b60608301525060806129ad84828501612895565b60808301525060a082013567ffffffffffffffff8111156129cd57600080fd5b6129d9848285016128b9565b60a08301525060c082013567ffffffffffffffff8111156129f957600080fd5b612a05848285016128b9565b60c08301525060e082013567ffffffffffffffff811115612a2557600080fd5b612a31848285016128b9565b60e08301525092915050565b60006109138251610763565b600060208284031215612a5b57600080fd5b6000611e748484612871565b60008060408385031215612a7a57600080fd5b6000612a868585612871565b9250506020612a9785828601612871565b9150509250929050565b600080600060608486031215612ab657600080fd5b6000612ac28686612871565b9350506020612ad386828701612871565b9250506040612ae486828701612895565b9150509250925092565b60008060008060808587031215612b0457600080fd5b6000612b108787612871565b9450506020612b2187828801612871565b9350506040612b3287828801612895565b925050606085013567ffffffffffffffff811115612b4f57600080fd5b612b5b878288016128b9565b91505092959194509250565b60008060408385031215612b7a57600080fd5b6000612b868585612871565b9250506020612a978582860161287d565b600080600060608486031215612bac57600080fd5b6000612bb88686612871565b9350506020612ad38682870161287d565b60008060408385031215612bdc57600080fd5b6000612be88585612871565b9250506020612a9785828601612895565b600080600060608486031215612c0e57600080fd5b6000612c1a8686612871565b9350506020612ad386828701612895565b600060208284031215612c3d57600080fd5b6000611e748484612889565b60008060408385031215612c5c57600080fd5b6000612c688585612895565b925050602083013567ffffffffffffffff811115612c8557600080fd5b612a97858286016128b9565b600060208284031215612ca357600080fd5b6000611e7484846128a1565b600060208284031215612cc157600080fd5b6000611e7484846128ad565b60008060008060808587031215612ce357600080fd5b843567ffffffffffffffff811115612cfa57600080fd5b612d06878288016128b9565b9450506020612d1787828801612871565b9350506040612d288782880161287d565b9250506060612b5b87828801612895565b60008060008060808587031215612d4f57600080fd5b843567ffffffffffffffff811115612d6657600080fd5b612d72878288016128b9565b9450506020612d8387828801612871565b9350506040612d2887828801612895565b600080600060608486031215612da957600080fd5b833567ffffffffffffffff811115612dc057600080fd5b612dcc868287016128b9565b935050602084013567ffffffffffffffff811115612de957600080fd5b612ad386828701612904565b60008060008060008060008060006101208a8c031215612e1457600080fd5b893567ffffffffffffffff811115612e2b57600080fd5b612e378c828d016128b9565b9950506020612e488c828d01612895565b98505060408a013567ffffffffffffffff811115612e6557600080fd5b612e718c828d016128b9565b97505060608a013567ffffffffffffffff811115612e8e57600080fd5b612e9a8c828d016128b9565b9650506080612eab8c828d01612895565b95505060a08a013567ffffffffffffffff811115612ec857600080fd5b612ed48c828d016128b9565b94505060c08a013567ffffffffffffffff811115612ef157600080fd5b612efd8c828d016128b9565b93505060e08a013567ffffffffffffffff811115612f1a57600080fd5b612f268c828d016128b9565b925050610100612f388c828d01612895565b9150509295985092959850929598565b60008060008060808587031215612f5e57600080fd5b843567ffffffffffffffff811115612f7557600080fd5b612f81878288016128b9565b9450506020612f9287828801612895565b935050604085013567ffffffffffffffff811115612faf57600080fd5b612d28878288016128b9565b600060208284031215612fcd57600080fd5b813567ffffffffffffffff811115612fe457600080fd5b611e7484828501612904565b6000806040838503121561300357600080fd5b823567ffffffffffffffff81111561301a57600080fd5b612be885828601612904565b60006020828403121561303857600080fd5b6000611e748484612895565b60006020828403121561305657600080fd5b6000611e748484612a3d565b600080600080600080600060e0888a03121561307d57600080fd5b60006130898a8a612895565b975050602088013567ffffffffffffffff8111156130a657600080fd5b6130b28a828b016128b9565b965050604088013567ffffffffffffffff8111156130cf57600080fd5b6130db8a828b016128b9565b95505060606130ec8a828b01612895565b945050608088013567ffffffffffffffff81111561310957600080fd5b6131158a828b016128b9565b93505060a088013567ffffffffffffffff81111561313257600080fd5b61313e8a828b016128b9565b92505060c088013567ffffffffffffffff81111561315b57600080fd5b6131678a828b016128b9565b91505092959891949750929550565b600080600080600080600080610100898b03121561319357600080fd5b600061319f8b8b612895565b985050602089013567ffffffffffffffff8111156131bc57600080fd5b6131c88b828c016128b9565b975050604089013567ffffffffffffffff8111156131e557600080fd5b6131f18b828c016128b9565b96505060606132028b828c01612895565b955050608089013567ffffffffffffffff81111561321f57600080fd5b61322b8b828c016128b9565b94505060a089013567ffffffffffffffff81111561324857600080fd5b6132548b828c016128b9565b93505060c089013567ffffffffffffffff81111561327157600080fd5b61327d8b828c016128b9565b92505060e061328e8b828c01612895565b9150509295985092959890939650565b6000806000606084860312156132b357600080fd5b60006132bf8686612895565b935050602084013567ffffffffffffffff8111156132dc57600080fd5b612ad3868287016128b9565b6132f1816136fb565b82525050565b6132f1816136bd565b6132f1816136c8565b6132f181610763565b600061331d826136b9565b808452613331816020860160208601613718565b61333a81613744565b9093016020019392505050565b600f81527f5472616e73666572206661696c65640000000000000000000000000000000000602082015260400190565b603281527f436f6e7472616374206973206e6f7420616c6c6f77656420746f206d616e697060208201527f756c6174652073656e6465722066756e64730000000000000000000000000000604082015260600190565b603081527f4365727469666963617465732063616e206f6e6c79206265207570646174656460208201527f206279207468656972206f776e65727300000000000000000000000000000000604082015260600190565b601081527f4e6f6e636520697320696e76616c696400000000000000000000000000000000602082015260400190565b601181527f43616e6e6f7420676574207369676e6572000000000000000000000000000000602082015260400190565b80516000906101008401906134988582613309565b50602083015184820360208601526134b08282613312565b915050604083015184820360408601526134ca8282613312565b91505060608301516134df6060860182613309565b5060808301516134f26080860182613309565b5060a083015184820360a086015261350a8282613312565b91505060c083015184820360c08601526135248282613312565b91505060e083015184820360e086015261353e8282613312565b95945050505050565b6020810161096282846132f7565b6080810161356382876132e8565b61357060208301866132f7565b61357d6040830185613309565b818103606083015261358f8184613312565b9695505050505050565b604081016135a782856132f7565b61091360208301846132f7565b606081016135c282866132f7565b6135cf60208301856132f7565b611e746040830184613309565b602081016109628284613300565b602081016109628284613309565b602080825281016109138184613312565b6020808252810161096281613347565b6020808252810161096281613377565b60208082528101610962816133cd565b6020808252810161096281613423565b6020808252810161096281613453565b602080825281016109138184613483565b60405181810167ffffffffffffffff8111828210171561368957600080fd5b604052919050565b600067ffffffffffffffff8211156136a857600080fd5b506020601f91909101601f19160190565b5190565b6000610962826136cd565b151590565b600160a060020a031690565b7bffffffffffffffffffffffffffffffffffffffffffffffffffffffff191690565b6000610962826000610962826136bd565b82818337506000910152565b60005b8381101561373357818101518382015260200161371b565b838111156118075750506000910152565b601f01601f19169056fea265627a7a72305820c083e0a8cb1cb2c8bae3aeabc235254164d72a9ef603b895deb000509e98230d6c6578706572696d656e74616cf50037",
  "source": "/* solhint-disable no-empty-blocks */\n\npragma solidity 0.5.0;\npragma experimental ABIEncoderV2;\n\nimport \"./COO.sol\";\n\n\n/**\n * @title Certificate of Ownership Meta Transactions\n * @dev This contract handles our meta-transactions\n */\ncontract MetaCOO is COO {\n    constructor(\n        address newTokenAddress\n    ) public COO(\n        newTokenAddress\n    ) {\n    }\n\n    mapping (address => uint256) public nonces;\n\n    function metaCreateCertificate(\n        bytes memory signature,\n        Certificate memory newCertificate,\n        uint256 nonce\n    ) public {\n        bytes32 hash = metaCreateCertificateHash(\n            newCertificate,\n            nonce\n        );\n\n        address signer = getSigner(hash, signature);\n\n        require(signer != address(0), \"Cannot get signer\");\n        require(nonce == nonces[signer], \"Nonce is invalid\");\n\n        nonces[signer] += 1;\n\n        _createCertificate(signer, newCertificate);\n    }\n\n    function metaUpdateCertificate(\n        bytes memory signature,\n        uint256 certificateId,\n        string memory name,\n        string memory label,\n        uint256 price,\n        string memory factomEntryHash,\n        string memory anotherEncryptionKey,\n        string memory data,\n        uint256 nonce\n    ) public {\n        bytes32 hash = metaUpdateCertificateHash(\n            certificateId,\n            name,\n            label,\n            price,\n            factomEntryHash,\n            anotherEncryptionKey,\n            data,\n            nonce\n        );\n\n        address signer = getSigner(hash, signature);\n\n        require(signer != address(0), \"Cannot get signer\");\n        require(nonce == nonces[signer], \"Nonce is invalid\");\n\n        nonces[signer] += 1;\n\n        _updateCertificate(\n            signer,\n            certificateId,\n            name,\n            label,\n            price,\n            factomEntryHash,\n            anotherEncryptionKey,\n            data\n        );\n    }\n\n    function metaUpdateCertificateData(\n        bytes memory signature,\n        uint256 certificateId,\n        string memory data,\n        uint256 nonce\n    ) public {\n        bytes32 hash = metaUpdateCertificateHash(\n            certificateId,\n            data,\n            nonce\n        );\n\n        address signer = getSigner(hash, signature);\n\n        require(signer != address(0), \"Cannot get signer\");\n        require(nonce == nonces[signer], \"Nonce is invalid\");\n\n        nonces[signer] += 1;\n\n        _updateCertificateData(\n            signer,\n            certificateId,\n            data\n        );\n    }\n\n    function metaTransfer(bytes memory signature, address to, uint256 tokenId, uint256 nonce) public {\n        bytes32 hash = metaTransferHash(to, tokenId, nonce);\n        address signer = getSigner(hash, signature);\n\n        require(signer != address(0), \"Cannot get signer\");\n        require(nonce == nonces[signer], \"Nonce is invalid\");\n\n        nonces[signer] += 1;\n\n        _transferFrom(signer, to, tokenId);\n    }\n\n    function metaSetApprovalForAll(bytes memory signature, address spender, bool approved, uint256 nonce) public {\n        bytes32 hash = metaSetApprovalForAllHash(spender, approved, nonce);\n        address signer = getSigner(hash, signature);\n\n        require(signer != address(0), \"Cannot get signer\");\n        require(nonce == nonces[signer], \"Nonce is invalid\");\n\n        nonces[signer] += 1;\n\n        require(spender != signer);\n\n        _operatorApprovals[signer][spender] = approved;\n        emit ApprovalForAll(signer, spender, approved);\n    }\n\n    function metaTransferHash(address to, uint256 tokenId, uint256 nonce) public view returns (bytes32) {\n        return keccak256(abi.encodePacked(address(this), \"metaTransfer\", to, tokenId, nonce));\n    }\n\n    function metaSetApprovalForAllHash(address spender, bool approved, uint256 nonce) public view returns (bytes32) {\n        return keccak256(abi.encodePacked(address(this), \"metaSetApprovalForAll\", spender, approved, nonce));\n    }\n\n    function metaCreateCertificateHash(\n        Certificate memory newCertificate,\n        uint256 nonce\n    ) public view returns (bytes32) {\n        return keccak256(abi.encodePacked(\n            address(this),\n            \"metaCreateCertificate\",\n            newCertificate.assetId,\n            newCertificate.name,\n            newCertificate.label,\n            newCertificate.price,\n            newCertificate.timestamp,\n            newCertificate.factomEntryHash,\n            newCertificate.anotherEncryptionKey,\n            newCertificate.data,\n            nonce\n        ));\n    }\n\n    function metaUpdateCertificateHash(\n        uint256 certificateId,\n        string memory name,\n        string memory label,\n        uint256 price,\n        string memory factomEntryHash,\n        string memory anotherEncryptionKey,\n        string memory data,\n        uint256 nonce\n    ) public view returns (bytes32) {\n        return keccak256(abi.encodePacked(\n            address(this),\n            \"metaUpdateCertificate\",\n            certificateId,\n            name,\n            label,\n            price,\n            factomEntryHash,\n            anotherEncryptionKey,\n            data,\n            nonce\n        ));\n    }\n\n    function metaUpdateCertificateHash(\n        uint256 certificateId,\n        string memory data,\n        uint256 nonce\n    ) public view returns (bytes32) {\n        return keccak256(abi.encodePacked(\n            address(this),\n            \"metaUpdateCertificateData\",\n            certificateId,\n            data,\n            nonce\n        ));\n    }\n\n    /**\n     * @dev Gets the signer of an hash using the signature\n     * @param hash The hash to check\n     * @param signature The signature to use\n     * @return The address of the signer or 0x0 address is something went wrong\n     */\n    function getSigner(bytes32 hash, bytes memory signature) public pure returns (address) {\n        bytes32 r;\n        bytes32 s;\n        uint8 v;\n\n        if (signature.length != 65) {\n            return address(0);\n        }\n\n        /* solhint-disable-next-line no-inline-assembly */\n        assembly {\n            r := mload(add(signature, 32))\n            s := mload(add(signature, 64))\n            v := byte(0, mload(add(signature, 96)))\n        }\n\n        if (v < 27) {\n            v += 27;\n        }\n\n        if (v != 27 && v != 28) {\n            return address(0);\n        } else {\n            return ecrecover(keccak256(\n                abi.encodePacked(\"\\x19Ethereum Signed Message:\\n32\", hash)\n            ), v, r, s);\n        }\n    }\n}\n",
  "sourcePath": "/Users/clement/Documents/Dev/herc/COO/COO/contracts/MetaCOO.sol",
  "compiler": {
    "name": "solc",
    "version": "0.5.0+commit.1d4f565a.Emscripten.clang"
  },
  "schemaVersion": "3.0.1",
  "updatedAt": "2019-02-25T13:35:07.512Z",
  "devdoc": {
    "details": "This contract handles our meta-transactions",
    "methods": {
      "approve(address,uint256)": {
        "details": "Approves another address to transfer the given token ID The zero address indicates there is no approved address. There can only be one approved address per token at a given time. Can only be called by the token owner or an approved operator.",
        "params": {
          "to": "address to be approved for the given token ID",
          "tokenId": "uint256 ID of the token to be approved"
        }
      },
      "balanceOf(address)": {
        "details": "Gets the balance of the specified address",
        "params": {
          "owner": "address to query the balance of"
        },
        "return": "uint256 representing the amount owned by the passed address"
      },
      "getApproved(uint256)": {
        "details": "Gets the approved address for a token ID, or zero if no address set Reverts if the token ID does not exist.",
        "params": {
          "tokenId": "uint256 ID of the token to query the approval of"
        },
        "return": "address currently approved for the given token ID"
      },
      "getCertificate(uint256)": {
        "details": "Gets a certificate and the related information, can only be called by the certificate owner",
        "params": {
          "certificateId": "The id of a certificate"
        },
        "return": "The required certificate"
      },
      "getSigner(bytes32,bytes)": {
        "details": "Gets the signer of an hash using the signature",
        "params": {
          "hash": "The hash to check",
          "signature": "The signature to use"
        },
        "return": "The address of the signer or 0x0 address is something went wrong"
      },
      "isApprovedForAll(address,address)": {
        "details": "Tells whether an operator is approved by a given owner",
        "params": {
          "operator": "operator address which you want to query the approval of",
          "owner": "owner address which you want to query the approval of"
        },
        "return": "bool whether the given operator is approved by the given owner"
      },
      "isOwner()": {
        "return": "true if `msg.sender` is the owner of the contract."
      },
      "name()": {
        "details": "Gets the token name",
        "return": "string representing the token name"
      },
      "owner()": {
        "return": "the address of the owner."
      },
      "ownerOf(uint256)": {
        "details": "Gets the owner of the specified token ID",
        "params": {
          "tokenId": "uint256 ID of the token to query the owner of"
        },
        "return": "owner address currently marked as the owner of the given token ID"
      },
      "renounceOwnership()": {
        "details": "Allows the current owner to relinquish control of the contract."
      },
      "safeTransferFrom(address,address,uint256)": {
        "details": "Safely transfers the ownership of a given token ID to another address If the target address is a contract, it must implement `onERC721Received`, which is called upon a safe transfer, and return the magic value `bytes4(keccak256(\"onERC721Received(address,address,uint256,bytes)\"))`; otherwise, the transfer is reverted.     * Requires the msg sender to be the owner, approved, or operator",
        "params": {
          "from": "current owner of the token",
          "to": "address to receive the ownership of the given token ID",
          "tokenId": "uint256 ID of the token to be transferred"
        }
      },
      "safeTransferFrom(address,address,uint256,bytes)": {
        "details": "Safely transfers the ownership of a given token ID to another address If the target address is a contract, it must implement `onERC721Received`, which is called upon a safe transfer, and return the magic value `bytes4(keccak256(\"onERC721Received(address,address,uint256,bytes)\"))`; otherwise, the transfer is reverted. Requires the msg sender to be the owner, approved, or operator",
        "params": {
          "_data": "bytes data to send along with a safe transfer check",
          "from": "current owner of the token",
          "to": "address to receive the ownership of the given token ID",
          "tokenId": "uint256 ID of the token to be transferred"
        }
      },
      "setApprovalForAll(address,bool)": {
        "details": "Sets or unsets the approval of a given operator An operator is allowed to transfer all tokens of the sender on their behalf",
        "params": {
          "approved": "representing the status of the approval to be set",
          "to": "operator address to set the approval"
        }
      },
      "supportsInterface(bytes4)": {
        "details": "implement supportsInterface(bytes4) using a lookup table"
      },
      "symbol()": {
        "details": "Gets the token symbol",
        "return": "string representing the token symbol"
      },
      "tokenByIndex(uint256)": {
        "details": "Gets the token ID at a given index of all the tokens in this contract Reverts if the index is greater or equal to the total number of tokens",
        "params": {
          "index": "uint256 representing the index to be accessed of the tokens list"
        },
        "return": "uint256 token ID at the given index of the tokens list"
      },
      "tokenOfOwnerByIndex(address,uint256)": {
        "details": "Gets the token ID at a given index of the tokens list of the requested owner",
        "params": {
          "index": "uint256 representing the index to be accessed of the requested tokens list",
          "owner": "address owning the tokens list to be accessed"
        },
        "return": "uint256 token ID at the given index of the tokens list owned by the requested address"
      },
      "tokenURI(uint256)": {
        "details": "Returns an URI for a given token ID Throws if the token ID does not exist. May return an empty string.",
        "params": {
          "tokenId": "uint256 ID of the token to query"
        }
      },
      "totalSupply()": {
        "details": "Gets the total amount of tokens stored by the contract",
        "return": "uint256 representing the total amount of tokens"
      },
      "transferFrom(address,address,uint256)": {
        "details": "Transfers the ownership of a given token ID to another address Usage of this method is discouraged, use `safeTransferFrom` whenever possible Requires the msg sender to be the owner, approved, or operator",
        "params": {
          "from": "current owner of the token",
          "to": "address to receive the ownership of the given token ID",
          "tokenId": "uint256 ID of the token to be transferred"
        }
      },
      "transferOwnership(address)": {
        "details": "Allows the current owner to transfer control of the contract to a newOwner.",
        "params": {
          "newOwner": "The address to transfer ownership to."
        }
      }
    },
    "title": "Certificate of Ownership Meta Transactions"
  },
  "userdoc": {
    "methods": {
      "renounceOwnership()": {
        "notice": "Renouncing to ownership will leave the contract without an owner. It will not be possible to call the functions with the `onlyOwner` modifier anymore."
      }
    }
  }
}