{
  "contractName": "MetaMarketplace",
  "abi": [
    {
      "constant": true,
      "inputs": [],
      "name": "getSales",
      "outputs": [
        {
          "components": [
            {
              "name": "price",
              "type": "uint256"
            },
            {
              "name": "certificateId",
              "type": "uint256"
            },
            {
              "name": "expiresAt",
              "type": "uint256"
            },
            {
              "name": "status",
              "type": "uint8"
            },
            {
              "name": "seller",
              "type": "address"
            },
            {
              "name": "buyer",
              "type": "address"
            }
          ],
          "name": "",
          "type": "tuple[]"
        }
      ],
      "payable": false,
      "stateMutability": "view",
      "type": "function",
      "signature": "0x0d83304c"
    },
    {
      "constant": true,
      "inputs": [
        {
          "name": "",
          "type": "address"
        },
        {
          "name": "",
          "type": "uint256"
        }
      ],
      "name": "auctionsToSellers",
      "outputs": [
        {
          "name": "",
          "type": "uint256"
        }
      ],
      "payable": false,
      "stateMutability": "view",
      "type": "function",
      "signature": "0x1505a2ba"
    },
    {
      "constant": false,
      "inputs": [
        {
          "name": "auctionId",
          "type": "uint256"
        }
      ],
      "name": "completeAuction",
      "outputs": [],
      "payable": false,
      "stateMutability": "nonpayable",
      "type": "function",
      "signature": "0x21b62886"
    },
    {
      "constant": false,
      "inputs": [
        {
          "name": "auctionId",
          "type": "uint256"
        },
        {
          "name": "amount",
          "type": "uint256"
        }
      ],
      "name": "executeAuction",
      "outputs": [],
      "payable": false,
      "stateMutability": "nonpayable",
      "type": "function",
      "signature": "0x25d377f7"
    },
    {
      "constant": false,
      "inputs": [],
      "name": "unpause",
      "outputs": [],
      "payable": false,
      "stateMutability": "nonpayable",
      "type": "function",
      "signature": "0x3f4ba83a"
    },
    {
      "constant": true,
      "inputs": [],
      "name": "cooContractAddress",
      "outputs": [
        {
          "name": "",
          "type": "address"
        }
      ],
      "payable": false,
      "stateMutability": "view",
      "type": "function",
      "signature": "0x3fd73340"
    },
    {
      "constant": true,
      "inputs": [
        {
          "name": "account",
          "type": "address"
        }
      ],
      "name": "isPauser",
      "outputs": [
        {
          "name": "",
          "type": "bool"
        }
      ],
      "payable": false,
      "stateMutability": "view",
      "type": "function",
      "signature": "0x46fbf68e"
    },
    {
      "constant": true,
      "inputs": [
        {
          "name": "",
          "type": "uint256"
        }
      ],
      "name": "auctions",
      "outputs": [
        {
          "name": "status",
          "type": "uint8"
        },
        {
          "name": "seller",
          "type": "address"
        },
        {
          "name": "buyer",
          "type": "address"
        },
        {
          "name": "startingPrice",
          "type": "uint256"
        },
        {
          "name": "currentBid",
          "type": "uint256"
        },
        {
          "name": "certificateId",
          "type": "uint256"
        },
        {
          "name": "expiresAt",
          "type": "uint256"
        }
      ],
      "payable": false,
      "stateMutability": "view",
      "type": "function",
      "signature": "0x571a26a0"
    },
    {
      "constant": true,
      "inputs": [],
      "name": "paused",
      "outputs": [
        {
          "name": "",
          "type": "bool"
        }
      ],
      "payable": false,
      "stateMutability": "view",
      "type": "function",
      "signature": "0x5c975abb"
    },
    {
      "constant": false,
      "inputs": [
        {
          "name": "certificateId",
          "type": "uint256"
        },
        {
          "name": "price",
          "type": "uint256"
        },
        {
          "name": "expiresAt",
          "type": "uint256"
        }
      ],
      "name": "createSale",
      "outputs": [],
      "payable": false,
      "stateMutability": "nonpayable",
      "type": "function",
      "signature": "0x6c1909ed"
    },
    {
      "constant": false,
      "inputs": [],
      "name": "renouncePauser",
      "outputs": [],
      "payable": false,
      "stateMutability": "nonpayable",
      "type": "function",
      "signature": "0x6ef8d66d"
    },
    {
      "constant": false,
      "inputs": [],
      "name": "renounceOwnership",
      "outputs": [],
      "payable": false,
      "stateMutability": "nonpayable",
      "type": "function",
      "signature": "0x715018a6"
    },
    {
      "constant": true,
      "inputs": [
        {
          "name": "",
          "type": "address"
        }
      ],
      "name": "nonces",
      "outputs": [
        {
          "name": "",
          "type": "uint256"
        }
      ],
      "payable": false,
      "stateMutability": "view",
      "type": "function",
      "signature": "0x7ecebe00"
    },
    {
      "constant": true,
      "inputs": [
        {
          "name": "",
          "type": "address"
        },
        {
          "name": "",
          "type": "uint256"
        }
      ],
      "name": "salesToSellers",
      "outputs": [
        {
          "name": "",
          "type": "uint256"
        }
      ],
      "payable": false,
      "stateMutability": "view",
      "type": "function",
      "signature": "0x81839fa8"
    },
    {
      "constant": false,
      "inputs": [
        {
          "name": "account",
          "type": "address"
        }
      ],
      "name": "addPauser",
      "outputs": [],
      "payable": false,
      "stateMutability": "nonpayable",
      "type": "function",
      "signature": "0x82dc1ec4"
    },
    {
      "constant": true,
      "inputs": [],
      "name": "tokenContractAddress",
      "outputs": [
        {
          "name": "",
          "type": "address"
        }
      ],
      "payable": false,
      "stateMutability": "view",
      "type": "function",
      "signature": "0x82edaf94"
    },
    {
      "constant": false,
      "inputs": [],
      "name": "pause",
      "outputs": [],
      "payable": false,
      "stateMutability": "nonpayable",
      "type": "function",
      "signature": "0x8456cb59"
    },
    {
      "constant": true,
      "inputs": [],
      "name": "owner",
      "outputs": [
        {
          "name": "",
          "type": "address"
        }
      ],
      "payable": false,
      "stateMutability": "view",
      "type": "function",
      "signature": "0x8da5cb5b"
    },
    {
      "constant": true,
      "inputs": [],
      "name": "isOwner",
      "outputs": [
        {
          "name": "",
          "type": "bool"
        }
      ],
      "payable": false,
      "stateMutability": "view",
      "type": "function",
      "signature": "0x8f32d59b"
    },
    {
      "constant": false,
      "inputs": [
        {
          "name": "auctionId",
          "type": "uint256"
        }
      ],
      "name": "cancelAuction",
      "outputs": [],
      "payable": false,
      "stateMutability": "nonpayable",
      "type": "function",
      "signature": "0x96b5a755"
    },
    {
      "constant": false,
      "inputs": [
        {
          "name": "saleId",
          "type": "uint256"
        }
      ],
      "name": "executeSale",
      "outputs": [],
      "payable": false,
      "stateMutability": "nonpayable",
      "type": "function",
      "signature": "0x9b1225c4"
    },
    {
      "constant": false,
      "inputs": [
        {
          "name": "newCooContractAddress",
          "type": "address"
        }
      ],
      "name": "setCooContractAddress",
      "outputs": [],
      "payable": false,
      "stateMutability": "nonpayable",
      "type": "function",
      "signature": "0xa8561885"
    },
    {
      "constant": false,
      "inputs": [
        {
          "name": "newTokenContractAddress",
          "type": "address"
        }
      ],
      "name": "setTokenContractAddress",
      "outputs": [],
      "payable": false,
      "stateMutability": "nonpayable",
      "type": "function",
      "signature": "0xb23d4854"
    },
    {
      "constant": true,
      "inputs": [
        {
          "name": "",
          "type": "uint256"
        }
      ],
      "name": "sales",
      "outputs": [
        {
          "name": "price",
          "type": "uint256"
        },
        {
          "name": "certificateId",
          "type": "uint256"
        },
        {
          "name": "expiresAt",
          "type": "uint256"
        },
        {
          "name": "status",
          "type": "uint8"
        },
        {
          "name": "seller",
          "type": "address"
        },
        {
          "name": "buyer",
          "type": "address"
        }
      ],
      "payable": false,
      "stateMutability": "view",
      "type": "function",
      "signature": "0xb5f522f7"
    },
    {
      "constant": false,
      "inputs": [
        {
          "name": "saleId",
          "type": "uint256"
        }
      ],
      "name": "cancelSale",
      "outputs": [],
      "payable": false,
      "stateMutability": "nonpayable",
      "type": "function",
      "signature": "0xbd94b005"
    },
    {
      "constant": false,
      "inputs": [
        {
          "name": "certificateId",
          "type": "uint256"
        },
        {
          "name": "startingPrice",
          "type": "uint256"
        },
        {
          "name": "expiresAt",
          "type": "uint256"
        }
      ],
      "name": "createAuction",
      "outputs": [],
      "payable": false,
      "stateMutability": "nonpayable",
      "type": "function",
      "signature": "0xcda4beef"
    },
    {
      "constant": true,
      "inputs": [
        {
          "name": "",
          "type": "address"
        },
        {
          "name": "",
          "type": "uint256"
        }
      ],
      "name": "auctionsToBuyers",
      "outputs": [
        {
          "name": "",
          "type": "uint256"
        }
      ],
      "payable": false,
      "stateMutability": "view",
      "type": "function",
      "signature": "0xd74a5701"
    },
    {
      "constant": true,
      "inputs": [],
      "name": "getAuctions",
      "outputs": [
        {
          "components": [
            {
              "name": "status",
              "type": "uint8"
            },
            {
              "name": "seller",
              "type": "address"
            },
            {
              "name": "buyer",
              "type": "address"
            },
            {
              "name": "startingPrice",
              "type": "uint256"
            },
            {
              "name": "currentBid",
              "type": "uint256"
            },
            {
              "name": "certificateId",
              "type": "uint256"
            },
            {
              "name": "expiresAt",
              "type": "uint256"
            }
          ],
          "name": "",
          "type": "tuple[]"
        }
      ],
      "payable": false,
      "stateMutability": "view",
      "type": "function",
      "signature": "0xd7c06919"
    },
    {
      "constant": true,
      "inputs": [
        {
          "name": "",
          "type": "address"
        },
        {
          "name": "",
          "type": "uint256"
        }
      ],
      "name": "salesToBuyers",
      "outputs": [
        {
          "name": "",
          "type": "uint256"
        }
      ],
      "payable": false,
      "stateMutability": "view",
      "type": "function",
      "signature": "0xda71a271"
    },
    {
      "constant": false,
      "inputs": [
        {
          "name": "newOwner",
          "type": "address"
        }
      ],
      "name": "transferOwnership",
      "outputs": [],
      "payable": false,
      "stateMutability": "nonpayable",
      "type": "function",
      "signature": "0xf2fde38b"
    },
    {
      "inputs": [
        {
          "name": "initialTokenContractAddress",
          "type": "address"
        },
        {
          "name": "initialCooContractAddress",
          "type": "address"
        }
      ],
      "payable": false,
      "stateMutability": "nonpayable",
      "type": "constructor",
      "signature": "constructor"
    },
    {
      "anonymous": false,
      "inputs": [
        {
          "indexed": false,
          "name": "saleId",
          "type": "uint256"
        },
        {
          "indexed": true,
          "name": "seller",
          "type": "address"
        }
      ],
      "name": "SaleCreated",
      "type": "event",
      "signature": "0x02d62788b45b68a9eb64f42a2bae69c5b4a36218536465e038eab160c2b2aef2"
    },
    {
      "anonymous": false,
      "inputs": [
        {
          "indexed": false,
          "name": "saleId",
          "type": "uint256"
        },
        {
          "indexed": true,
          "name": "buyer",
          "type": "address"
        }
      ],
      "name": "SaleCompleted",
      "type": "event",
      "signature": "0x8262b86fecd9df80dbb59dce1f2d83b992fa5e477fca9b869af821ea565e673c"
    },
    {
      "anonymous": false,
      "inputs": [
        {
          "indexed": false,
          "name": "saleId",
          "type": "uint256"
        }
      ],
      "name": "SaleCanceled",
      "type": "event",
      "signature": "0xbc3d8540adfcf6600ea8f790c6ed415a6aa7a1219d45ecefc5bdff014348a8b0"
    },
    {
      "anonymous": false,
      "inputs": [
        {
          "indexed": false,
          "name": "auctionId",
          "type": "uint256"
        },
        {
          "indexed": true,
          "name": "seller",
          "type": "address"
        }
      ],
      "name": "AuctionCreated",
      "type": "event",
      "signature": "0x5d551e2a2cc977fd8c530317059b4f2d9f504fb82f7dfad736f8d56679bcdfd0"
    },
    {
      "anonymous": false,
      "inputs": [
        {
          "indexed": false,
          "name": "auctionId",
          "type": "uint256"
        },
        {
          "indexed": false,
          "name": "bidder",
          "type": "address"
        },
        {
          "indexed": false,
          "name": "currentBid",
          "type": "uint256"
        }
      ],
      "name": "NewBid",
      "type": "event",
      "signature": "0x558a0d5d5468d74b0db24c74eb348b42271c2ebb4c9e953ced38aaed95fa4361"
    },
    {
      "anonymous": false,
      "inputs": [
        {
          "indexed": false,
          "name": "auctionId",
          "type": "uint256"
        },
        {
          "indexed": true,
          "name": "buyer",
          "type": "address"
        },
        {
          "indexed": false,
          "name": "price",
          "type": "uint256"
        }
      ],
      "name": "AuctionCompleted",
      "type": "event",
      "signature": "0xeeaf33aa12f9f2732a7edcfc04439e9cfae37c4acbf4ab2edce890820b4fccc4"
    },
    {
      "anonymous": false,
      "inputs": [
        {
          "indexed": false,
          "name": "auctionId",
          "type": "uint256"
        }
      ],
      "name": "AuctionCanceled",
      "type": "event",
      "signature": "0x28601d865dccc9f113e15a7185c1b38c085d598c71250d3337916a428536d771"
    },
    {
      "anonymous": false,
      "inputs": [
        {
          "indexed": false,
          "name": "account",
          "type": "address"
        }
      ],
      "name": "Paused",
      "type": "event",
      "signature": "0x62e78cea01bee320cd4e420270b5ea74000d11b0c9f74754ebdbfc544b05a258"
    },
    {
      "anonymous": false,
      "inputs": [
        {
          "indexed": false,
          "name": "account",
          "type": "address"
        }
      ],
      "name": "Unpaused",
      "type": "event",
      "signature": "0x5db9ee0a495bf2e6ff9c91a7834c1ba4fdd244a5e8aa4e537bd38aeae4b073aa"
    },
    {
      "anonymous": false,
      "inputs": [
        {
          "indexed": true,
          "name": "account",
          "type": "address"
        }
      ],
      "name": "PauserAdded",
      "type": "event",
      "signature": "0x6719d08c1888103bea251a4ed56406bd0c3e69723c8a1686e017e7bbe159b6f8"
    },
    {
      "anonymous": false,
      "inputs": [
        {
          "indexed": true,
          "name": "account",
          "type": "address"
        }
      ],
      "name": "PauserRemoved",
      "type": "event",
      "signature": "0xcd265ebaf09df2871cc7bd4133404a235ba12eff2041bb89d9c714a2621c7c7e"
    },
    {
      "anonymous": false,
      "inputs": [
        {
          "indexed": true,
          "name": "previousOwner",
          "type": "address"
        },
        {
          "indexed": true,
          "name": "newOwner",
          "type": "address"
        }
      ],
      "name": "OwnershipTransferred",
      "type": "event",
      "signature": "0x8be0079c531659141344cd1fd0a4f28419497f9722a3daafe3b4186f6b6457e0"
    },
    {
      "constant": false,
      "inputs": [
        {
          "name": "signature",
          "type": "bytes"
        },
        {
          "name": "certificateId",
          "type": "uint256"
        },
        {
          "name": "price",
          "type": "uint256"
        },
        {
          "name": "expiresAt",
          "type": "uint256"
        },
        {
          "name": "nonce",
          "type": "uint256"
        }
      ],
      "name": "metaCreateSale",
      "outputs": [],
      "payable": false,
      "stateMutability": "nonpayable",
      "type": "function",
      "signature": "0xc604edd0"
    },
    {
      "constant": false,
      "inputs": [
        {
          "name": "signature",
          "type": "bytes"
        },
        {
          "name": "saleId",
          "type": "uint256"
        },
        {
          "name": "nonce",
          "type": "uint256"
        }
      ],
      "name": "metaCancelSale",
      "outputs": [],
      "payable": false,
      "stateMutability": "nonpayable",
      "type": "function",
      "signature": "0x9b76d308"
    },
    {
      "constant": false,
      "inputs": [
        {
          "name": "signature",
          "type": "bytes"
        },
        {
          "name": "saleId",
          "type": "uint256"
        },
        {
          "name": "nonce",
          "type": "uint256"
        }
      ],
      "name": "metaExecuteSale",
      "outputs": [],
      "payable": false,
      "stateMutability": "nonpayable",
      "type": "function",
      "signature": "0x4898990a"
    },
    {
      "constant": false,
      "inputs": [
        {
          "name": "signature",
          "type": "bytes"
        },
        {
          "name": "certificateId",
          "type": "uint256"
        },
        {
          "name": "startingPrice",
          "type": "uint256"
        },
        {
          "name": "expiresAt",
          "type": "uint256"
        },
        {
          "name": "nonce",
          "type": "uint256"
        }
      ],
      "name": "metaCreateAuction",
      "outputs": [],
      "payable": false,
      "stateMutability": "nonpayable",
      "type": "function",
      "signature": "0xc03a71fa"
    },
    {
      "constant": false,
      "inputs": [
        {
          "name": "signature",
          "type": "bytes"
        },
        {
          "name": "auctionId",
          "type": "uint256"
        },
        {
          "name": "nonce",
          "type": "uint256"
        }
      ],
      "name": "metaCancelAuction",
      "outputs": [],
      "payable": false,
      "stateMutability": "nonpayable",
      "type": "function",
      "signature": "0xc4e6abca"
    },
    {
      "constant": false,
      "inputs": [
        {
          "name": "signature",
          "type": "bytes"
        },
        {
          "name": "auctionId",
          "type": "uint256"
        },
        {
          "name": "amount",
          "type": "uint256"
        },
        {
          "name": "nonce",
          "type": "uint256"
        }
      ],
      "name": "metaExecuteAuction",
      "outputs": [],
      "payable": false,
      "stateMutability": "nonpayable",
      "type": "function",
      "signature": "0x5db92c71"
    },
    {
      "constant": false,
      "inputs": [
        {
          "name": "signature",
          "type": "bytes"
        },
        {
          "name": "auctionId",
          "type": "uint256"
        },
        {
          "name": "nonce",
          "type": "uint256"
        }
      ],
      "name": "metaCompleteAuction",
      "outputs": [],
      "payable": false,
      "stateMutability": "nonpayable",
      "type": "function",
      "signature": "0x2d4b29b6"
    },
    {
      "constant": true,
      "inputs": [
        {
          "name": "certificateId",
          "type": "uint256"
        },
        {
          "name": "price",
          "type": "uint256"
        },
        {
          "name": "expiresAt",
          "type": "uint256"
        },
        {
          "name": "nonce",
          "type": "uint256"
        }
      ],
      "name": "metaCreateSaleHash",
      "outputs": [
        {
          "name": "",
          "type": "bytes32"
        }
      ],
      "payable": false,
      "stateMutability": "view",
      "type": "function",
      "signature": "0x3d9fc8e8"
    },
    {
      "constant": true,
      "inputs": [
        {
          "name": "certificateId",
          "type": "uint256"
        },
        {
          "name": "nonce",
          "type": "uint256"
        }
      ],
      "name": "metaCancelSaleHash",
      "outputs": [
        {
          "name": "",
          "type": "bytes32"
        }
      ],
      "payable": false,
      "stateMutability": "view",
      "type": "function",
      "signature": "0x172c92fc"
    },
    {
      "constant": true,
      "inputs": [
        {
          "name": "saleId",
          "type": "uint256"
        },
        {
          "name": "nonce",
          "type": "uint256"
        }
      ],
      "name": "metaExecuteSaleHash",
      "outputs": [
        {
          "name": "",
          "type": "bytes32"
        }
      ],
      "payable": false,
      "stateMutability": "view",
      "type": "function",
      "signature": "0xc4b81cbd"
    },
    {
      "constant": true,
      "inputs": [
        {
          "name": "certificateId",
          "type": "uint256"
        },
        {
          "name": "startingPrice",
          "type": "uint256"
        },
        {
          "name": "expiresAt",
          "type": "uint256"
        },
        {
          "name": "nonce",
          "type": "uint256"
        }
      ],
      "name": "metaCreateAuctionHash",
      "outputs": [
        {
          "name": "",
          "type": "bytes32"
        }
      ],
      "payable": false,
      "stateMutability": "view",
      "type": "function",
      "signature": "0x525ad8bc"
    },
    {
      "constant": true,
      "inputs": [
        {
          "name": "auctionId",
          "type": "uint256"
        },
        {
          "name": "nonce",
          "type": "uint256"
        }
      ],
      "name": "metaCancelAuctionHash",
      "outputs": [
        {
          "name": "",
          "type": "bytes32"
        }
      ],
      "payable": false,
      "stateMutability": "view",
      "type": "function",
      "signature": "0xcbed1cb0"
    },
    {
      "constant": true,
      "inputs": [
        {
          "name": "auctionId",
          "type": "uint256"
        },
        {
          "name": "amount",
          "type": "uint256"
        },
        {
          "name": "nonce",
          "type": "uint256"
        }
      ],
      "name": "metaExecuteAuctionHash",
      "outputs": [
        {
          "name": "",
          "type": "bytes32"
        }
      ],
      "payable": false,
      "stateMutability": "view",
      "type": "function",
      "signature": "0xf821a8da"
    },
    {
      "constant": true,
      "inputs": [
        {
          "name": "auctionId",
          "type": "uint256"
        },
        {
          "name": "nonce",
          "type": "uint256"
        }
      ],
      "name": "metaCompleteAuctionHash",
      "outputs": [
        {
          "name": "",
          "type": "bytes32"
        }
      ],
      "payable": false,
      "stateMutability": "view",
      "type": "function",
      "signature": "0x29d94516"
    },
    {
      "constant": true,
      "inputs": [
        {
          "name": "hash",
          "type": "bytes32"
        },
        {
          "name": "signature",
          "type": "bytes"
        }
      ],
      "name": "getSigner",
      "outputs": [
        {
          "name": "",
          "type": "address"
        }
      ],
      "payable": false,
      "stateMutability": "pure",
      "type": "function",
      "signature": "0xf7b2ec0d"
    }
  ],
  "bytecode": "0x60806040523480156200001157600080fd5b50604051604080620040c48339810180604052620000339190810190620001ea565b60008054600160a060020a031916331780825560405184928492600160a060020a0316917f8be0079c531659141344cd1fd0a4f28419497f9722a3daafe3b4186f6b6457e0908290a36200009033640100000000620000f0810204565b6002805460038054600160a060020a0397881661010090810296891602600160a860020a03199093169290921761010060a860020a031916949094179091559284169316600160a060020a03199283161790911691909117905562000248565b6200010b6001826401000000006200314a6200014282021704565b604051600160a060020a038216907f6719d08c1888103bea251a4ed56406bd0c3e69723c8a1686e017e7bbe159b6f890600090a250565b600160a060020a03811615156200015857600080fd5b6200016d82826401000000006200019d810204565b156200017857600080fd5b600160a060020a0316600090815260209190915260409020805460ff19166001179055565b6000600160a060020a0382161515620001b557600080fd5b50600160a060020a03166000908152602091909152604090205460ff1690565b6000620001e3825162000235565b9392505050565b60008060408385031215620001fe57600080fd5b60006200020c8585620001d5565b92505060206200021f85828601620001d5565b9150509250929050565b600160a060020a031690565b6000620002428262000229565b92915050565b613e6c80620002586000396000f3fe60806040526004361061020b5763ffffffff60e060020a6000350416630d83304c81146102105780631505a2ba1461023b578063172c92fc1461026857806321b628861461028857806325d377f7146102aa57806329d94516146102ca5780632d4b29b6146102ea5780633d9fc8e81461030a5780633f4ba83a1461032a5780633fd733401461033f57806346fbf68e146103615780634898990a1461038e578063525ad8bc146103ae578063571a26a0146103ce5780635c975abb146104015780635db92c71146104165780636c1909ed146104365780636ef8d66d14610456578063715018a61461046b5780637ecebe001461048057806381839fa8146104a057806382dc1ec4146104c057806382edaf94146104e05780638456cb59146104f55780638da5cb5b1461050a5780638f32d59b1461051f57806396b5a755146105345780639b1225c4146105545780639b76d30814610574578063a856188514610594578063b23d4854146105b4578063b5f522f7146105d4578063bd94b00514610606578063c03a71fa14610626578063c4b81cbd14610646578063c4e6abca14610666578063c604edd014610686578063cbed1cb0146102ca578063cda4beef146106a6578063d74a5701146106c6578063d7c06919146106e6578063da71a27114610708578063f2fde38b14610728578063f7b2ec0d14610748578063f821a8da14610768575b600080fd5b34801561021c57600080fd5b50610225610788565b6040516102329190613b55565b60405180910390f35b34801561024757600080fd5b5061025b61025636600461325b565b61085d565b6040516102329190613b74565b34801561027457600080fd5b5061025b61028336600461349f565b61088d565b34801561029457600080fd5b506102a86102a3366004613463565b6108fd565b005b3480156102b657600080fd5b506102a86102c536600461349f565b61090a565b3480156102d657600080fd5b5061025b6102e536600461349f565b610919565b3480156102f657600080fd5b506102a86103053660046132fb565b61095e565b34801561031657600080fd5b5061025b6103253660046134df565b610a18565b34801561033657600080fd5b506102a8610a98565b34801561034b57600080fd5b50610354610b01565b6040516102329190613ae5565b34801561036d57600080fd5b5061038161037c36600461321f565b610b10565b6040516102329190613b66565b34801561039a57600080fd5b506102a86103a93660046132fb565b610b23565b3480156103ba57600080fd5b5061025b6103c93660046134df565b610bcd565b3480156103da57600080fd5b506103ee6103e9366004613463565b610c4a565b6040516102329796959493929190613b82565b34801561040d57600080fd5b50610381610ca6565b34801561042257600080fd5b506102a861043136600461335f565b610caf565b34801561044257600080fd5b506102a86104513660046134be565b610d63565b34801561046257600080fd5b506102a8610d74565b34801561047757600080fd5b506102a8610d7f565b34801561048c57600080fd5b5061025b61049b36600461321f565b610de9565b3480156104ac57600080fd5b5061025b6104bb36600461325b565b610dfb565b3480156104cc57600080fd5b506102a86104db36600461321f565b610e16565b3480156104ec57600080fd5b50610354610e33565b34801561050157600080fd5b506102a8610e47565b34801561051657600080fd5b50610354610ea8565b34801561052b57600080fd5b50610381610eb7565b34801561054057600080fd5b506102a861054f366004613463565b610ec8565b34801561056057600080fd5b506102a861056f366004613463565b610ed2565b34801561058057600080fd5b506102a861058f3660046132fb565b610edc565b3480156105a057600080fd5b506102a86105af36600461321f565b610f86565b3480156105c057600080fd5b506102a86105cf36600461321f565b611004565b3480156105e057600080fd5b506105f46105ef366004613463565b611088565b60405161023296959493929190613d23565b34801561061257600080fd5b506102a8610621366004613463565b6110de565b34801561063257600080fd5b506102a86106413660046133d7565b6110e8565b34801561065257600080fd5b5061025b61066136600461349f565b61119f565b34801561067257600080fd5b506102a86106813660046132fb565b61120a565b34801561069257600080fd5b506102a86106a13660046133d7565b6112b4565b3480156106b257600080fd5b506102a86106c13660046134be565b611362565b3480156106d257600080fd5b5061025b6106e136600461325b565b61136e565b3480156106f257600080fd5b506106fb611389565b6040516102329190613b44565b34801561071457600080fd5b5061025b61072336600461325b565b611451565b34801561073457600080fd5b506102a861074336600461321f565b61146c565b34801561075457600080fd5b506103546107633660046132b3565b611488565b34801561077457600080fd5b5061025b6107833660046134be565b6115bb565b60606004805480602002602001604051908101604052809291908181526020016000905b82821015610854578382906000526020600020906005020160c060405190810160405290816000820154815260200160018201548152602001600282015481526020016003820160009054906101000a900460ff16600281111561080c57fe5b600281111561081757fe5b81526003820154600160a060020a0361010090910481166020808401919091526004909301541660409091015290825260019290920191016107ac565b50505050905090565b60086020528160005260406000208181548110151561087857fe5b90600052602060002001600091509150505481565b604080516c0100000000000000000000000030026020808301919091527f6d65746143616e63656c53616c65000000000000000000000000000000000000603483015260428201859052606280830185905283518084039091018152608290920190925280519101205b92915050565b610907338261160d565b50565b610915338383611bb1565b5050565b60408051306c01000000000000000000000000026020808301919091526034820194909452605480820193909352815180820390930183526074019052805191012090565b600061096a8383610919565b905060006109788286611488565b9050600160a060020a03811615156109ae5760405160e560020a62461bcd0281526004016109a590613cea565b60405180910390fd5b600160a060020a0381166000908152600a602052604090205483146109e85760405160e560020a62461bcd0281526004016109a590613cba565b600160a060020a0381166000908152600a6020526040902080546001019055610a11818561160d565b5050505050565b604080516c0100000000000000000000000030026020808301919091527f6d65746143726561746553616c65000000000000000000000000000000000000603483015260428201879052606282018690526082820185905260a28083018590528351808403909101815260c290920190925280519101205b949350505050565b610aa133610b10565b1515610aac57600080fd5b60025460ff161515610abd57600080fd5b6002805460ff191690556040517f5db9ee0a495bf2e6ff9c91a7834c1ba4fdd244a5e8aa4e537bd38aeae4b073aa90610af7903390613af3565b60405180910390a1565b600354600160a060020a031681565b60006108f760018363ffffffff61202216565b6000610b2f838361119f565b90506000610b3d8286611488565b9050600160a060020a0381161515610b6a5760405160e560020a62461bcd0281526004016109a590613cea565b600160a060020a0381166000908152600a60205260409020548314610ba45760405160e560020a62461bcd0281526004016109a590613cba565b600160a060020a0381166000908152600a6020526040902080546001019055610a118185612059565b60408051306c01000000000000000000000000026020808301919091527f6d65746143726561746541756374696f6e000000000000000000000000000000603483015260458201969096526065810194909452608584019290925260a5808401919091528151808403909101815260c59092019052805191012090565b6007805482908110610c5857fe5b600091825260209091206006909102018054600182015460028301546003840154600485015460059095015460ff85169650610100909404600160a060020a03908116959316939192909187565b60025460ff1690565b6000610cbc8484846115bb565b90506000610cca8287611488565b9050600160a060020a0381161515610cf75760405160e560020a62461bcd0281526004016109a590613cea565b600160a060020a0381166000908152600a60205260409020548314610d315760405160e560020a62461bcd0281526004016109a590613cba565b600160a060020a0381166000908152600a6020526040902080546001019055610d5b818686611bb1565b505050505050565b610d6f3384848461263f565b505050565b610d7d336129f1565b565b610d87610eb7565b1515610d9257600080fd5b60008054604051600160a060020a03909116907f8be0079c531659141344cd1fd0a4f28419497f9722a3daafe3b4186f6b6457e0908390a36000805473ffffffffffffffffffffffffffffffffffffffff19169055565b600a6020526000908152604090205481565b60056020528160005260406000208181548110151561087857fe5b610e1f33610b10565b1515610e2a57600080fd5b61090781612a39565b6002546101009004600160a060020a031681565b610e5033610b10565b1515610e5b57600080fd5b60025460ff1615610e6b57600080fd5b6002805460ff191660011790556040517f62e78cea01bee320cd4e420270b5ea74000d11b0c9f74754ebdbfc544b05a25890610af7903390613af3565b600054600160a060020a031690565b600054600160a060020a0316331490565b6109073382612a81565b6109073382612059565b6000610ee8838361088d565b90506000610ef68286611488565b9050600160a060020a0381161515610f235760405160e560020a62461bcd0281526004016109a590613cea565b600160a060020a0381166000908152600a60205260409020548314610f5d5760405160e560020a62461bcd0281526004016109a590613cba565b600160a060020a0381166000908152600a6020526040902080546001019055610a118185612bad565b610f8e610eb7565b1515610f9957600080fd5b60025460ff161515610faa57600080fd5b600160a060020a0381161515610fd55760405160e560020a62461bcd0281526004016109a590613c3a565b6003805473ffffffffffffffffffffffffffffffffffffffff1916600160a060020a0392909216919091179055565b61100c610eb7565b151561101757600080fd5b60025460ff16151561102857600080fd5b600160a060020a03811615156110535760405160e560020a62461bcd0281526004016109a590613c3a565b60028054600160a060020a039092166101000274ffffffffffffffffffffffffffffffffffffffff0019909216919091179055565b600480548290811061109657fe5b6000918252602090912060059091020180546001820154600283015460038401546004909401549294509092909160ff821691600160a060020a036101009091048116911686565b6109073382612bad565b60006110f685858585610bcd565b905060006111048288611488565b9050600160a060020a03811615156111315760405160e560020a62461bcd0281526004016109a590613cea565b600160a060020a0381166000908152600a6020526040902054831461116b5760405160e560020a62461bcd0281526004016109a590613cba565b600160a060020a0381166000908152600a602052604090208054600101905561119681878787612cd6565b50505050505050565b60408051306c01000000000000000000000000026020808301919091527f6d6574614578656375746553616c65000000000000000000000000000000000060348301526043820194909452606380820193909352815180820390930183526083019052805191012090565b60006112168383610919565b905060006112248286611488565b9050600160a060020a03811615156112515760405160e560020a62461bcd0281526004016109a590613cea565b600160a060020a0381166000908152600a6020526040902054831461128b5760405160e560020a62461bcd0281526004016109a590613cba565b600160a060020a0381166000908152600a6020526040902080546001019055610a118185612a81565b60006112c285858585610a18565b905060006112d08288611488565b9050600160a060020a03811615156112fd5760405160e560020a62461bcd0281526004016109a590613cea565b600160a060020a0381166000908152600a602052604090205483146113375760405160e560020a62461bcd0281526004016109a590613cba565b600160a060020a0381166000908152600a60205260409020805460010190556111968187878761263f565b610d6f33848484612cd6565b60096020528160005260406000208181548110151561087857fe5b60606007805480602002602001604051908101604052809291908181526020016000905b82821015610854576000848152602090206040805160e08101909152600684029091018054829060ff1660028111156113e257fe5b60028111156113ed57fe5b81528154600160a060020a03610100909104811660208084019190915260018085015490921660408401526002840154606084015260038401546080840152600484015460a084015260059093015460c090920191909152918352920191016113ad565b60066020528160005260406000208181548110151561087857fe5b611474610eb7565b151561147f57600080fd5b61090781613081565b600080600080845160411415156114a557600093505050506108f7565b50505060208201516040830151606084015160001a601b60ff821610156114ca57601b015b8060ff16601b141580156114e257508060ff16601c14155b156114f357600093505050506108f7565b60018660405160200180807f19457468657265756d205369676e6564204d6573736167653a0a333200000000815250601c018281526020019150506040516020818303038152906040528051906020012082858560405160008152602001604052604051808581526020018460ff1660ff1681526020018381526020018281526020019450505050506020604051602081039080840390855afa15801561159e573d6000803e3d6000fd5b5050506020604051035193505050506108f7565b50505092915050565b604080516c0100000000000000000000000030026020808301919091526034820186905260548201859052607480830185905283518084039091018152609490920190925280519101205b9392505050565b60025460ff161561161d57600080fd5b600254600354600160a060020a03610100909204821691166000600780548590811061164557fe5b600091825260209091206006909102015460ff16600281111561166457fe5b146116845760405160e560020a62461bcd0281526004016109a590613c7a565b4260078481548110151561169457fe5b9060005260206000209060060201600501541015156116c85760405160e560020a62461bcd0281526004016109a590613c5a565b30600160a060020a031681600160a060020a031663081812fc6007868154811015156116f057fe5b9060005260206000209060060201600401546040518263ffffffff1660e060020a0281526004016117219190613b74565b60206040518083038186803b15801561173957600080fd5b505afa15801561174d573d6000803e3d6000fd5b505050506040513d601f19601f82011682018060405250611771919081019061323d565b600160a060020a03161480611835575080600160a060020a031663e985e9c560048581548110151561179f57fe5b906000526020600020906005020160030160019054906101000a9004600160a060020a0316306040518363ffffffff1660e060020a0281526004016117e5929190613b01565b60206040518083038186803b1580156117fd57600080fd5b505afa158015611811573d6000803e3d6000fd5b505050506040513d601f19601f820116820180604052506118359190810190613295565b15156118565760405160e560020a62461bcd0281526004016109a590613c1a565b600780548490811061186457fe5b90600052602060002090600602016003015482600160a060020a031663dd62ed3e86306040518363ffffffff1660e060020a0281526004016118a7929190613b01565b60206040518083038186803b1580156118bf57600080fd5b505afa1580156118d3573d6000803e3d6000fd5b505050506040513d601f19601f820116820180604052506118f79190810190613481565b10156119185760405160e560020a62461bcd0281526004016109a590613cda565b81600160a060020a03166323b872dd8560078681548110151561193757fe5b906000526020600020906006020160000160019054906101000a9004600160a060020a031660078781548110151561196b57fe5b9060005260206000209060060201600301546040518463ffffffff1660e060020a02815260040161199e93929190613b1c565b602060405180830381600087803b1580156119b857600080fd5b505af11580156119cc573d6000803e3d6000fd5b505050506040513d601f19601f820116820180604052506119f09190810190613295565b1515611a115760405160e560020a62461bcd0281526004016109a590613bea565b80600160a060020a03166323b872dd600785815481101515611a2f57fe5b906000526020600020906006020160000160019054906101000a9004600160a060020a031686600787815481101515611a6457fe5b9060005260206000209060060201600401546040518463ffffffff1660e060020a028152600401611a9793929190613b1c565b600060405180830381600087803b158015611ab157600080fd5b505af1158015611ac5573d6000803e3d6000fd5b5050505083600784815481101515611ad957fe5b906000526020600020906006020160010160006101000a815481600160a060020a030219169083600160a060020a031602179055506001600784815481101515611b1f57fe5b60009182526020909120600690910201805460ff19166001836002811115611b4357fe5b021790555083600160a060020a03167feeaf33aa12f9f2732a7edcfc04439e9cfae37c4acbf4ab2edce890820b4fccc484600786815481101515611b8357fe5b906000526020600020906006020160030154604051611ba3929190613d08565b60405180910390a250505050565b60025460ff1615611bc157600080fd5b60025460035460078054600160a060020a03610100909404841693928316928716919086908110611bee57fe5b60009182526020909120600690910201546101009004600160a060020a03161415611c2e5760405160e560020a62461bcd0281526004016109a590613c0a565b60006007805486908110611c3e57fe5b600091825260209091206006909102015460ff166002811115611c5d57fe5b14611c7d5760405160e560020a62461bcd0281526004016109a590613c7a565b6007805485908110611c8b57fe5b90600052602060002090600602016005015442101515611cc05760405160e560020a62461bcd0281526004016109a590613cca565b6007805485908110611cce57fe5b9060005260206000209060060201600201548310158015611d0d57506007805485908110611cf857fe5b90600052602060002090600602016003015483115b1515611d2e5760405160e560020a62461bcd0281526004016109a590613c4a565b30600160a060020a031681600160a060020a031663081812fc600787815481101515611d5657fe5b9060005260206000209060060201600401546040518263ffffffff1660e060020a028152600401611d879190613b74565b60206040518083038186803b158015611d9f57600080fd5b505afa158015611db3573d6000803e3d6000fd5b505050506040513d601f19601f82011682018060405250611dd7919081019061323d565b600160a060020a03161480611e9b575080600160a060020a031663e985e9c5600486815481101515611e0557fe5b906000526020600020906005020160030160019054906101000a9004600160a060020a0316306040518363ffffffff1660e060020a028152600401611e4b929190613b01565b60206040518083038186803b158015611e6357600080fd5b505afa158015611e77573d6000803e3d6000fd5b505050506040513d601f19601f82011682018060405250611e9b9190810190613295565b1515611ebc5760405160e560020a62461bcd0281526004016109a590613c1a565b6040517fdd62ed3e0000000000000000000000000000000000000000000000000000000081528390600160a060020a0384169063dd62ed3e90611f059089903090600401613b01565b60206040518083038186803b158015611f1d57600080fd5b505afa158015611f31573d6000803e3d6000fd5b505050506040513d601f19601f82011682018060405250611f559190810190613481565b1015611f765760405160e560020a62461bcd0281526004016109a590613cda565b82600785815481101515611f8657fe5b90600052602060002090600602016003018190555084600785815481101515611fab57fe5b906000526020600020906006020160010160006101000a815481600160a060020a030219169083600160a060020a031602179055507f558a0d5d5468d74b0db24c74eb348b42271c2ebb4c9e953ced38aaed95fa436184868560405161201393929190613cfa565b60405180910390a15050505050565b6000600160a060020a038216151561203957600080fd5b50600160a060020a03166000908152602091909152604090205460ff1690565b60025460ff161561206957600080fd5b60025460035460048054600160a060020a0361010090940484169392831692861691908590811061209657fe5b60009182526020909120600590910201600301546101009004600160a060020a031614156120d95760405160e560020a62461bcd0281526004016109a590613c9a565b600060048054859081106120e957fe5b600091825260209091206003600590920201015460ff16600281111561210b57fe5b1461212b5760405160e560020a62461bcd0281526004016109a590613c2a565b600480548490811061213957fe5b9060005260206000209060050201600201544210151561216e5760405160e560020a62461bcd0281526004016109a590613c6a565b30600160a060020a031681600160a060020a031663081812fc60048681548110151561219657fe5b9060005260206000209060050201600101546040518263ffffffff1660e060020a0281526004016121c79190613b74565b60206040518083038186803b1580156121df57600080fd5b505afa1580156121f3573d6000803e3d6000fd5b505050506040513d601f19601f82011682018060405250612217919081019061323d565b600160a060020a031614806122db575080600160a060020a031663e985e9c560048581548110151561224557fe5b906000526020600020906005020160030160019054906101000a9004600160a060020a0316306040518363ffffffff1660e060020a02815260040161228b929190613b01565b60206040518083038186803b1580156122a357600080fd5b505afa1580156122b7573d6000803e3d6000fd5b505050506040513d601f19601f820116820180604052506122db9190810190613295565b15156122fc5760405160e560020a62461bcd0281526004016109a590613c1a565b600480548490811061230a57fe5b60009182526020909120600590910201546040517fdd62ed3e000000000000000000000000000000000000000000000000000000008152600160a060020a0384169063dd62ed3e906123629088903090600401613b01565b60206040518083038186803b15801561237a57600080fd5b505afa15801561238e573d6000803e3d6000fd5b505050506040513d601f19601f820116820180604052506123b29190810190613481565b10156123d35760405160e560020a62461bcd0281526004016109a590613cda565b81600160a060020a03166323b872dd856004868154811015156123f257fe5b906000526020600020906005020160030160019054906101000a9004600160a060020a031660048781548110151561242657fe5b9060005260206000209060050201600001546040518463ffffffff1660e060020a02815260040161245993929190613b1c565b602060405180830381600087803b15801561247357600080fd5b505af1158015612487573d6000803e3d6000fd5b505050506040513d601f19601f820116820180604052506124ab9190810190613295565b15156124cc5760405160e560020a62461bcd0281526004016109a590613bea565b80600160a060020a03166323b872dd6004858154811015156124ea57fe5b906000526020600020906005020160030160019054906101000a9004600160a060020a03168660048781548110151561251f57fe5b9060005260206000209060050201600101546040518463ffffffff1660e060020a02815260040161255293929190613b1c565b600060405180830381600087803b15801561256c57600080fd5b505af1158015612580573d6000803e3d6000fd5b505050508360048481548110151561259457fe5b906000526020600020906005020160040160006101000a815481600160a060020a030219169083600160a060020a0316021790555060016004848154811015156125da57fe5b60009182526020909120600360059092020101805460ff1916600183600281111561260157fe5b021790555083600160a060020a03167f8262b86fecd9df80dbb59dce1f2d83b992fa5e477fca9b869af821ea565e673c84604051611ba39190613b74565b60025460ff161561264f57600080fd5b6003546040517f6352211e000000000000000000000000000000000000000000000000000000008152600160a060020a03918216918616908290636352211e9061269d908890600401613b74565b60206040518083038186803b1580156126b557600080fd5b505afa1580156126c9573d6000803e3d6000fd5b505050506040513d601f19601f820116820180604052506126ed919081019061323d565b600160a060020a0316146127165760405160e560020a62461bcd0281526004016109a590613bfa565b6040517f081812fc0000000000000000000000000000000000000000000000000000000081523090600160a060020a0383169063081812fc9061275d908890600401613b74565b60206040518083038186803b15801561277557600080fd5b505afa158015612789573d6000803e3d6000fd5b505050506040513d601f19601f820116820180604052506127ad919081019061323d565b600160a060020a0316148061285457506040517fe985e9c5000000000000000000000000000000000000000000000000000000008152600160a060020a0382169063e985e9c5906128049088903090600401613b01565b60206040518083038186803b15801561281c57600080fd5b505afa158015612830573d6000803e3d6000fd5b505050506040513d601f19601f820116820180604052506128549190810190613295565b15156128755760405160e560020a62461bcd0281526004016109a590613c1a565b60006001600460c060405190810160405280878152602001888152602001868152602001600060028111156128a657fe5b8152600160a060020a038a166020808301919091526000604092830181905284546001818101808855968352918390208551600590920201908155918401518282015591830151600280830191909155606084015160038301805493949193909260ff199091169190849081111561291a57fe5b0217905550608082015160038201805474ffffffffffffffffffffffffffffffffffffffff001916610100600160a060020a039384160217905560a0909201516004909101805473ffffffffffffffffffffffffffffffffffffffff19169183169190911790558816600081815260056020908152604080832080546001810182559084529190922094909303939092018390559051919250907f02d62788b45b68a9eb64f42a2bae69c5b4a36218536465e038eab160c2b2aef2906129e1908490613b74565b60405180910390a2505050505050565b612a0260018263ffffffff6130fe16565b604051600160a060020a038216907fcd265ebaf09df2871cc7bd4133404a235ba12eff2041bb89d9c714a2621c7c7e90600090a250565b612a4a60018263ffffffff61314a16565b604051600160a060020a038216907f6719d08c1888103bea251a4ed56406bd0c3e69723c8a1686e017e7bbe159b6f890600090a250565b60025460ff1615612a9157600080fd5b81600160a060020a0316600782815481101515612aaa57fe5b60009182526020909120600690910201546101009004600160a060020a031614612ae95760405160e560020a62461bcd0281526004016109a590613caa565b60006007805483908110612af957fe5b600091825260209091206006909102015460ff166002811115612b1857fe5b14612b385760405160e560020a62461bcd0281526004016109a590613c7a565b6002600782815481101515612b4957fe5b60009182526020909120600690910201805460ff19166001836002811115612b6d57fe5b02179055507f28601d865dccc9f113e15a7185c1b38c085d598c71250d3337916a428536d77181604051612ba19190613b74565b60405180910390a15050565b60025460ff1615612bbd57600080fd5b81600160a060020a0316600482815481101515612bd657fe5b60009182526020909120600590910201600301546101009004600160a060020a031614612c185760405160e560020a62461bcd0281526004016109a590613c8a565b60006004805483908110612c2857fe5b600091825260209091206003600590920201015460ff166002811115612c4a57fe5b14612c6a5760405160e560020a62461bcd0281526004016109a590613c2a565b6002600482815481101515612c7b57fe5b60009182526020909120600360059092020101805460ff19166001836002811115612ca257fe5b02179055507fbc3d8540adfcf6600ea8f790c6ed415a6aa7a1219d45ecefc5bdff014348a8b081604051612ba19190613b74565b60025460ff1615612ce657600080fd5b6003546040517f6352211e000000000000000000000000000000000000000000000000000000008152600160a060020a03918216918616908290636352211e90612d34908890600401613b74565b60206040518083038186803b158015612d4c57600080fd5b505afa158015612d60573d6000803e3d6000fd5b505050506040513d601f19601f82011682018060405250612d84919081019061323d565b600160a060020a031614612dad5760405160e560020a62461bcd0281526004016109a590613bfa565b6040517f081812fc0000000000000000000000000000000000000000000000000000000081523090600160a060020a0383169063081812fc90612df4908890600401613b74565b60206040518083038186803b158015612e0c57600080fd5b505afa158015612e20573d6000803e3d6000fd5b505050506040513d601f19601f82011682018060405250612e44919081019061323d565b600160a060020a03161480612eeb57506040517fe985e9c5000000000000000000000000000000000000000000000000000000008152600160a060020a0382169063e985e9c590612e9b9088903090600401613b01565b60206040518083038186803b158015612eb357600080fd5b505afa158015612ec7573d6000803e3d6000fd5b505050506040513d601f19601f82011682018060405250612eeb9190810190613295565b1515612f0c5760405160e560020a62461bcd0281526004016109a590613c1a565b60006001600760e06040519081016040528060006002811115612f2b57fe5b8152600160a060020a038a16602080830191909152600060408301819052606083018a90526080830181905260a083018b905260c0909201889052835460018181018087559584529190922083516006909302018054909291839160ff191690836002811115612f9757fe5b0217905550602082810151825474ffffffffffffffffffffffffffffffffffffffff001916610100600160a060020a03928316021783556040808501516001808601805473ffffffffffffffffffffffffffffffffffffffff191692851692909217909155606086015160028601556080860151600386015560a0860151600486015560c0909501516005909401939093558b1660008181526008835283812080549586018155815291909120949093039390910183905551919250907f5d551e2a2cc977fd8c530317059b4f2d9f504fb82f7dfad736f8d56679bcdfd0906129e1908490613b74565b600160a060020a038116151561309657600080fd5b60008054604051600160a060020a03808516939216917f8be0079c531659141344cd1fd0a4f28419497f9722a3daafe3b4186f6b6457e091a36000805473ffffffffffffffffffffffffffffffffffffffff1916600160a060020a0392909216919091179055565b600160a060020a038116151561311357600080fd5b61311d8282612022565b151561312857600080fd5b600160a060020a0316600090815260209190915260409020805460ff19169055565b600160a060020a038116151561315f57600080fd5b6131698282612022565b1561317357600080fd5b600160a060020a0316600090815260209190915260409020805460ff19166001179055565b60006116068235613dd6565b60006116068251613dd6565b60006116068251613de1565b60006116068235613de6565b6000601f820183136131d957600080fd5b81356131ec6131e782613da4565b613d7d565b9150808252602083016020830185838301111561320857600080fd5b6115b2838284613e26565b60006116068251613de6565b60006020828403121561323157600080fd5b6000610a908484613198565b60006020828403121561324f57600080fd5b6000610a9084846131a4565b6000806040838503121561326e57600080fd5b600061327a8585613198565b925050602061328b858286016131bc565b9150509250929050565b6000602082840312156132a757600080fd5b6000610a9084846131b0565b600080604083850312156132c657600080fd5b60006132d285856131bc565b925050602083013567ffffffffffffffff8111156132ef57600080fd5b61328b858286016131c8565b60008060006060848603121561331057600080fd5b833567ffffffffffffffff81111561332757600080fd5b613333868287016131c8565b9350506020613344868287016131bc565b9250506040613355868287016131bc565b9150509250925092565b6000806000806080858703121561337557600080fd5b843567ffffffffffffffff81111561338c57600080fd5b613398878288016131c8565b94505060206133a9878288016131bc565b93505060406133ba878288016131bc565b92505060606133cb878288016131bc565b91505092959194509250565b600080600080600060a086880312156133ef57600080fd5b853567ffffffffffffffff81111561340657600080fd5b613412888289016131c8565b9550506020613423888289016131bc565b9450506040613434888289016131bc565b9350506060613445888289016131bc565b9250506080613456888289016131bc565b9150509295509295909350565b60006020828403121561347557600080fd5b6000610a9084846131bc565b60006020828403121561349357600080fd5b6000610a908484613213565b600080604083850312156134b257600080fd5b600061327a85856131bc565b6000806000606084860312156134d357600080fd5b600061333386866131bc565b600080600080608085870312156134f557600080fd5b600061339887876131bc565b61350a81613e05565b82525050565b61350a81613dd6565b600061352482613dd2565b80845260208401935061353683613dcc565b60005b828110156135665761354c8683516139ec565b61355582613dcc565b60e096909601959150600101613539565b5093949350505050565b600061357b82613dd2565b80845260208401935061358d83613dcc565b60005b82811015613566576135a3868351613a75565b6135ac82613dcc565b60c096909601959150600101613590565b61350a81613de1565b61350a81613de6565b61350a81613e10565b602581527f436f6e747261637420636f756c64206e6f74207472616e73666572207468652060208201527f66756e6473000000000000000000000000000000000000000000000000000000604082015260600190565b602a81527f53656e646572206973206e6f7420746865206f776e6572206f6620746865206360208201527f6572746966696361746500000000000000000000000000000000000000000000604082015260600190565b602281527f596f752063616e6e6f7420626964206f6e20796f7572206f776e20617563746960208201527f6f6e000000000000000000000000000000000000000000000000000000000000604082015260600190565b603181527f436f6e7472616374206973206e6f7420616c6c6f77656420746f206d616e697060208201527f756c617465206365727469666963617465000000000000000000000000000000604082015260600190565b601881527f53616c65206973206e6f74206f70656e20616e796d6f72650000000000000000602082015260400190565b602581527f4e657720746f6b656e20636f6e7472616374206164647265737320697320696e60208201527f76616c6964000000000000000000000000000000000000000000000000000000604082015260600190565b601581527f416d6f756e74206d757374206265206869676865720000000000000000000000602082015260400190565b601b81527f41756374696f6e20686173206e6f742065787069726564207965740000000000602082015260400190565b601081527f53616c6520686173206578706972656400000000000000000000000000000000602082015260400190565b601b81527f41756374696f6e206973206e6f74206f70656e20616e796d6f72650000000000602082015260400190565b601b81527f596f752063616e6e6f742063616e63656c20746869732073616c650000000000602082015260400190565b60208082527f596f752063616e6e6f74206578656375746520796f7572206f776e2073616c659082015260400190565b601e81527f596f752063616e6e6f742063616e63656c20746869732061756374696f6e0000602082015260400190565b601081527f4e6f6e636520697320696e76616c696400000000000000000000000000000000602082015260400190565b601381527f41756374696f6e20686173206578706972656400000000000000000000000000602082015260400190565b603181527f436f6e7472616374206973206e6f7420616c6c6f77656420746f206d616e697060208201527f756c6174652062757965722066756e6473000000000000000000000000000000604082015260600190565b601181527f43616e6e6f7420676574207369676e6572000000000000000000000000000000602082015260400190565b805160e08301906139fd84826135cf565b506020820151613a106020850182613510565b506040820151613a236040850182613510565b506060820151613a3660608501826135c6565b506080820151613a4960808501826135c6565b5060a0820151613a5c60a08501826135c6565b5060c0820151613a6f60c08501826135c6565b50505050565b805160c0830190613a8684826135c6565b506020820151613a9960208501826135c6565b506040820151613aac60408501826135c6565b506060820151613abf60608501826135cf565b506080820151613ad26080850182613510565b5060a0820151613a6f60a0850182613510565b602081016108f78284613510565b602081016108f78284613501565b60408101613b0f8285613510565b6116066020830184613510565b60608101613b2a8286613510565b613b376020830185613510565b610a9060408301846135c6565b602080825281016116068184613519565b602080825281016116068184613570565b602081016108f782846135bd565b602081016108f782846135c6565b60e08101613b90828a6135cf565b613b9d6020830189613510565b613baa6040830188613510565b613bb760608301876135c6565b613bc460808301866135c6565b613bd160a08301856135c6565b613bde60c08301846135c6565b98975050505050505050565b602080825281016108f7816135d8565b602080825281016108f78161362e565b602080825281016108f781613684565b602080825281016108f7816136da565b602080825281016108f781613730565b602080825281016108f781613760565b602080825281016108f7816137b6565b602080825281016108f7816137e6565b602080825281016108f781613816565b602080825281016108f781613846565b602080825281016108f781613876565b602080825281016108f7816138a6565b602080825281016108f7816138d6565b602080825281016108f781613906565b602080825281016108f781613936565b602080825281016108f781613966565b602080825281016108f7816139bc565b60608101613b2a82866135c6565b60408101613d1682856135c6565b61160660208301846135c6565b60c08101613d3182896135c6565b613d3e60208301886135c6565b613d4b60408301876135c6565b613d5860608301866135cf565b613d656080830185613510565b613d7260a0830184613510565b979650505050505050565b60405181810167ffffffffffffffff81118282101715613d9c57600080fd5b604052919050565b600067ffffffffffffffff821115613dbb57600080fd5b506020601f91909101601f19160190565b60200190565b5190565b60006108f782613df9565b151590565b90565b600060038210613df557fe5b5090565b600160a060020a031690565b60006108f782613e1b565b60006108f782613de9565b60006108f782613dd6565b8281833750600091015256fea265627a7a723058204f385499dfd7ddfb5be1707788edf9d0a0029f94886c9e5c707946e73b81b6506c6578706572696d656e74616cf50037",
  "source": "/* solhint-disable not-rely-on-time */\n\npragma solidity 0.5.0;\npragma experimental ABIEncoderV2;\n\nimport \"./Marketplace.sol\";\n\n\n/**\n * @title MetaMarketplace contract\n * @dev This contract handles the meta transactions for our marketplace\n */\ncontract MetaMarketplace is Marketplace {\n    /**\n     * @dev This contract needs to be linked to a token and an NFT contract\n     * @param initialTokenContractAddress The address of the token\n     * @param initialCooContractAddress The address of the NFT contract\n     */\n    constructor(\n        address initialTokenContractAddress,\n        address initialCooContractAddress\n    ) public Marketplace(\n        initialTokenContractAddress,\n        initialCooContractAddress\n    ) {\n        tokenContractAddress = initialTokenContractAddress;\n        cooContractAddress = initialCooContractAddress;\n    }\n\n    mapping (address => uint256) public nonces;\n\n    function metaCreateSale(\n        bytes memory signature,\n        uint256 certificateId,\n        uint256 price,\n        uint256 expiresAt,\n        uint256 nonce\n    ) public {\n        bytes32 hash = metaCreateSaleHash(\n            certificateId,\n            price,\n            expiresAt,\n            nonce\n        );\n\n        address signer = getSigner(hash, signature);\n\n        require(signer != address(0), \"Cannot get signer\");\n        require(nonce == nonces[signer], \"Nonce is invalid\");\n\n        nonces[signer] += 1;\n\n        _createSale(\n            signer,\n            certificateId,\n            price,\n            expiresAt\n        );\n    }\n\n    function metaCancelSale(\n        bytes memory signature,\n        uint256 saleId,\n        uint256 nonce\n    ) public {\n        bytes32 hash = metaCancelSaleHash(\n            saleId,\n            nonce\n        );\n\n        address signer = getSigner(hash, signature);\n\n        require(signer != address(0), \"Cannot get signer\");\n        require(nonce == nonces[signer], \"Nonce is invalid\");\n\n        nonces[signer] += 1;\n\n        _cancelSale(\n            signer,\n            saleId\n        );\n    }\n\n    function metaExecuteSale(\n        bytes memory signature,\n        uint256 saleId,\n        uint256 nonce\n    ) public {\n        bytes32 hash = metaExecuteSaleHash(\n            saleId,\n            nonce\n        );\n\n        address signer = getSigner(hash, signature);\n\n        require(signer != address(0), \"Cannot get signer\");\n        require(nonce == nonces[signer], \"Nonce is invalid\");\n\n        nonces[signer] += 1;\n\n        _executeSale(\n            signer,\n            saleId\n        );\n    }\n\n    function metaCreateAuction(\n        bytes memory signature,\n        uint256 certificateId,\n        uint256 startingPrice,\n        uint256 expiresAt,\n        uint256 nonce\n    ) public {\n        bytes32 hash = metaCreateAuctionHash(\n            certificateId,\n            startingPrice,\n            expiresAt,\n            nonce\n        );\n\n        address signer = getSigner(hash, signature);\n\n        require(signer != address(0), \"Cannot get signer\");\n        require(nonce == nonces[signer], \"Nonce is invalid\");\n\n        nonces[signer] += 1;\n\n        _createAuction(\n            signer,\n            certificateId,\n            startingPrice,\n            expiresAt\n        );\n    }\n\n    function metaCancelAuction(\n        bytes memory signature,\n        uint256 auctionId,\n        uint256 nonce\n    ) public {\n        bytes32 hash = metaCancelAuctionHash(\n            auctionId,\n            nonce\n        );\n\n        address signer = getSigner(hash, signature);\n\n        require(signer != address(0), \"Cannot get signer\");\n        require(nonce == nonces[signer], \"Nonce is invalid\");\n\n        nonces[signer] += 1;\n\n        _cancelAuction(\n            signer,\n            auctionId\n        );\n    }\n\n    function metaExecuteAuction(\n        bytes memory signature,\n        uint256 auctionId,\n        uint256 amount,\n        uint256 nonce\n    ) public {\n        bytes32 hash = metaExecuteAuctionHash(\n            auctionId,\n            amount,\n            nonce\n        );\n\n        address signer = getSigner(hash, signature);\n\n        require(signer != address(0), \"Cannot get signer\");\n        require(nonce == nonces[signer], \"Nonce is invalid\");\n\n        nonces[signer] += 1;\n\n        _executeAuction(\n            signer,\n            auctionId,\n            amount\n        );\n    }\n\n    function metaCompleteAuction(\n        bytes memory signature,\n        uint256 auctionId,\n        uint256 nonce\n    ) public {\n        bytes32 hash = metaCompleteAuctionHash(\n            auctionId,\n            nonce\n        );\n\n        address signer = getSigner(hash, signature);\n\n        require(signer != address(0), \"Cannot get signer\");\n        require(nonce == nonces[signer], \"Nonce is invalid\");\n\n        nonces[signer] += 1;\n\n        _completeAuction(\n            signer,\n            auctionId\n        );\n    }\n\n    function metaCreateSaleHash(\n        uint256 certificateId,\n        uint256 price,\n        uint256 expiresAt,\n        uint256 nonce\n    ) public view returns (bytes32) {\n        return keccak256(abi.encodePacked(\n            address(this),\n            \"metaCreateSale\",\n            certificateId,\n            price,\n            expiresAt,\n            nonce\n        ));\n    }\n\n    function metaCancelSaleHash(\n        uint256 certificateId,\n        uint256 nonce\n    ) public view returns (bytes32) {\n        return keccak256(abi.encodePacked(\n            address(this),\n            \"metaCancelSale\",\n            certificateId,\n            nonce\n        ));\n    }\n\n    function metaExecuteSaleHash(\n        uint256 saleId,\n        uint256 nonce\n    ) public view returns (bytes32) {\n        return keccak256(abi.encodePacked(\n            address(this),\n            \"metaExecuteSale\",\n            saleId,\n            nonce\n        ));\n    }\n\n    function metaCreateAuctionHash(\n        uint256 certificateId,\n        uint256 startingPrice,\n        uint256 expiresAt,\n        uint256 nonce\n    ) public view returns (bytes32) {\n        return keccak256(abi.encodePacked(\n            address(this),\n            \"metaCreateAuction\",\n            certificateId,\n            startingPrice,\n            expiresAt,\n            nonce\n        ));\n    }\n\n    function metaCancelAuctionHash(\n        uint256 auctionId,\n        uint256 nonce\n    ) public view returns (bytes32) {\n        return keccak256(abi.encodePacked(\n            address(this),\n            auctionId,\n            nonce\n        ));\n    }\n\n    function metaExecuteAuctionHash(\n        uint256 auctionId,\n        uint256 amount,\n        uint256 nonce\n    ) public view returns (bytes32) {\n        return keccak256(abi.encodePacked(\n            address(this),\n            auctionId,\n            amount,\n            nonce\n        ));\n    }\n\n    function metaCompleteAuctionHash(\n        uint256 auctionId,\n        uint256 nonce\n    ) public view returns (bytes32) {\n        return keccak256(abi.encodePacked(\n            address(this),\n            auctionId,\n            nonce\n        ));\n    }\n\n    /**\n     * @dev Gets the signer of an hash using the signature\n     * @param hash The hash to check\n     * @param signature The signature to use\n     * @return The address of the signer or 0x0 address is something went wrong\n     */\n    function getSigner(bytes32 hash, bytes memory signature) public pure returns (address) {\n        bytes32 r;\n        bytes32 s;\n        uint8 v;\n\n        if (signature.length != 65) {\n            return address(0);\n        }\n\n        /* solhint-disable-next-line no-inline-assembly */\n        assembly {\n            r := mload(add(signature, 32))\n            s := mload(add(signature, 64))\n            v := byte(0, mload(add(signature, 96)))\n        }\n\n        if (v < 27) {\n            v += 27;\n        }\n\n        if (v != 27 && v != 28) {\n            return address(0);\n        } else {\n            return ecrecover(keccak256(\n                abi.encodePacked(\"\\x19Ethereum Signed Message:\\n32\", hash)\n            ), v, r, s);\n        }\n    }\n}\n",
  "sourcePath": "/Users/clement/Documents/Dev/herc/COO/COO/contracts/MetaMarketplace.sol",
  "compiler": {
    "name": "solc",
    "version": "0.5.0+commit.1d4f565a.Emscripten.clang"
  },
  "schemaVersion": "3.0.1",
  "updatedAt": "2019-02-21T08:38:48.820Z",
  "devdoc": {
    "details": "This contract handles the meta transactions for our marketplace",
    "methods": {
      "constructor": {
        "details": "This contract needs to be linked to a token and an NFT contract",
        "params": {
          "initialCooContractAddress": "The address of the NFT contract",
          "initialTokenContractAddress": "The address of the token"
        }
      },
      "createSale(uint256,uint256,uint256)": {
        "details": "Creates a new sale"
      },
      "getAuctions()": {
        "details": "Gets all the auctions",
        "return": "An array containing all the auctions"
      },
      "getSales()": {
        "details": "Gets all the sales",
        "return": "An array containing all the sales"
      },
      "getSigner(bytes32,bytes)": {
        "details": "Gets the signer of an hash using the signature",
        "params": {
          "hash": "The hash to check",
          "signature": "The signature to use"
        },
        "return": "The address of the signer or 0x0 address is something went wrong"
      },
      "isOwner()": {
        "return": "true if `msg.sender` is the owner of the contract."
      },
      "owner()": {
        "return": "the address of the owner."
      },
      "pause()": {
        "details": "called by the owner to pause, triggers stopped state"
      },
      "paused()": {
        "return": "true if the contract is paused, false otherwise."
      },
      "renounceOwnership()": {
        "details": "Allows the current owner to relinquish control of the contract."
      },
      "setCooContractAddress(address)": {
        "details": "Updates the address of the COO contract",
        "params": {
          "newCooContractAddress": "The new address of the COO contract"
        }
      },
      "setTokenContractAddress(address)": {
        "details": "Updates the address of the token contract",
        "params": {
          "newTokenContractAddress": "The new address of the token contract"
        }
      },
      "transferOwnership(address)": {
        "details": "Allows the current owner to transfer control of the contract to a newOwner.",
        "params": {
          "newOwner": "The address to transfer ownership to."
        }
      },
      "unpause()": {
        "details": "called by the owner to unpause, returns to normal state"
      }
    },
    "title": "MetaMarketplace contract"
  },
  "userdoc": {
    "methods": {
      "renounceOwnership()": {
        "notice": "Renouncing to ownership will leave the contract without an owner. It will not be possible to call the functions with the `onlyOwner` modifier anymore."
      }
    }
  }
}