{
  "contractName": "Marketplace",
  "abi": [
    {
      "constant": true,
      "inputs": [
        {
          "name": "",
          "type": "address"
        },
        {
          "name": "",
          "type": "uint256"
        }
      ],
      "name": "auctionsToSellers",
      "outputs": [
        {
          "name": "",
          "type": "uint256"
        }
      ],
      "payable": false,
      "stateMutability": "view",
      "type": "function",
      "signature": "0x1505a2ba"
    },
    {
      "constant": false,
      "inputs": [],
      "name": "unpause",
      "outputs": [],
      "payable": false,
      "stateMutability": "nonpayable",
      "type": "function",
      "signature": "0x3f4ba83a"
    },
    {
      "constant": true,
      "inputs": [],
      "name": "cooContractAddress",
      "outputs": [
        {
          "name": "",
          "type": "address"
        }
      ],
      "payable": false,
      "stateMutability": "view",
      "type": "function",
      "signature": "0x3fd73340"
    },
    {
      "constant": true,
      "inputs": [
        {
          "name": "account",
          "type": "address"
        }
      ],
      "name": "isPauser",
      "outputs": [
        {
          "name": "",
          "type": "bool"
        }
      ],
      "payable": false,
      "stateMutability": "view",
      "type": "function",
      "signature": "0x46fbf68e"
    },
    {
      "constant": true,
      "inputs": [
        {
          "name": "",
          "type": "uint256"
        }
      ],
      "name": "auctions",
      "outputs": [
        {
          "name": "status",
          "type": "uint8"
        },
        {
          "name": "seller",
          "type": "address"
        },
        {
          "name": "buyer",
          "type": "address"
        },
        {
          "name": "startingPrice",
          "type": "uint256"
        },
        {
          "name": "currentBid",
          "type": "uint256"
        },
        {
          "name": "certificateId",
          "type": "uint256"
        },
        {
          "name": "expiresAt",
          "type": "uint256"
        }
      ],
      "payable": false,
      "stateMutability": "view",
      "type": "function",
      "signature": "0x571a26a0"
    },
    {
      "constant": true,
      "inputs": [],
      "name": "paused",
      "outputs": [
        {
          "name": "",
          "type": "bool"
        }
      ],
      "payable": false,
      "stateMutability": "view",
      "type": "function",
      "signature": "0x5c975abb"
    },
    {
      "constant": false,
      "inputs": [],
      "name": "renouncePauser",
      "outputs": [],
      "payable": false,
      "stateMutability": "nonpayable",
      "type": "function",
      "signature": "0x6ef8d66d"
    },
    {
      "constant": false,
      "inputs": [],
      "name": "renounceOwnership",
      "outputs": [],
      "payable": false,
      "stateMutability": "nonpayable",
      "type": "function",
      "signature": "0x715018a6"
    },
    {
      "constant": true,
      "inputs": [
        {
          "name": "",
          "type": "address"
        },
        {
          "name": "",
          "type": "uint256"
        }
      ],
      "name": "salesToSellers",
      "outputs": [
        {
          "name": "",
          "type": "uint256"
        }
      ],
      "payable": false,
      "stateMutability": "view",
      "type": "function",
      "signature": "0x81839fa8"
    },
    {
      "constant": false,
      "inputs": [
        {
          "name": "account",
          "type": "address"
        }
      ],
      "name": "addPauser",
      "outputs": [],
      "payable": false,
      "stateMutability": "nonpayable",
      "type": "function",
      "signature": "0x82dc1ec4"
    },
    {
      "constant": true,
      "inputs": [],
      "name": "tokenContractAddress",
      "outputs": [
        {
          "name": "",
          "type": "address"
        }
      ],
      "payable": false,
      "stateMutability": "view",
      "type": "function",
      "signature": "0x82edaf94"
    },
    {
      "constant": false,
      "inputs": [],
      "name": "pause",
      "outputs": [],
      "payable": false,
      "stateMutability": "nonpayable",
      "type": "function",
      "signature": "0x8456cb59"
    },
    {
      "constant": true,
      "inputs": [],
      "name": "owner",
      "outputs": [
        {
          "name": "",
          "type": "address"
        }
      ],
      "payable": false,
      "stateMutability": "view",
      "type": "function",
      "signature": "0x8da5cb5b"
    },
    {
      "constant": true,
      "inputs": [],
      "name": "isOwner",
      "outputs": [
        {
          "name": "",
          "type": "bool"
        }
      ],
      "payable": false,
      "stateMutability": "view",
      "type": "function",
      "signature": "0x8f32d59b"
    },
    {
      "constant": true,
      "inputs": [
        {
          "name": "",
          "type": "uint256"
        }
      ],
      "name": "sales",
      "outputs": [
        {
          "name": "price",
          "type": "uint256"
        },
        {
          "name": "certificateId",
          "type": "uint256"
        },
        {
          "name": "expiresAt",
          "type": "uint256"
        },
        {
          "name": "status",
          "type": "uint8"
        },
        {
          "name": "seller",
          "type": "address"
        },
        {
          "name": "buyer",
          "type": "address"
        }
      ],
      "payable": false,
      "stateMutability": "view",
      "type": "function",
      "signature": "0xb5f522f7"
    },
    {
      "constant": true,
      "inputs": [
        {
          "name": "",
          "type": "address"
        },
        {
          "name": "",
          "type": "uint256"
        }
      ],
      "name": "auctionsToBuyers",
      "outputs": [
        {
          "name": "",
          "type": "uint256"
        }
      ],
      "payable": false,
      "stateMutability": "view",
      "type": "function",
      "signature": "0xd74a5701"
    },
    {
      "constant": true,
      "inputs": [
        {
          "name": "",
          "type": "address"
        },
        {
          "name": "",
          "type": "uint256"
        }
      ],
      "name": "salesToBuyers",
      "outputs": [
        {
          "name": "",
          "type": "uint256"
        }
      ],
      "payable": false,
      "stateMutability": "view",
      "type": "function",
      "signature": "0xda71a271"
    },
    {
      "constant": false,
      "inputs": [
        {
          "name": "newOwner",
          "type": "address"
        }
      ],
      "name": "transferOwnership",
      "outputs": [],
      "payable": false,
      "stateMutability": "nonpayable",
      "type": "function",
      "signature": "0xf2fde38b"
    },
    {
      "inputs": [
        {
          "name": "initialTokenContractAddress",
          "type": "address"
        },
        {
          "name": "initialCooContractAddress",
          "type": "address"
        }
      ],
      "payable": false,
      "stateMutability": "nonpayable",
      "type": "constructor",
      "signature": "constructor"
    },
    {
      "anonymous": false,
      "inputs": [
        {
          "indexed": false,
          "name": "saleId",
          "type": "uint256"
        },
        {
          "indexed": true,
          "name": "seller",
          "type": "address"
        }
      ],
      "name": "SaleCreated",
      "type": "event",
      "signature": "0x02d62788b45b68a9eb64f42a2bae69c5b4a36218536465e038eab160c2b2aef2"
    },
    {
      "anonymous": false,
      "inputs": [
        {
          "indexed": false,
          "name": "saleId",
          "type": "uint256"
        },
        {
          "indexed": true,
          "name": "buyer",
          "type": "address"
        }
      ],
      "name": "SaleCompleted",
      "type": "event",
      "signature": "0x8262b86fecd9df80dbb59dce1f2d83b992fa5e477fca9b869af821ea565e673c"
    },
    {
      "anonymous": false,
      "inputs": [
        {
          "indexed": false,
          "name": "saleId",
          "type": "uint256"
        }
      ],
      "name": "SaleCanceled",
      "type": "event",
      "signature": "0xbc3d8540adfcf6600ea8f790c6ed415a6aa7a1219d45ecefc5bdff014348a8b0"
    },
    {
      "anonymous": false,
      "inputs": [
        {
          "indexed": false,
          "name": "auctionId",
          "type": "uint256"
        },
        {
          "indexed": true,
          "name": "seller",
          "type": "address"
        }
      ],
      "name": "AuctionCreated",
      "type": "event",
      "signature": "0x5d551e2a2cc977fd8c530317059b4f2d9f504fb82f7dfad736f8d56679bcdfd0"
    },
    {
      "anonymous": false,
      "inputs": [
        {
          "indexed": false,
          "name": "auctionId",
          "type": "uint256"
        },
        {
          "indexed": false,
          "name": "bidder",
          "type": "address"
        },
        {
          "indexed": false,
          "name": "currentBid",
          "type": "uint256"
        }
      ],
      "name": "NewBid",
      "type": "event",
      "signature": "0x558a0d5d5468d74b0db24c74eb348b42271c2ebb4c9e953ced38aaed95fa4361"
    },
    {
      "anonymous": false,
      "inputs": [
        {
          "indexed": false,
          "name": "auctionId",
          "type": "uint256"
        },
        {
          "indexed": true,
          "name": "buyer",
          "type": "address"
        },
        {
          "indexed": false,
          "name": "price",
          "type": "uint256"
        }
      ],
      "name": "AuctionCompleted",
      "type": "event",
      "signature": "0xeeaf33aa12f9f2732a7edcfc04439e9cfae37c4acbf4ab2edce890820b4fccc4"
    },
    {
      "anonymous": false,
      "inputs": [
        {
          "indexed": false,
          "name": "auctionId",
          "type": "uint256"
        }
      ],
      "name": "AuctionCanceled",
      "type": "event",
      "signature": "0x28601d865dccc9f113e15a7185c1b38c085d598c71250d3337916a428536d771"
    },
    {
      "anonymous": false,
      "inputs": [
        {
          "indexed": false,
          "name": "account",
          "type": "address"
        }
      ],
      "name": "Paused",
      "type": "event",
      "signature": "0x62e78cea01bee320cd4e420270b5ea74000d11b0c9f74754ebdbfc544b05a258"
    },
    {
      "anonymous": false,
      "inputs": [
        {
          "indexed": false,
          "name": "account",
          "type": "address"
        }
      ],
      "name": "Unpaused",
      "type": "event",
      "signature": "0x5db9ee0a495bf2e6ff9c91a7834c1ba4fdd244a5e8aa4e537bd38aeae4b073aa"
    },
    {
      "anonymous": false,
      "inputs": [
        {
          "indexed": true,
          "name": "account",
          "type": "address"
        }
      ],
      "name": "PauserAdded",
      "type": "event",
      "signature": "0x6719d08c1888103bea251a4ed56406bd0c3e69723c8a1686e017e7bbe159b6f8"
    },
    {
      "anonymous": false,
      "inputs": [
        {
          "indexed": true,
          "name": "account",
          "type": "address"
        }
      ],
      "name": "PauserRemoved",
      "type": "event",
      "signature": "0xcd265ebaf09df2871cc7bd4133404a235ba12eff2041bb89d9c714a2621c7c7e"
    },
    {
      "anonymous": false,
      "inputs": [
        {
          "indexed": true,
          "name": "previousOwner",
          "type": "address"
        },
        {
          "indexed": true,
          "name": "newOwner",
          "type": "address"
        }
      ],
      "name": "OwnershipTransferred",
      "type": "event",
      "signature": "0x8be0079c531659141344cd1fd0a4f28419497f9722a3daafe3b4186f6b6457e0"
    },
    {
      "constant": false,
      "inputs": [
        {
          "name": "newTokenContractAddress",
          "type": "address"
        }
      ],
      "name": "setTokenContractAddress",
      "outputs": [],
      "payable": false,
      "stateMutability": "nonpayable",
      "type": "function",
      "signature": "0xb23d4854"
    },
    {
      "constant": false,
      "inputs": [
        {
          "name": "newCooContractAddress",
          "type": "address"
        }
      ],
      "name": "setCooContractAddress",
      "outputs": [],
      "payable": false,
      "stateMutability": "nonpayable",
      "type": "function",
      "signature": "0xa8561885"
    },
    {
      "constant": false,
      "inputs": [
        {
          "name": "certificateId",
          "type": "uint256"
        },
        {
          "name": "price",
          "type": "uint256"
        },
        {
          "name": "expiresAt",
          "type": "uint256"
        }
      ],
      "name": "createSale",
      "outputs": [],
      "payable": false,
      "stateMutability": "nonpayable",
      "type": "function",
      "signature": "0x6c1909ed"
    },
    {
      "constant": false,
      "inputs": [
        {
          "name": "saleId",
          "type": "uint256"
        }
      ],
      "name": "cancelSale",
      "outputs": [],
      "payable": false,
      "stateMutability": "nonpayable",
      "type": "function",
      "signature": "0xbd94b005"
    },
    {
      "constant": false,
      "inputs": [
        {
          "name": "saleId",
          "type": "uint256"
        }
      ],
      "name": "executeSale",
      "outputs": [],
      "payable": false,
      "stateMutability": "nonpayable",
      "type": "function",
      "signature": "0x9b1225c4"
    },
    {
      "constant": false,
      "inputs": [
        {
          "name": "certificateId",
          "type": "uint256"
        },
        {
          "name": "startingPrice",
          "type": "uint256"
        },
        {
          "name": "expiresAt",
          "type": "uint256"
        }
      ],
      "name": "createAuction",
      "outputs": [],
      "payable": false,
      "stateMutability": "nonpayable",
      "type": "function",
      "signature": "0xcda4beef"
    },
    {
      "constant": false,
      "inputs": [
        {
          "name": "auctionId",
          "type": "uint256"
        }
      ],
      "name": "cancelAuction",
      "outputs": [],
      "payable": false,
      "stateMutability": "nonpayable",
      "type": "function",
      "signature": "0x96b5a755"
    },
    {
      "constant": false,
      "inputs": [
        {
          "name": "auctionId",
          "type": "uint256"
        },
        {
          "name": "amount",
          "type": "uint256"
        }
      ],
      "name": "executeAuction",
      "outputs": [],
      "payable": false,
      "stateMutability": "nonpayable",
      "type": "function",
      "signature": "0x25d377f7"
    },
    {
      "constant": false,
      "inputs": [
        {
          "name": "auctionId",
          "type": "uint256"
        }
      ],
      "name": "completeAuction",
      "outputs": [],
      "payable": false,
      "stateMutability": "nonpayable",
      "type": "function",
      "signature": "0x21b62886"
    }
  ],
  "bytecode": "0x60806040523480156200001157600080fd5b5060405160408062002acb833981016040819052815160209092015160008054600160a060020a03191633178082559192600160a060020a0392909216917f8be0079c531659141344cd1fd0a4f28419497f9722a3daafe3b4186f6b6457e0908290a36200008833640100000000620000c3810204565b60028054600160a860020a031916610100600160a060020a039485160217905560038054600160a060020a03191691909216179055620001a8565b620000de600182640100000000620028596200011582021704565b604051600160a060020a038216907f6719d08c1888103bea251a4ed56406bd0c3e69723c8a1686e017e7bbe159b6f890600090a250565b600160a060020a03811615156200012b57600080fd5b62000140828264010000000062000170810204565b156200014b57600080fd5b600160a060020a0316600090815260209190915260409020805460ff19166001179055565b6000600160a060020a03821615156200018857600080fd5b50600160a060020a03166000908152602091909152604090205460ff1690565b61291380620001b86000396000f3006080604052600436106101455763ffffffff60e060020a6000350416631505a2ba811461014a57806321b628861461018057806325d377f71461019a5780633f4ba83a146101b55780633fd73340146101ca57806346fbf68e146101fb578063571a26a0146102305780635c975abb146102a25780636c1909ed146102b75780636ef8d66d146102d5578063715018a6146102ea57806381839fa8146102ff57806382dc1ec41461032357806382edaf94146103445780638456cb59146103595780638da5cb5b1461036e5780638f32d59b1461038357806396b5a755146103985780639b1225c4146103b0578063a8561885146103c8578063b23d4854146103e9578063b5f522f71461040a578063bd94b0051461048d578063cda4beef146104a5578063d74a5701146104c3578063da71a271146104e7578063f2fde38b1461050b575b600080fd5b34801561015657600080fd5b5061016e600160a060020a036004351660243561052c565b60408051918252519081900360200190f35b34801561018c57600080fd5b5061019860043561055c565b005b3480156101a657600080fd5b50610198600435602435610bfa565b3480156101c157600080fd5b50610198611133565b3480156101d657600080fd5b506101df611197565b60408051600160a060020a039092168252519081900360200190f35b34801561020757600080fd5b5061021c600160a060020a03600435166111a6565b604080519115158252519081900360200190f35b34801561023c57600080fd5b506102486004356111bf565b6040518088600281111561025857fe5b60ff168152600160a060020a039788166020820152959096166040808701919091526060860194909452608085019290925260a084015260c0830152519081900360e00192509050f35b3480156102ae57600080fd5b5061021c61121b565b3480156102c357600080fd5b50610198600435602435604435611224565b3480156102e157600080fd5b5061019861159b565b3480156102f657600080fd5b506101986115a6565b34801561030b57600080fd5b5061016e600160a060020a0360043516602435611610565b34801561032f57600080fd5b50610198600160a060020a036004351661162b565b34801561035057600080fd5b506101df61164b565b34801561036557600080fd5b5061019861165f565b34801561037a57600080fd5b506101df6116c5565b34801561038f57600080fd5b5061021c6116d4565b3480156103a457600080fd5b506101986004356116e5565b3480156103bc57600080fd5b5061019860043561186e565b3480156103d457600080fd5b50610198600160a060020a0360043516611f48565b3480156103f557600080fd5b50610198600160a060020a0360043516612021565b34801561041657600080fd5b50610422600435612100565b6040518087815260200186815260200185815260200184600281111561044457fe5b60ff16815260200183600160a060020a0316600160a060020a0316815260200182600160a060020a0316600160a060020a03168152602001965050505050505060405180910390f35b34801561049957600080fd5b50610198600435612156565b3480156104b157600080fd5b506101986004356024356044356122e8565b3480156104cf57600080fd5b5061016e600160a060020a0360043516602435612677565b3480156104f357600080fd5b5061016e600160a060020a0360043516602435612692565b34801561051757600080fd5b50610198600160a060020a03600435166126ad565b60086020528160005260406000208181548110151561054757fe5b90600052602060002001600091509150505481565b600254600090819060ff161561057157600080fd5b5050600254600354600160a060020a03610100909204821691166000600780548590811061059b57fe5b600091825260209091206006909102015460ff1660028111156105ba57fe5b1461060f576040805160e560020a62461bcd02815260206004820152601b60248201527f41756374696f6e206973206e6f74206f70656e20616e796d6f72650000000000604482015290519081900360640190fd5b4260078481548110151561061f57fe5b906000526020600020906006020160050154101515610688576040805160e560020a62461bcd02815260206004820152601b60248201527f41756374696f6e20686173206e6f742065787069726564207965740000000000604482015290519081900360640190fd5b30600160a060020a031681600160a060020a031663081812fc6007868154811015156106b057fe5b9060005260206000209060060201600401546040518263ffffffff1660e060020a02815260040180828152602001915050602060405180830381600087803b1580156106fb57600080fd5b505af115801561070f573d6000803e3d6000fd5b505050506040513d602081101561072557600080fd5b5051600160a060020a031614610787576040805160e560020a62461bcd02815260206004820152603160248201526000805160206128a883398151915260448201526000805160206128c8833981519152606482015290519081900360840190fd5b600780548490811061079557fe5b90600052602060002090600602016003015482600160a060020a031663dd62ed3e33306040518363ffffffff1660e060020a0281526004018083600160a060020a0316600160a060020a0316815260200182600160a060020a0316600160a060020a0316815260200192505050602060405180830381600087803b15801561081c57600080fd5b505af1158015610830573d6000803e3d6000fd5b505050506040513d602081101561084657600080fd5b505110156108b2576040805160e560020a62461bcd02815260206004820152603160248201526000805160206128a883398151915260448201527f756c6174652062757965722066756e6473000000000000000000000000000000606482015290519081900360840190fd5b81600160a060020a03166323b872dd336007868154811015156108d157fe5b906000526020600020906006020160000160019054906101000a9004600160a060020a031660078781548110151561090557fe5b9060005260206000209060060201600301546040518463ffffffff1660e060020a0281526004018084600160a060020a0316600160a060020a0316815260200183600160a060020a0316600160a060020a031681526020018281526020019350505050602060405180830381600087803b15801561098257600080fd5b505af1158015610996573d6000803e3d6000fd5b505050506040513d60208110156109ac57600080fd5b50511515610a2a576040805160e560020a62461bcd02815260206004820152602560248201527f436f6e747261637420636f756c64206e6f74207472616e73666572207468652060448201527f66756e6473000000000000000000000000000000000000000000000000000000606482015290519081900360840190fd5b80600160a060020a03166323b872dd600785815481101515610a4857fe5b906000526020600020906006020160000160019054906101000a9004600160a060020a031633600787815481101515610a7d57fe5b9060005260206000209060060201600401546040518463ffffffff1660e060020a0281526004018084600160a060020a0316600160a060020a0316815260200183600160a060020a0316600160a060020a031681526020018281526020019350505050600060405180830381600087803b158015610afa57600080fd5b505af1158015610b0e573d6000803e3d6000fd5b5050505033600784815481101515610b2257fe5b906000526020600020906006020160010160006101000a815481600160a060020a030219169083600160a060020a031602179055506001600784815481101515610b6857fe5b60009182526020909120600690910201805460ff19166001836002811115610b8c57fe5b021790555033600160a060020a03167feeaf33aa12f9f2732a7edcfc04439e9cfae37c4acbf4ab2edce890820b4fccc484600786815481101515610bcc57fe5b60009182526020918290206003600690920201015460408051938452918301528051918290030190a2505050565b600254600090819060ff1615610c0f57600080fd5b505060025460035460078054610100909304600160a060020a039081169392169133919086908110610c3d57fe5b60009182526020909120600690910201546101009004600160a060020a03161415610cd8576040805160e560020a62461bcd02815260206004820152602260248201527f596f752063616e6e6f7420626964206f6e20796f7572206f776e20617563746960448201527f6f6e000000000000000000000000000000000000000000000000000000000000606482015290519081900360840190fd5b60006007805486908110610ce857fe5b600091825260209091206006909102015460ff166002811115610d0757fe5b14610d5c576040805160e560020a62461bcd02815260206004820152601b60248201527f41756374696f6e206973206e6f74206f70656e20616e796d6f72650000000000604482015290519081900360640190fd5b6007805485908110610d6a57fe5b90600052602060002090600602016005015442111515610dd4576040805160e560020a62461bcd02815260206004820152601360248201527f41756374696f6e20686173206578706972656400000000000000000000000000604482015290519081900360640190fd5b6007805485908110610de257fe5b9060005260206000209060060201600201548310158015610e2157506007805485908110610e0c57fe5b90600052602060002090600602016003015483115b1515610e77576040805160e560020a62461bcd02815260206004820152601560248201527f416d6f756e74206d757374206265206869676865720000000000000000000000604482015290519081900360640190fd5b30600160a060020a031681600160a060020a031663081812fc600787815481101515610e9f57fe5b9060005260206000209060060201600401546040518263ffffffff1660e060020a02815260040180828152602001915050602060405180830381600087803b158015610eea57600080fd5b505af1158015610efe573d6000803e3d6000fd5b505050506040513d6020811015610f1457600080fd5b5051600160a060020a031614610f76576040805160e560020a62461bcd02815260206004820152603160248201526000805160206128a883398151915260448201526000805160206128c8833981519152606482015290519081900360840190fd5b604080517fdd62ed3e00000000000000000000000000000000000000000000000000000000815233600482015230602482015290518491600160a060020a0385169163dd62ed3e916044808201926020929091908290030181600087803b158015610fe057600080fd5b505af1158015610ff4573d6000803e3d6000fd5b505050506040513d602081101561100a57600080fd5b50511015611076576040805160e560020a62461bcd02815260206004820152603160248201526000805160206128a883398151915260448201527f756c6174652062757965722066756e6473000000000000000000000000000000606482015290519081900360840190fd5b8260078581548110151561108657fe5b906000526020600020906006020160030181905550336007858154811015156110ab57fe5b60009182526020918290206001600690920201018054600160a060020a039390931673ffffffffffffffffffffffffffffffffffffffff1990931692909217909155604080518681523392810192909252818101859052517f558a0d5d5468d74b0db24c74eb348b42271c2ebb4c9e953ced38aaed95fa43619181900360600190a150505050565b61113c336111a6565b151561114757600080fd5b60025460ff16151561115857600080fd5b6002805460ff191690556040805133815290517f5db9ee0a495bf2e6ff9c91a7834c1ba4fdd244a5e8aa4e537bd38aeae4b073aa9181900360200190a1565b600354600160a060020a031681565b60006111b960018363ffffffff6126c916565b92915050565b60078054829081106111cd57fe5b600091825260209091206006909102018054600182015460028301546003840154600485015460059095015460ff85169650610100909404600160a060020a03908116959316939192909187565b60025460ff1690565b600254600090819060ff161561123957600080fd5b600354604080517f6352211e000000000000000000000000000000000000000000000000000000008152600481018890529051600160a060020a03909216935033918491636352211e9160248083019260209291908290030181600087803b1580156112a457600080fd5b505af11580156112b8573d6000803e3d6000fd5b505050506040513d60208110156112ce57600080fd5b5051600160a060020a031614611354576040805160e560020a62461bcd02815260206004820152602a60248201527f53656e646572206973206e6f7420746865206f776e6572206f6620746865206360448201527f6572746966696361746500000000000000000000000000000000000000000000606482015290519081900360840190fd5b30600160a060020a031682600160a060020a031663081812fc876040518263ffffffff1660e060020a02815260040180828152602001915050602060405180830381600087803b1580156113a757600080fd5b505af11580156113bb573d6000803e3d6000fd5b505050506040513d60208110156113d157600080fd5b5051600160a060020a031614611433576040805160e560020a62461bcd02815260206004820152603160248201526000805160206128a883398151915260448201526000805160206128c8833981519152606482015290519081900360840190fd5b6001600460c0604051908101604052808781526020018881526020018681526020016000600281111561146257fe5b8152336020808301919091526000604092830181905284546001818101808855968352918390208551600590920201908155918401518282015591830151600280830191909155606084015160038301805493949193909260ff19909116919084908111156114cd57fe5b0217905550608082015160038201805474ffffffffffffffffffffffffffffffffffffffff001916610100600160a060020a039384160217905560a0909201516004909101805473ffffffffffffffffffffffffffffffffffffffff19169190921617905533600081815260056020908152604080832080546001810182559084529282902095909403949091018490558251848152925193945090927f02d62788b45b68a9eb64f42a2bae69c5b4a36218536465e038eab160c2b2aef29281900390910190a25050505050565b6115a433612700565b565b6115ae6116d4565b15156115b957600080fd5b60008054604051600160a060020a03909116907f8be0079c531659141344cd1fd0a4f28419497f9722a3daafe3b4186f6b6457e0908390a36000805473ffffffffffffffffffffffffffffffffffffffff19169055565b60056020528160005260406000208181548110151561054757fe5b611634336111a6565b151561163f57600080fd5b61164881612748565b50565b6002546101009004600160a060020a031681565b611668336111a6565b151561167357600080fd5b60025460ff161561168357600080fd5b6002805460ff191660011790556040805133815290517f62e78cea01bee320cd4e420270b5ea74000d11b0c9f74754ebdbfc544b05a2589181900360200190a1565b600054600160a060020a031690565b600054600160a060020a0316331490565b60025460ff16156116f557600080fd5b600780543391908390811061170657fe5b60009182526020909120600690910201546101009004600160a060020a03161461177a576040805160e560020a62461bcd02815260206004820152601e60248201527f596f752063616e6e6f742063616e63656c20746869732061756374696f6e0000604482015290519081900360640190fd5b6000600780548390811061178a57fe5b600091825260209091206006909102015460ff1660028111156117a957fe5b146117fe576040805160e560020a62461bcd02815260206004820152601b60248201527f41756374696f6e206973206e6f74206f70656e20616e796d6f72650000000000604482015290519081900360640190fd5b600260078281548110151561180f57fe5b60009182526020909120600690910201805460ff1916600183600281111561183357fe5b02179055506040805182815290517f28601d865dccc9f113e15a7185c1b38c085d598c71250d3337916a428536d7719181900360200190a150565b600254600090819060ff161561188357600080fd5b505060025460035460048054610100909304600160a060020a0390811693921691339190859081106118b157fe5b60009182526020909120600590910201600301546101009004600160a060020a03161415611929576040805160e560020a62461bcd02815260206004820181905260248201527f596f752063616e6e6f74206578656375746520796f7572206f776e2073616c65604482015290519081900360640190fd5b6000600480548590811061193957fe5b600091825260209091206003600590920201015460ff16600281111561195b57fe5b146119b0576040805160e560020a62461bcd02815260206004820152601860248201527f53616c65206973206e6f74206f70656e20616e796d6f72650000000000000000604482015290519081900360640190fd5b60048054849081106119be57fe5b90600052602060002090600502016002015442111515611a28576040805160e560020a62461bcd02815260206004820152601060248201527f53616c6520686173206578706972656400000000000000000000000000000000604482015290519081900360640190fd5b30600160a060020a031681600160a060020a031663081812fc600486815481101515611a5057fe5b9060005260206000209060050201600101546040518263ffffffff1660e060020a02815260040180828152602001915050602060405180830381600087803b158015611a9b57600080fd5b505af1158015611aaf573d6000803e3d6000fd5b505050506040513d6020811015611ac557600080fd5b5051600160a060020a031614611b27576040805160e560020a62461bcd02815260206004820152603160248201526000805160206128a883398151915260448201526000805160206128c8833981519152606482015290519081900360840190fd5b6004805484908110611b3557fe5b60009182526020808320600590920290910154604080517fdd62ed3e00000000000000000000000000000000000000000000000000000000815233600482015230602482015290519193600160a060020a0387169363dd62ed3e93604480850194929391928390030190829087803b158015611bb057600080fd5b505af1158015611bc4573d6000803e3d6000fd5b505050506040513d6020811015611bda57600080fd5b50511015611c46576040805160e560020a62461bcd02815260206004820152603160248201526000805160206128a883398151915260448201527f756c6174652062757965722066756e6473000000000000000000000000000000606482015290519081900360840190fd5b81600160a060020a03166323b872dd33600486815481101515611c6557fe5b906000526020600020906005020160030160019054906101000a9004600160a060020a0316600487815481101515611c9957fe5b9060005260206000209060050201600001546040518463ffffffff1660e060020a0281526004018084600160a060020a0316600160a060020a0316815260200183600160a060020a0316600160a060020a031681526020018281526020019350505050602060405180830381600087803b158015611d1657600080fd5b505af1158015611d2a573d6000803e3d6000fd5b505050506040513d6020811015611d4057600080fd5b50511515611dbe576040805160e560020a62461bcd02815260206004820152602560248201527f436f6e747261637420636f756c64206e6f74207472616e73666572207468652060448201527f66756e6473000000000000000000000000000000000000000000000000000000606482015290519081900360840190fd5b80600160a060020a03166323b872dd600485815481101515611ddc57fe5b906000526020600020906005020160030160019054906101000a9004600160a060020a031633600487815481101515611e1157fe5b600091825260208220600160059092020101546040805160e060020a63ffffffff8816028152600160a060020a039586166004820152939094166024840152604483015291516064808301939282900301818387803b158015611e7357600080fd5b505af1158015611e87573d6000803e3d6000fd5b5050505033600484815481101515611e9b57fe5b906000526020600020906005020160040160006101000a815481600160a060020a030219169083600160a060020a031602179055506001600484815481101515611ee157fe5b60009182526020909120600360059092020101805460ff19166001836002811115611f0857fe5b021790555060408051848152905133917f8262b86fecd9df80dbb59dce1f2d83b992fa5e477fca9b869af821ea565e673c919081900360200190a2505050565b611f506116d4565b1515611f5b57600080fd5b60025460ff161515611f6c57600080fd5b600160a060020a0381161515611ff2576040805160e560020a62461bcd02815260206004820152602560248201527f4e657720746f6b656e20636f6e7472616374206164647265737320697320696e60448201527f76616c6964000000000000000000000000000000000000000000000000000000606482015290519081900360840190fd5b6003805473ffffffffffffffffffffffffffffffffffffffff1916600160a060020a0392909216919091179055565b6120296116d4565b151561203457600080fd5b60025460ff16151561204557600080fd5b600160a060020a03811615156120cb576040805160e560020a62461bcd02815260206004820152602560248201527f4e657720746f6b656e20636f6e7472616374206164647265737320697320696e60448201527f76616c6964000000000000000000000000000000000000000000000000000000606482015290519081900360840190fd5b60028054600160a060020a039092166101000274ffffffffffffffffffffffffffffffffffffffff0019909216919091179055565b600480548290811061210e57fe5b6000918252602090912060059091020180546001820154600283015460038401546004909401549294509092909160ff821691600160a060020a036101009091048116911686565b60025460ff161561216657600080fd5b600480543391908390811061217757fe5b60009182526020909120600590910201600301546101009004600160a060020a0316146121ee576040805160e560020a62461bcd02815260206004820152601b60248201527f596f752063616e6e6f742063616e63656c20746869732073616c650000000000604482015290519081900360640190fd5b600060048054839081106121fe57fe5b600091825260209091206003600590920201015460ff16600281111561222057fe5b14612275576040805160e560020a62461bcd02815260206004820152601860248201527f53616c65206973206e6f74206f70656e20616e796d6f72650000000000000000604482015290519081900360640190fd5b600260048281548110151561228657fe5b60009182526020909120600360059092020101805460ff191660018360028111156122ad57fe5b02179055506040805182815290517fbc3d8540adfcf6600ea8f790c6ed415a6aa7a1219d45ecefc5bdff014348a8b09181900360200190a150565b600254600090819060ff16156122fd57600080fd5b600354604080517f6352211e000000000000000000000000000000000000000000000000000000008152600481018890529051600160a060020a03909216935033918491636352211e9160248083019260209291908290030181600087803b15801561236857600080fd5b505af115801561237c573d6000803e3d6000fd5b505050506040513d602081101561239257600080fd5b5051600160a060020a031614612418576040805160e560020a62461bcd02815260206004820152602a60248201527f53656e646572206973206e6f7420746865206f776e6572206f6620746865206360448201527f6572746966696361746500000000000000000000000000000000000000000000606482015290519081900360840190fd5b30600160a060020a031682600160a060020a031663081812fc876040518263ffffffff1660e060020a02815260040180828152602001915050602060405180830381600087803b15801561246b57600080fd5b505af115801561247f573d6000803e3d6000fd5b505050506040513d602081101561249557600080fd5b5051600160a060020a0316146124f7576040805160e560020a62461bcd02815260206004820152603160248201526000805160206128a883398151915260448201526000805160206128c8833981519152606482015290519081900360840190fd5b6040805160e0810182526000808252336020830152918101829052606081018690526080810182905260a0810187905260c0810185905260078054600181810180845592909452825160069091027fa66cc928b5edb82af9bd49922954155ab7b0942694bea4ce44661d9a8736c688018054929392909190829060ff19168683600281111561258257fe5b0217905550602082810151825474ffffffffffffffffffffffffffffffffffffffff001916610100600160a060020a03928316021783556040808501516001808601805473ffffffffffffffffffffffffffffffffffffffff19169290941691909117909255606085015160028501556080850151600385015560a0850151600485015560c0909401516005909301929092553360008181526008835284812080549485018155815282902095909403949091018490558151848152915193945091927f5d551e2a2cc977fd8c530317059b4f2d9f504fb82f7dfad736f8d56679bcdfd0929181900390910190a25050505050565b60096020528160005260406000208181548110151561054757fe5b60066020528160005260406000208181548110151561054757fe5b6126b56116d4565b15156126c057600080fd5b61164881612790565b6000600160a060020a03821615156126e057600080fd5b50600160a060020a03166000908152602091909152604090205460ff1690565b61271160018263ffffffff61280d16565b604051600160a060020a038216907fcd265ebaf09df2871cc7bd4133404a235ba12eff2041bb89d9c714a2621c7c7e90600090a250565b61275960018263ffffffff61285916565b604051600160a060020a038216907f6719d08c1888103bea251a4ed56406bd0c3e69723c8a1686e017e7bbe159b6f890600090a250565b600160a060020a03811615156127a557600080fd5b60008054604051600160a060020a03808516939216917f8be0079c531659141344cd1fd0a4f28419497f9722a3daafe3b4186f6b6457e091a36000805473ffffffffffffffffffffffffffffffffffffffff1916600160a060020a0392909216919091179055565b600160a060020a038116151561282257600080fd5b61282c82826126c9565b151561283757600080fd5b600160a060020a0316600090815260209190915260409020805460ff19169055565b600160a060020a038116151561286e57600080fd5b61287882826126c9565b1561288257600080fd5b600160a060020a0316600090815260209190915260409020805460ff191660011790555600436f6e7472616374206973206e6f7420616c6c6f77656420746f206d616e6970756c617465206365727469666963617465000000000000000000000000000000a165627a7a7230582009626b78690671bf0379a126b9b017f6566e4a5801d32d6a8f0bb4c8c313c96c0029",
  "source": "pragma solidity 0.4.25;\n\nimport \"openzeppelin-solidity/contracts/token/ERC20/IERC20.sol\";\nimport \"openzeppelin-solidity/contracts/token/ERC721/IERC721.sol\";\nimport \"openzeppelin-solidity/contracts/ownership/Ownable.sol\";\nimport \"openzeppelin-solidity/contracts/lifecycle/Pausable.sol\";\nimport \"openzeppelin-solidity/contracts/math/SafeMath.sol\";\n\n\n/**\n * @title Marketplace contract\n * @dev This contract handles how certificates can be traded\n */\ncontract Marketplace is Ownable, Pausable {\n    address public tokenContractAddress;\n    address public cooContractAddress;\n\n    constructor(address initialTokenContractAddress, address initialCooContractAddress) public {\n        tokenContractAddress = initialTokenContractAddress;\n        cooContractAddress = initialCooContractAddress;\n    }\n\n    enum Status { Open, Completed, Canceled }\n\n    /**\n     * Sales are instantaneous orders\n     */\n    struct Sale {\n        uint256 price;\n        uint256 certificateId;\n        uint256 expiresAt;\n        Status status;\n        address seller;\n        address buyer;\n    }\n\n    Sale[] public sales;\n\n    mapping (address => uint256[]) public salesToSellers;\n    mapping (address => uint256[]) public salesToBuyers;\n\n    /**\n     * @dev Emitted when a new sale has been created\n     * @param saleId The id of the sale\n     * @param seller The address of the seller\n     */\n    event SaleCreated(\n        uint256 saleId,\n        address indexed seller\n    );\n\n    /**\n     * @dev Emitted when a sale has been completed\n     * @param saleId The id of the sale\n     * @param buyer The address of the buyer\n     */\n    event SaleCompleted(\n        uint256 saleId,\n        address indexed buyer\n    );\n\n    /**\n     * @dev Emitted when a sale has been canceled\n     * @param saleId The id of the sale\n     */\n    event SaleCanceled(\n        uint256 saleId\n    );\n\n    /**\n     * Orders can be auctions too\n     */\n    struct Auction {\n        Status status;\n        address seller;\n        address buyer;\n        uint256 startingPrice;\n        uint256 currentBid;\n        uint256 certificateId;\n        uint256 expiresAt;\n    }\n\n    Auction[] public auctions;\n\n    mapping (address => uint256[]) public auctionsToSellers;\n    mapping (address => uint256[]) public auctionsToBuyers;\n\n    /**\n     * @dev Emitted when a new auction has been created\n     * @param auctionId The id of the auction\n     * @param seller The address of the seller\n     */\n    event AuctionCreated(\n        uint256 auctionId,\n        address indexed seller\n    );\n\n    /**\n     * @dev Emitted when a new bid has been made\n     * @param auctionId The id of the auction\n     * @param bidder The address of the bidder\n     * @param currentBid The amount of the bid\n     */\n    event NewBid(\n        uint256 auctionId,\n        address bidder,\n        uint256 currentBid\n    );\n\n    /**\n     * @dev Emitted when an auction has been completed\n     * @param auctionId The id of the auction\n     * @param buyer The address of the buyer\n     * @param price The final price of the auction\n     */\n    event AuctionCompleted(\n        uint256 auctionId,\n        address indexed buyer,\n        uint256 price\n    );\n\n    /**\n     * @dev Emitted when an auction has been canceled\n     * @param auctionId The id of the auction\n     */\n    event AuctionCanceled(\n        uint256 auctionId\n    );\n\n    /**\n     * @dev Updates the address of the token contract\n     * @param newTokenContractAddress The new address of the token contract\n     */\n    function setTokenContractAddress(address newTokenContractAddress) external onlyOwner() whenPaused() {\n        require(newTokenContractAddress != address(0), \"New token contract address is invalid\");\n\n        tokenContractAddress = newTokenContractAddress;\n    }\n\n    /**\n     * @dev Updates the address of the COO contract\n     * @param newCooContractAddress The new address of the COO contract\n     */\n    function setCooContractAddress(address newCooContractAddress) external onlyOwner() whenPaused() {\n        require(newCooContractAddress != address(0), \"New token contract address is invalid\");\n\n        cooContractAddress = newCooContractAddress;\n    }\n\n    /**\n     * @dev Creates a new sale\n     * @param certificateId The id of the certificate\n     * @param price The expected price\n     * @param expiresAt The expiry date of the sale (as a timestamp)\n     */\n    function createSale(uint256 certificateId, uint256 price, uint256 expiresAt) external whenNotPaused() {\n        IERC721 cooContract = IERC721(cooContractAddress);\n\n        require(\n            cooContract.ownerOf(certificateId) == msg.sender,\n            \"Sender is not the owner of the certificate\"\n        );\n\n        require(\n            cooContract.getApproved(certificateId) == address(this),\n            \"Contract is not allowed to manipulate certificate\"\n        );\n\n        uint256 saleId = sales.push(\n            Sale({\n                status: Status.Open,\n                seller: msg.sender,\n                buyer: address(0),\n                price: price,\n                certificateId: certificateId,\n                expiresAt: expiresAt\n            })\n        ) - 1;\n\n        salesToSellers[msg.sender].push(saleId);\n\n        emit SaleCreated(saleId, msg.sender);\n    }\n\n    /**\n     * @dev Cancels a sale\n     * @param saleId The id of the sale\n     */\n    function cancelSale(uint256 saleId) external whenNotPaused() {\n        require(\n            sales[saleId].seller == msg.sender,\n            \"You cannot cancel this sale\"\n        );\n\n        require(\n            sales[saleId].status == Status.Open,\n            \"Sale is not open anymore\"\n        );\n\n        sales[saleId].status = Status.Canceled;\n\n        emit SaleCanceled(saleId);\n    }\n\n    /**\n     * @dev Executes a sale\n     * @param saleId The id of the sale\n     */\n    function executeSale(uint256 saleId) external whenNotPaused() {\n        IERC20 tokenContract = IERC20(tokenContractAddress);\n        IERC721 cooContract = IERC721(cooContractAddress);\n\n        require(\n            sales[saleId].seller != msg.sender,\n            \"You cannot execute your own sale\"\n        );\n\n        require(\n            sales[saleId].status == Status.Open,\n            \"Sale is not open anymore\"\n        );\n\n        require(\n            now > sales[saleId].expiresAt,\n            \"Sale has expired\"\n        );\n\n        require(\n            cooContract.getApproved(sales[saleId].certificateId) == address(this),\n            \"Contract is not allowed to manipulate certificate\"\n        );\n\n        require(\n            tokenContract.allowance(msg.sender, address(this)) >= sales[saleId].price,\n            \"Contract is not allowed to manipulate buyer funds\"\n        );\n\n        require(\n            tokenContract.transferFrom(msg.sender, sales[saleId].seller, sales[saleId].price),\n            \"Contract could not transfer the funds\"\n        );\n\n        cooContract.transferFrom(sales[saleId].seller, msg.sender, sales[saleId].certificateId);\n\n        sales[saleId].buyer = msg.sender;\n        sales[saleId].status = Status.Completed;\n\n        emit SaleCompleted(saleId, msg.sender);\n    }\n\n    /**\n     * @dev Creates an auction\n     * @param certificateId The id of the certificate\n     * @param startingPrice The starting price of the auction\n     * @param expiresAt The expiry date of the auction\n     */\n    function createAuction(uint256 certificateId, uint256 startingPrice, uint256 expiresAt) external whenNotPaused() {\n        IERC721 cooContract = IERC721(cooContractAddress);\n\n        require(\n            cooContract.ownerOf(certificateId) == msg.sender,\n            \"Sender is not the owner of the certificate\"\n        );\n\n        require(\n            cooContract.getApproved(certificateId) == address(this),\n            \"Contract is not allowed to manipulate certificate\"\n        );\n\n        uint256 auctionId = auctions.push(\n            Auction({\n                status: Status.Open,\n                seller: msg.sender,\n                buyer: address(0),\n                startingPrice: startingPrice,\n                currentBid: 0,\n                certificateId: certificateId,\n                expiresAt: expiresAt\n            })\n        ) - 1;\n\n        auctionsToSellers[msg.sender].push(auctionId);\n\n        emit AuctionCreated(auctionId, msg.sender);\n    }\n\n    /**\n     * @dev Cancels an auction\n     * @param auctionId The id of the auction\n     */\n    function cancelAuction(uint256 auctionId) external whenNotPaused() {\n        require(\n            auctions[auctionId].seller == msg.sender,\n            \"You cannot cancel this auction\"\n        );\n\n        require(\n            auctions[auctionId].status == Status.Open,\n            \"Auction is not open anymore\"\n        );\n\n        auctions[auctionId].status = Status.Canceled;\n\n        emit AuctionCanceled(auctionId);\n    }\n\n    /**\n     * @dev Executes an auction (Makes a new bid)\n     * @param auctionId The id of the auction\n     * @param amount The amount to bid\n     */\n    function executeAuction(uint256 auctionId, uint256 amount) external whenNotPaused() {\n        IERC20 tokenContract = IERC20(tokenContractAddress);\n        IERC721 cooContract = IERC721(cooContractAddress);\n\n        require(\n            auctions[auctionId].seller != msg.sender,\n            \"You cannot bid on your own auction\"\n        );\n\n        require(\n            auctions[auctionId].status == Status.Open,\n            \"Auction is not open anymore\"\n        );\n\n        require(\n            now > auctions[auctionId].expiresAt,\n            \"Auction has expired\"\n        );\n\n        require(\n            amount >= auctions[auctionId].startingPrice && amount > auctions[auctionId].currentBid,\n            \"Amount must be higher\"\n        );\n\n        require(\n            cooContract.getApproved(auctions[auctionId].certificateId) == address(this),\n            \"Contract is not allowed to manipulate certificate\"\n        );\n\n        require(\n            tokenContract.allowance(msg.sender, address(this)) >= amount,\n            \"Contract is not allowed to manipulate buyer funds\"\n        );\n\n        auctions[auctionId].currentBid = amount;\n        auctions[auctionId].buyer = msg.sender;\n\n        emit NewBid(auctionId, msg.sender, amount);\n    }\n\n    /**\n     * @dev Completes an auction (to claim the certificate)\n     * @param auctionId The id of the auction\n     */\n    function completeAuction(uint256 auctionId) external whenNotPaused() {\n        IERC20 tokenContract = IERC20(tokenContractAddress);\n        IERC721 cooContract = IERC721(cooContractAddress);\n\n        require(\n            auctions[auctionId].status == Status.Open,\n            \"Auction is not open anymore\"\n        );\n\n        require(\n            auctions[auctionId].expiresAt < now,\n            \"Auction has not expired yet\"\n        );\n\n        require(\n            cooContract.getApproved(auctions[auctionId].certificateId) == address(this),\n            \"Contract is not allowed to manipulate certificate\"\n        );\n\n        require(\n            tokenContract.allowance(msg.sender, address(this)) >= auctions[auctionId].currentBid,\n            \"Contract is not allowed to manipulate buyer funds\"\n        );\n\n        require(\n            tokenContract.transferFrom(msg.sender, auctions[auctionId].seller, auctions[auctionId].currentBid),\n            \"Contract could not transfer the funds\"\n        );\n\n        cooContract.transferFrom(auctions[auctionId].seller, msg.sender, auctions[auctionId].certificateId);\n\n        auctions[auctionId].buyer = msg.sender;\n        auctions[auctionId].status = Status.Completed;\n\n        emit AuctionCompleted(auctionId, msg.sender, auctions[auctionId].currentBid);\n    }\n}\n",
  "sourcePath": "/Users/clement/Documents/Dev/herc/COO/COO/contracts/Marketplace.sol",
  "compiler": {
    "name": "solc",
    "version": "0.4.25+commit.59dbf8f1.Emscripten.clang"
  },
  "schemaVersion": "3.0.1",
  "updatedAt": "2019-01-25T09:12:23.927Z",
  "devdoc": {
    "methods": {
      "cancelAuction(uint256)": {
        "details": "Cancels an auction",
        "params": {
          "auctionId": "The id of the auction"
        }
      },
      "cancelSale(uint256)": {
        "details": "Cancels a sale",
        "params": {
          "saleId": "The id of the sale"
        }
      },
      "completeAuction(uint256)": {
        "details": "Completes an auction (to claim the certificate)",
        "params": {
          "auctionId": "The id of the auction"
        }
      },
      "createAuction(uint256,uint256,uint256)": {
        "details": "Creates an auction",
        "params": {
          "certificateId": "The id of the certificate",
          "expiresAt": "The expiry date of the auction",
          "startingPrice": "The starting price of the auction"
        }
      },
      "createSale(uint256,uint256,uint256)": {
        "details": "Creates a new sale",
        "params": {
          "certificateId": "The id of the certificate",
          "expiresAt": "The expiry date of the sale (as a timestamp)",
          "price": "The expected price"
        }
      },
      "executeAuction(uint256,uint256)": {
        "details": "Executes an auction (Makes a new bid)",
        "params": {
          "amount": "The amount to bid",
          "auctionId": "The id of the auction"
        }
      },
      "executeSale(uint256)": {
        "details": "Executes a sale",
        "params": {
          "saleId": "The id of the sale"
        }
      },
      "isOwner()": {
        "return": "true if `msg.sender` is the owner of the contract."
      },
      "owner()": {
        "return": "the address of the owner."
      },
      "pause()": {
        "details": "called by the owner to pause, triggers stopped state"
      },
      "paused()": {
        "return": "true if the contract is paused, false otherwise."
      },
      "renounceOwnership()": {
        "details": "Allows the current owner to relinquish control of the contract."
      },
      "setCooContractAddress(address)": {
        "details": "Updates the address of the COO contract",
        "params": {
          "newCooContractAddress": "The new address of the COO contract"
        }
      },
      "setTokenContractAddress(address)": {
        "details": "Updates the address of the token contract",
        "params": {
          "newTokenContractAddress": "The new address of the token contract"
        }
      },
      "transferOwnership(address)": {
        "details": "Allows the current owner to transfer control of the contract to a newOwner.",
        "params": {
          "newOwner": "The address to transfer ownership to."
        }
      },
      "unpause()": {
        "details": "called by the owner to unpause, returns to normal state"
      }
    },
    "title": "Marketplace contract"
  },
  "userdoc": {
    "methods": {
      "renounceOwnership()": {
        "notice": "Renouncing to ownership will leave the contract without an owner. It will not be possible to call the functions with the `onlyOwner` modifier anymore."
      }
    }
  }
}